{
  "contractName": "FuriousManagingOtter_v1",
  "abi": [
    {
      "anonymous": false,
      "inputs": [
        {
          "indexed": false,
          "internalType": "uint256",
          "name": "id",
          "type": "uint256"
        }
      ],
      "name": "ContractCrashed",
      "type": "event"
    },
    {
      "anonymous": false,
      "inputs": [
        {
          "indexed": false,
          "internalType": "uint256",
          "name": "id",
          "type": "uint256"
        }
      ],
      "name": "ContractCreated",
      "type": "event"
    },
    {
      "anonymous": false,
      "inputs": [
        {
          "indexed": false,
          "internalType": "uint256",
          "name": "id",
          "type": "uint256"
        }
      ],
      "name": "CreationInitialized",
      "type": "event"
    },
    {
      "anonymous": false,
      "inputs": [
        {
          "indexed": false,
          "internalType": "uint256",
          "name": "id",
          "type": "uint256"
        },
        {
          "indexed": false,
          "internalType": "address",
          "name": "executor",
          "type": "address"
        },
        {
          "indexed": false,
          "internalType": "bytes",
          "name": "message",
          "type": "bytes"
        }
      ],
      "name": "ExecutorChallenged",
      "type": "event"
    },
    {
      "anonymous": false,
      "inputs": [
        {
          "indexed": false,
          "internalType": "uint256",
          "name": "id",
          "type": "uint256"
        },
        {
          "indexed": false,
          "internalType": "address",
          "name": "oldExecutor",
          "type": "address"
        },
        {
          "indexed": false,
          "internalType": "address",
          "name": "newExecutor",
          "type": "address"
        }
      ],
      "name": "ExecutorKicked",
      "type": "event"
    },
    {
      "anonymous": false,
      "inputs": [
        {
          "indexed": false,
          "internalType": "uint256",
          "name": "id",
          "type": "uint256"
        },
        {
          "indexed": false,
          "internalType": "address",
          "name": "executor",
          "type": "address"
        },
        {
          "indexed": false,
          "internalType": "bytes",
          "name": "response",
          "type": "bytes"
        }
      ],
      "name": "ExecutorResponse",
      "type": "event"
    },
    {
      "anonymous": false,
      "inputs": [
        {
          "indexed": false,
          "internalType": "address",
          "name": "operator",
          "type": "address"
        }
      ],
      "name": "NewOperator",
      "type": "event"
    },
    {
      "anonymous": false,
      "inputs": [
        {
          "indexed": false,
          "internalType": "uint256",
          "name": "id",
          "type": "uint256"
        },
        {
          "indexed": false,
          "internalType": "bool[30]",
          "name": "dogs",
          "type": "bool[30]"
        },
        {
          "indexed": false,
          "internalType": "bytes",
          "name": "message",
          "type": "bytes"
        }
      ],
      "name": "WatchdogChallenged",
      "type": "event"
    },
    {
      "anonymous": false,
      "inputs": [
        {
          "indexed": false,
          "internalType": "uint256",
          "name": "id",
          "type": "uint256"
        }
      ],
      "name": "WatchdogFinalized",
      "type": "event"
    },
    {
      "anonymous": false,
      "inputs": [
        {
          "indexed": false,
          "internalType": "uint256",
          "name": "id",
          "type": "uint256"
        },
        {
          "indexed": false,
          "internalType": "address",
          "name": "dog",
          "type": "address"
        },
        {
          "indexed": false,
          "internalType": "bytes",
          "name": "response",
          "type": "bytes"
        }
      ],
      "name": "WatchdogResponse",
      "type": "event"
    },
    {
      "inputs": [
        {
          "internalType": "uint256",
          "name": "",
          "type": "uint256"
        }
      ],
      "name": "contracts",
      "outputs": [
        {
          "internalType": "enum FuriousManagingOtter_v1.Phase",
          "name": "phase",
          "type": "uint8"
        },
        {
          "internalType": "uint256",
          "name": "checkpointNumber",
          "type": "uint256"
        },
        {
          "internalType": "address payable",
          "name": "poolAddress",
          "type": "address"
        },
        {
          "internalType": "address",
          "name": "creationOperator",
          "type": "address"
        },
        {
          "internalType": "uint256",
          "name": "executiveOperator",
          "type": "uint256"
        },
        {
          "internalType": "bytes32",
          "name": "codeHash",
          "type": "bytes32"
        },
        {
          "internalType": "enum FuriousManagingOtter_v1.Phase",
          "name": "fallbackPhase",
          "type": "uint8"
        },
        {
          "internalType": "bool",
          "name": "watchdogsChallanged",
          "type": "bool"
        },
        {
          "internalType": "bytes32",
          "name": "execChallangeHash",
          "type": "bytes32"
        },
        {
          "internalType": "bytes32",
          "name": "watchdogChallangeHash",
          "type": "bytes32"
        },
        {
          "internalType": "uint256",
          "name": "deadline",
          "type": "uint256"
        }
      ],
      "stateMutability": "view",
      "type": "function"
    },
    {
      "inputs": [
        {
          "internalType": "uint256",
          "name": "",
          "type": "uint256"
        }
      ],
      "name": "operatorList",
      "outputs": [
        {
          "internalType": "address",
          "name": "",
          "type": "address"
        }
      ],
      "stateMutability": "view",
      "type": "function"
    },
    {
      "inputs": [
        {
          "internalType": "address",
          "name": "",
          "type": "address"
        }
      ],
      "name": "operators",
      "outputs": [
        {
          "internalType": "bool",
          "name": "initialized",
          "type": "bool"
        },
        {
          "internalType": "address",
          "name": "teeSignatureAddress",
          "type": "address"
        },
        {
          "internalType": "bytes",
          "name": "teeEncryptionKey",
          "type": "bytes"
        }
      ],
      "stateMutability": "view",
      "type": "function"
    },
    {
      "inputs": [
        {
          "internalType": "address",
          "name": "teeSignatureAddress",
          "type": "address"
        },
        {
          "internalType": "bytes",
          "name": "teeEncryptionKey",
          "type": "bytes"
        },
        {
          "internalType": "bytes",
          "name": "attestationSignature",
          "type": "bytes"
        }
      ],
      "name": "register",
      "outputs": [],
      "stateMutability": "nonpayable",
      "type": "function"
    },
    {
      "inputs": [
        {
          "internalType": "address",
          "name": "creationOperator",
          "type": "address"
        },
        {
          "internalType": "bytes32",
          "name": "codeHash",
          "type": "bytes32"
        },
        {
          "internalType": "uint256",
          "name": "freeId",
          "type": "uint256"
        }
      ],
      "name": "initCreation",
      "outputs": [],
      "stateMutability": "nonpayable",
      "type": "function"
    },
    {
      "inputs": [
        {
          "internalType": "uint256",
          "name": "id",
          "type": "uint256"
        },
        {
          "internalType": "address[30]",
          "name": "pool_operators",
          "type": "address[30]"
        },
        {
          "internalType": "bytes",
          "name": "message",
          "type": "bytes"
        },
        {
          "internalType": "bool[30]",
          "name": "challangedOperators",
          "type": "bool[30]"
        }
      ],
      "name": "challangeWatchdogsDuringCreation",
      "outputs": [],
      "stateMutability": "nonpayable",
      "type": "function"
    },
    {
      "inputs": [
        {
          "internalType": "uint256",
          "name": "id",
          "type": "uint256"
        },
        {
          "internalType": "address payable",
          "name": "pool_address",
          "type": "address"
        },
        {
          "internalType": "address[30]",
          "name": "pool_operators",
          "type": "address[30]"
        },
        {
          "internalType": "bytes",
          "name": "signature",
          "type": "bytes"
        }
      ],
      "name": "finalizeCreation",
      "outputs": [],
      "stateMutability": "nonpayable",
      "type": "function"
    },
    {
      "inputs": [
        {
          "internalType": "uint256",
          "name": "id",
          "type": "uint256"
        }
      ],
      "name": "depositToContract",
      "outputs": [],
      "stateMutability": "payable",
      "type": "function"
    },
    {
      "inputs": [
        {
          "internalType": "uint256",
          "name": "id",
          "type": "uint256"
        },
        {
          "internalType": "uint256",
          "name": "blocknumber",
          "type": "uint256"
        },
        {
          "internalType": "bytes32",
          "name": "claimedBlockash",
          "type": "bytes32"
        },
        {
          "internalType": "address payable",
          "name": "receiver",
          "type": "address"
        }
      ],
      "name": "withdraw",
      "outputs": [],
      "stateMutability": "payable",
      "type": "function"
    },
    {
      "inputs": [
        {
          "internalType": "uint256",
          "name": "id",
          "type": "uint256"
        },
        {
          "internalType": "bytes",
          "name": "message",
          "type": "bytes"
        }
      ],
      "name": "challengeExecutor",
      "outputs": [],
      "stateMutability": "nonpayable",
      "type": "function"
    },
    {
      "inputs": [
        {
          "internalType": "uint256",
          "name": "id",
          "type": "uint256"
        },
        {
          "internalType": "bytes",
          "name": "response",
          "type": "bytes"
        },
        {
          "internalType": "bytes",
          "name": "signature",
          "type": "bytes"
        }
      ],
      "name": "executorResponse",
      "outputs": [],
      "stateMutability": "nonpayable",
      "type": "function"
    },
    {
      "inputs": [
        {
          "internalType": "uint256",
          "name": "id",
          "type": "uint256"
        }
      ],
      "name": "executorTimeout",
      "outputs": [],
      "stateMutability": "nonpayable",
      "type": "function"
    },
    {
      "inputs": [
        {
          "internalType": "uint256",
          "name": "id",
          "type": "uint256"
        },
        {
          "internalType": "bytes",
          "name": "message",
          "type": "bytes"
        },
        {
          "internalType": "bool[30]",
          "name": "challangedOperators",
          "type": "bool[30]"
        }
      ],
      "name": "challengeWatchdog",
      "outputs": [],
      "stateMutability": "nonpayable",
      "type": "function"
    },
    {
      "inputs": [
        {
          "internalType": "uint256",
          "name": "id",
          "type": "uint256"
        },
        {
          "internalType": "uint256",
          "name": "index",
          "type": "uint256"
        },
        {
          "internalType": "bytes",
          "name": "response",
          "type": "bytes"
        },
        {
          "internalType": "bytes",
          "name": "signature",
          "type": "bytes"
        }
      ],
      "name": "watchdogResponse",
      "outputs": [],
      "stateMutability": "nonpayable",
      "type": "function"
    },
    {
      "inputs": [
        {
          "internalType": "uint256",
          "name": "id",
          "type": "uint256"
        }
      ],
      "name": "watchdogFinalization",
      "outputs": [],
      "stateMutability": "nonpayable",
      "type": "function"
    },
    {
      "inputs": [
        {
          "internalType": "bytes32",
          "name": "signedHash",
          "type": "bytes32"
        },
        {
          "internalType": "bytes",
          "name": "signature",
          "type": "bytes"
        },
        {
          "internalType": "address",
          "name": "signer",
          "type": "address"
        }
      ],
      "name": "verifySignature",
      "outputs": [
        {
          "internalType": "bool",
          "name": "",
          "type": "bool"
        }
      ],
      "stateMutability": "pure",
      "type": "function"
    },
    {
      "inputs": [
        {
          "internalType": "bytes32",
          "name": "signedHash",
          "type": "bytes32"
        },
        {
          "internalType": "bytes",
          "name": "signature",
          "type": "bytes"
        },
        {
          "internalType": "bytes",
          "name": "attestationKey",
          "type": "bytes"
        }
      ],
      "name": "verifyAttestationSignature",
      "outputs": [
        {
          "internalType": "bool",
          "name": "",
          "type": "bool"
        }
      ],
      "stateMutability": "pure",
      "type": "function"
    }
  ],
  "bytecode": "0x608060405234801561001057600080fd5b506127c2806100206000396000f3fe6080604052600436106100de5760003560e01c80635dd9134a116100855780635dd9134a146102145780637277d93d146102345780637648f68914610254578063786cd4d7146102745780637b30aa471461029457806382ca2f09146102a757806398abb9b2146102c7578063bf918d30146102e7578063cb38f40714610307576100de565b806309531687146100e357806313e7c9d81461010557806317474acb1461013d57806331cd41991461015d5780633ccc44ab1461018a578063474da79a1461019d57806353c81db6146101d457806358c44629146101f4575b600080fd5b3480156100ef57600080fd5b506101036100fe366004611aad565b610334565b005b34801561011157600080fd5b5061012561012036600461195b565b610508565b60405161013493929190611db0565b60405180910390f35b34801561014957600080fd5b50610103610158366004611bdd565b6105bc565b34801561016957600080fd5b5061017d610178366004611a24565b61069d565b6040516101349190611da5565b610103610198366004611c64565b61072c565b3480156101a957600080fd5b506101bd6101b8366004611aad565b6107c2565b6040516101349b9a99989796959493929190611e03565b3480156101e057600080fd5b506101036101ef36600461197e565b61082e565b34801561020057600080fd5b5061010361020f366004611c33565b610a75565b34801561022057600080fd5b5061017d61022f366004611a7c565b610c31565b34801561024057600080fd5b5061010361024f366004611ca4565b610c3a565b34801561026057600080fd5b5061010361026f366004611ac5565b610dc9565b34801561028057600080fd5b5061010361028f3660046119b2565b610f56565b6101036102a2366004611aad565b6110d8565b3480156102b357600080fd5b506101036102c2366004611b99565b611168565b3480156102d357600080fd5b506101036102e2366004611aad565b611257565b3480156102f357600080fd5b50610103610302366004611b2f565b611495565b34801561031357600080fd5b50610327610322366004611aad565b61155c565b6040516101349190611d91565b600460008281526002602052604090205460ff16600581111561035357fe5b146103795760405162461bcd60e51b815260040161037090611e79565b60405180910390fd5b60008181526002602052604090206028015442106103a95760405162461bcd60e51b815260040161037090612659565b60005b601e81101561041b57600082815260026020526040902060270181601e81106103d157fe5b602091828204019190069054906101000a900460ff16151560011515141561041357600082815260026020526040812060040182601e811061040f57fe5b5050505b6001016103ac565b5060008181526002602052604090206024810154815460ff909116919060ff1916600183600581111561044a57fe5b0217905550600081815260026020526040902060248101805461ff0019166101001790555460039060ff16600581111561048057fe5b14806104a85750600160008281526002602052604090205460ff1660058111156104a657fe5b145b156104b857600081905260026020525b6000818152600260205260409081902043600190910155517fdee8cd61ff64d405f590553bca7902e40e3645e2c7a6ca467ebb8463aa09c8c0906104fd90839061269f565b60405180910390a150565b60006020818152918152604090819020805460018083018054855160026101009483161585026000190190921691909104601f810188900488028201880190965285815260ff841696929093046001600160a01b03169490918301828280156105b25780601f10610587576101008083540402835291602001916105b2565b820191906000526020600020905b81548152906001019060200180831161059557829003601f168201915b5050505050905083565b60008381526002602052604090206022810154600490910190601e81106105df57fe5b01546001600160a01b031633146106085760405162461bcd60e51b815260040161037090612250565b600260008481526002602052604090205460ff16600581111561062757fe5b14806106715750600360008481526002602052604090205460ff16600581111561064d57fe5b1480156106715750600083815260026020526040902060240154610100900460ff16155b61068d5760405162461bcd60e51b815260040161037090612327565b610698838383611583565b505050565b600080600080858060200190516106b79190810190611d0b565b925092509250846001600160a01b0316600188858585604051600081526020016040526040516106ea9493929190611de5565b6020604051602081039080840390855afa15801561070c573d6000803e3d6000fd5b505050602060405103516001600160a01b03161493505050509392505050565b600084815260026020819052604090912001546001600160a01b031633146107665760405162461bcd60e51b8152600401610370906120c6565b818340146107865760405162461bcd60e51b81526004016103709061245d565b6040516001600160a01b038216903480156108fc02916000818181858888f193505050501580156107bb573d6000803e3d6000fd5b5050505050565b6002602081905260009182526040909120805460018201549282015460038301546022840154602385015460248601546025870154602688015460289098015460ff97881699986001600160a01b0397881698979096169694959394808416946101009094041692908b565b60008181526002602052604081205460ff16600581111561084b57fe5b146108685760405162461bcd60e51b81526004016103709061207d565b6001600160a01b03831660009081526020819052604090205460ff1615156001146108a55760405162461bcd60e51b815260040161037090612170565b6108ad61164d565b6108b561164d565b604080516101a0810182526001815243602082015260009181018290526001600160a01b03871660608201526080810184905260a0810182905260c081018690529060e08201908152600060208083018290526040808401839052606084018390526080840186905242610e100160a090940193909352868252600290522081518154829060ff1916600183600581111561094c57fe5b02179055506020820151600182015560408201516002820180546001600160a01b039283166001600160a01b031991821617909155606084015160038401805491909316911617905560808201516109aa906004830190601e61166c565b5060a0820151602282015560c0820151602382015560e082015160248201805460ff191660018360058111156109dc57fe5b02179055506101008281015160248301805461ff00191691151590920217905561012082015160258201556101408201516026820155610160820151610a28906027830190601e6116c4565b5061018082015181602801559050507f49785624f38a761b897969be5c85cc86ec28719ba3642a42ccb2fa3ec916fda383604051610a66919061269f565b60405180910390a15050505050565b600360008481526002602052604090205460ff166005811115610a9457fe5b14610ab15760405162461bcd60e51b815260040161037090612014565b600083815260026020526040902060280154421015610ae25760405162461bcd60e51b815260040161037090611f15565b6000838152600260209081526040808320600101549051610b0992879240918791016125c1565b60408051601f198184030181529181528151602092830120600087815260029093529082206022810154919350610b7992849286928291600490910190601e8110610b5057fe5b01546001600160a01b03908116825260208201929092526040016000205461010090041661069d565b1515600114610b9a5760405162461bcd60e51b815260040161037090612417565b600260008581526002602052604090205460ff166005811115610bb957fe5b5050600084815260026020526040902043600182015560228101547f77172a007f8a1eb21c604e17f6415b88e00e77bfc7a54b677511c878d8515adc918691600490910190601e8110610c0857fe5b0154604051610c2392916001600160a01b03169087906126c7565b60405180910390a150505050565b60019392505050565b600460008581526002602052604090205460ff166005811115610c5957fe5b14610c765760405162461bcd60e51b815260040161037090611e79565b600084815260026020526040902060280154421015610ca75760405162461bcd60e51b815260040161037090611f15565b6000848152600260209081526040808320600101549051610cce9288924091879101611f57565b604051602081830303815290604052805190602001209050610d0f8183600080600260008b815260200190815260200160002060040189601e8110610b5057fe5b1515600114610d305760405162461bcd60e51b815260040161037090612417565b600085815260026020526040812060270185601e8110610d4c57fe5b602091828204019190066101000a81548160ff0219169083151502179055507f2fadb2b7c36275b2457ed94c21d814cc766821fd728b2ce120db7e6cfdc1b91a856002600088815260200190815260200160002060040186601e8110610dae57fe5b0154604051610a6692916001600160a01b03169087906126c7565b600160008581526002602052604090205460ff166005811115610de857fe5b14610e055760405162461bcd60e51b8152600401610370906121b1565b600084815260026020526040902060280154421015610e365760405162461bcd60e51b81526004016103709061212e565b600084815260026020908152604080832060018101546023909101549151610e69938993924092899290918991016122a0565b60408051601f198184030181529181528151602092830120600088815260028452828120600301546001600160a01b039081168252938190529190912054909250610ebe91839185916101009091041661069d565b1515600114610edf5760405162461bcd60e51b815260040161037090612219565b600085815260026020819052604090912080820180546001600160a01b0319166001600160a01b038816179055805460ff19169091178155610f269060040184601e61166c565b507f9e3c7e008a15a3c864482ee94fd7315bcc9d0c04f3a9041ab922f816acffbe0685604051610a66919061269f565b3360009081526020819052604090205460ff1615610f865760405162461bcd60e51b815260040161037090611ecb565b604051600090610f9e908290869086906020016123cb565b604051602081830303815290604052805190602001209050610fd781836040518060400160405280600181526020016000815250610c31565b610ff35760405162461bcd60e51b815260040161037090612596565b6001805480820182557fb10e2d527612073b26eecdfd717e6a320cf44b4afac2b0732d9fcbe2b7fa0cf60180546001600160a01b03191633908117909155604080516060810182528381526001600160a01b0388811660208381019182528385018a815260009687528682529490952083518154925190931661010002610100600160a81b031993151560ff19909316929092179290921617815591518051919492936110a593850192910190611752565b509050507fda12ee837e6978172aaf54b16145ffe08414fd8710092ef033c71b8eb6ec189a33604051610c239190611d91565b600260008281526002602052604090205460ff1660058111156110f757fe5b146111145760405162461bcd60e51b815260040161037090612609565b60008181526002602081905260408083204360018201559091015490516001600160a01b03909116913480156108fc02929091818181858888f19350505050158015611164573d6000803e3d6000fd5b5050565b600260008381526002602052604090205460ff16600581111561118757fe5b146111a45760405162461bcd60e51b815260040161037090612539565b600360008381526002602052604090205460ff1660058111156111c357fe5b5050600082815260026020908152604090912060248101805461ff0019169055436001820155825191830191909120602582015560228101547fc65e6649dcd591040524c5e9072bb53ef12be8bd6824caf05119fa06767f01a6918491600490910190601e811061123057fe5b015460405161124b92916001600160a01b03169085906126c7565b60405180910390a15050565b600360008281526002602052604090205460ff16600581111561127657fe5b146112935760405162461bcd60e51b815260040161037090611faa565b60008181526002602052604090206028015442106112c35760405162461bcd60e51b815260040161037090612659565b60008181526002602052604081206022810154600490910190601e81106112e657fe5b0154600083815260026020526040812060228101546001600160a01b0390931693509091600490910190601e811061131a57fe5b0180546001600160a01b0319166001600160a01b03929092169190911790556000828152600260205260409020602201546001015b601e81101561142b57600083815260026020526040812060040182601e811061137457fe5b01546001600160a01b031614611423576000838152600260208190526040909120602281018390554360018201555460ff1660058111156113b157fe5b5050600083815260026020526040902060228101547fcc657a28df71a425e7e46d9f144699cadb5b58e9ba9076086ad169ec8affd5c3918591859160040190601e81106113fa57fe5b01546040516114149392916001600160a01b0316906126a8565b60405180910390a15050611492565b60010161134f565b50600560008381526002602052604090205460ff16600581111561144b57fe5b50506000828152600260205260409081902043600190910155517fc7f44cdb75f618980b33a7656ac597ef2c48a787cf269e5076b1c604b22e7da29061124b90849061269f565b50565b6000848152600260205260409020600301546001600160a01b031633146114ce5760405162461bcd60e51b815260040161037090612250565b600160008581526002602052604090205460ff1660058111156114ed57fe5b1480156115115750600084815260026020526040902060240154610100900460ff16155b61152d5760405162461bcd60e51b8152600401610370906124a8565b600084815260026020526040902061154a9060040184601e61166c565b50611556848383611583565b50505050565b6001818154811061156957fe5b6000918252602090912001546001600160a01b0316905081565b600083815260026020526040902080546024909101805460ff9092169160ff191660018360058111156115b257fe5b0217905550600460008481526002602052604090205460ff1660058111156115d657fe5b50506000838152600260209081526040909120436001820155835191840191909120602682015561160c9060270182601e6116c4565b507f7dcf7925e4be724043917494e23d700ee10f946d21e9e76df511cfeef1bb4a28838284604051611640939291906126f1565b60405180910390a1505050565b604051806103c00160405280601e906020820280388339509192915050565b82601e81019282156116b4579160200282015b828111156116b457825182546001600160a01b0319166001600160a01b0390911617825560209092019160019091019061167f565b506116c09291506117cc565b5090565b6001830191839082156117465791602002820160005b8382111561171757835183826101000a81548160ff02191690831515021790555092602001926001016020816000010492830192600103026116da565b80156117445782816101000a81549060ff0219169055600101602081600001049283019260010302611717565b505b506116c09291506117f3565b828054600181600116156101000203166002900490600052602060002090601f016020900481019282601f1061179357805160ff19168380011785556117c0565b828001600101855582156117c0579182015b828111156117c05782518255916020019190600101906117a5565b506116c0929150611811565b6117f091905b808211156116c05780546001600160a01b03191681556001016117d2565b90565b6117f091905b808211156116c057805460ff191681556001016117f9565b6117f091905b808211156116c05760008155600101611817565b600082601f83011261183b578081fd5b6103c061184781612741565b9150818385838601111561185a57600080fd5b600092505b601e83101561188857803561187381612777565b8252600192909201916020918201910161185f565b50505092915050565b600082601f8301126118a1578081fd5b6103c06118ad81612741565b915081838583860111156118c057600080fd5b600092505b601e83101561188857803580151581146118de57600080fd5b825260019290920191602091820191016118c5565b600082601f830112611903578081fd5b81356001600160401b03811115611918578182fd5b61192b601f8201601f1916602001612741565b915080825283602082850101111561194257600080fd5b8060208401602084013760009082016020015292915050565b60006020828403121561196c578081fd5b813561197781612777565b9392505050565b600080600060608486031215611992578182fd5b833561199d81612777565b95602085013595506040909401359392505050565b6000806000606084860312156119c6578283fd5b83356119d181612777565b925060208401356001600160401b03808211156119ec578384fd5b6119f8878388016118f3565b93506040860135915080821115611a0d578283fd5b50611a1a868287016118f3565b9150509250925092565b600080600060608486031215611a38578283fd5b8335925060208401356001600160401b03811115611a54578283fd5b611a60868287016118f3565b9250506040840135611a7181612777565b809150509250925092565b600080600060608486031215611a90578283fd5b8335925060208401356001600160401b03808211156119ec578384fd5b600060208284031215611abe578081fd5b5035919050565b6000806000806104208587031215611adb578081fd5b843593506020850135611aed81612777565b9250611afc866040870161182b565b91506104008501356001600160401b03811115611b17578182fd5b611b23878288016118f3565b91505092959194509250565b6000806000806107c08587031215611b45578384fd5b84359350611b56866020870161182b565b92506103e08501356001600160401b03811115611b71578283fd5b611b7d878288016118f3565b925050611b8e866104008701611891565b905092959194509250565b60008060408385031215611bab578182fd5b8235915060208301356001600160401b03811115611bc7578182fd5b611bd3858286016118f3565b9150509250929050565b60008060006104008486031215611bf2578283fd5b8335925060208401356001600160401b03811115611c0e578283fd5b611c1a868287016118f3565b925050611c2a8560408601611891565b90509250925092565b600080600060608486031215611c47578081fd5b8335925060208401356001600160401b03808211156119ec578283fd5b60008060008060808587031215611c79578182fd5b8435935060208501359250604085013591506060850135611c9981612777565b939692955090935050565b60008060008060808587031215611cb9578182fd5b843593506020850135925060408501356001600160401b0380821115611cdd578384fd5b611ce9888389016118f3565b93506060870135915080821115611cfe578283fd5b50611b23878288016118f3565b600080600060608486031215611d1f578081fd5b835160ff81168114611d2f578182fd5b602085015160409095015190969495509392505050565b60008151808452815b81811015611d6b57602081850181015186830182015201611d4f565b81811115611d7c5782602083870101525b50601f01601f19169290920160200192915050565b6001600160a01b0391909116815260200190565b901515815260200190565b83151581526001600160a01b0383166020820152606060408201819052600090611ddc90830184611d46565b95945050505050565b93845260ff9290921660208401526040830152606082015260800190565b6101608101611e118d612767565b8252602082018c90526001600160a01b038b811660408401528a1660608301526080820189905260a08201889052611e4887612767565b60c083015294151560e082015261010081019390935261012083019190915261014090910152979650505050505050565b60208082526032908201527f4e6f742074686520726967687420706861736520746f2070726f767564652061604082015271207761746368646f6720726573706f6e736560701b606082015260800190565b6020808252602a908201527f546865206f70657261746f722068617320616c726561647920726567697374656040820152697265642061205445452160b01b606082015260800190565b60208082526022908201527f54686520726573706f6e736520646561646c696e652068617320657870697265604082015261642160f01b606082015260800190565b600060808252601b60808301527f5761746368646f672d6368616c6c656e67652d526573706f6e7365000000000060a083015284602083015283604083015260c06060830152611ddc60c0830184611d46565b60208082526044908201527f4368616c6c656e67652063616e206f6e6c792062652074696d6564206f75742060408201527f696620746865726520697320616e20756e7265736f6c766564206368616c6c656060820152636e67652160e01b608082015260a00190565b60208082526043908201527f4368616c6c656e67652063616e206f6e6c7920626520616e737765726564206960408201527f6620746865726520697320616e20756e7265736f6c766564206368616c6c656e60608201526267652160e81b608082015260a00190565b60208082526029908201527f436f6e74726163742077697468207468697320494420646f657320616c72656160408201526864792065786973742160b81b606082015260800190565b60208082526042908201527f5468652073656e646572206f6620746865207061796f7574207478206973206e60408201527f6f742074686520706f6f6c207769746820746865207370656369666965642049606082015261442160f01b608082015260a00190565b60208082526022908201527f546865206372656174696f6e20646561646c696e652068617320657870697265604082015261642160f01b606082015260800190565b60208082526021908201527f4372656174696f6e206f70657261746f7220646f6573206e6f742065786973746040820152602160f81b606082015260800190565b60208082526042908201527f54686520636f6e747261637420776974682074686973204944206973206e6f7460408201527f20696e2074686520726967687420706861736520746f20626520637265617465606082015261642160f01b608082015260a00190565b6020808252601d908201527f57726f6e67207369676e617475726520666f72206372656174696f6e21000000604082015260600190565b60208082526030908201527f4e6f7420746865207269676874206163636f756e7420746f206368616c6c656e60408201526f676520746865207761746368646f677360801b606082015260800190565b610460808252600f908201526e10dc99585d1a5bdb8b505d1d195cdd608a1b61048082015260208101869052604081018590526001600160a01b038481166060830152608082018490526104a082019060a083018460005b601e81101561231957815184168352602092830192909101906001016122f8565b505050509695505050505050565b60208082526078908201527f4e6f742074686520726967687420706861736520746f206368616c6c616e676560408201527f207761746368646f6773206f72207761746368646f6773206861766520616c7260608201527f65616479206265656e206368616c6c616e6765642077697468696e207468652060808201527773616d65206578656375746f72206368616c6c616e67652160401b60a082015260c00190565b600060808252600e60808301526d119d5c9a5bdd5ccb505d1d195cdd60921b60a083015284602083015260018060a01b038416604083015260c06060830152611ddc60c0830184611d46565b60208082526026908201527f57726f6e67207369676e617475726520666f72206578656375746f7220726573604082015265706f6e73652160d01b606082015260800190565b6020808252602b908201527f57726f6e6720626c6f636b6861736820666f722074686520676976656e20626c60408201526a6f636b206e756d6265722160a81b606082015260800190565b60208082526065908201527f4e6f742074686520726967687420706861736520746f206368616c6c616e676560408201527f207761746368646f6773206f72207761746368646f6773206861766520616c7260608201527f65616479206265656e206368616c6c616e67656420647572696e67206372656160808201526474696f6e2160d81b60a082015260c00190565b6020808252603b908201527f43616e206f6e6c79206368616c6c656e6765206578656375746f72206f66206360408201527f6f6e747261637420696e20706861736520657865637574696e67210000000000606082015260800190565b6020808252601190820152702bb937b7339030ba3a32b9ba30ba34b7b760791b604082015260600190565b60006080825260126080830152714368616c6c656e67652d526573706f6e736560701b60a083015284602083015283604083015260c06060830152611ddc60c0830184611d46565b60208082526030908201527f436f6e747261637420776974682074686973204944206973206e6f7420696e2060408201526f706861736520455845435554494e472160801b606082015260800190565b60208082526026908201527f54686520726573706f6e736520646561646c696e6520686173206e6f7420657860408201526570697265642160d01b606082015260800190565b90815260200190565b9283526001600160a01b03918216602084015216604082015260600190565b8381526001600160a01b0383166020820152606060408201819052600090611ddc90830184611d46565b83815260006104006020830185835b601e8110156127215781511515835260209283019290910190600101612700565b505050806103e084015261273781840185611d46565b9695505050505050565b6040518181016001600160401b038111828210171561275f57600080fd5b604052919050565b806006811061277257fe5b919050565b6001600160a01b038116811461149257600080fdfea26469706673582212203611207ce2aaa78172a599ff1d3950a3b3737fc8bf372a618e6641cc14ba10bb64736f6c63430006010033",
  "source": "pragma solidity ^0.6.1;\npragma experimental \"ABIEncoderV2\";\n\ncontract FuriousManagingOtter_v1  {\n    \n    //Constants\n    uint constant POOL_SIZE = 30;\n    uint constant TIMEOUT_INTERVAL = 60 * 60;   //May not lead to more than 256 / 3 blocks mined within an interval. If we want to allow more than, we will have to replace checkpointNumber in the contract information with a checkpoint hash and refer to the previous block\n                                                //The executive operator can get \"extra time\" by first challenging the watchdogs\n    \n    //For attestation\n    bytes32 constant WRAPPER_PROGRAM_CODE_HASH = 0; //TODO @Patrick: Insert Codehash of the wrapper program here\n    bytes constant ATTESTATION_KEY = \"\\x00\";        //TODO @Patrick: Insert public key of the attestation authority here\n    \n    //Phases a contract can occupy\n    enum Phase { NONE, CREATION, EXECUTING, CHALLANGE_EXECUTOR, CHALLENGE_WATCHDOG, CRASHED }\n    \n    //Events \n    event NewOperator(address operator);\n    event CreationInitialized(uint id);\n    event ContractCreated(uint id);\n    event ExecutorChallenged(uint id, address executor, bytes message);\n    event ExecutorResponse(uint id, address executor, bytes response);\n    event ExecutorKicked(uint id, address oldExecutor, address newExecutor);\n    event WatchdogChallenged(uint id, bool[POOL_SIZE] dogs, bytes message);\n    event WatchdogResponse(uint id, address dog, bytes response);\n    event WatchdogFinalized(uint id);\n    event ContractCrashed(uint id);\n    \n    //Operator information \n    struct Operator {\n        bool initialized;\n        address teeSignatureAddress;\n        bytes teeEncryptionKey;\n    }\n    \n    //Contract information\n    struct Contract {\n        \n        //General lifecycle management\n        Phase phase;                                //Current phase\n        uint checkpointNumber;                      //Number of the last known blockchain interaction\n        \n        //Contract and pool information\n        address payable poolAddress;                // The address to the pool public key\n        address creationOperator;                   // The address of the creation operator\n        address[POOL_SIZE] operators;               // The operator pool, a kicked operator is one witha ddress(0)\n        uint executiveOperator;                     // The index of the current executive operator within the operator pool\n        bytes32 codeHash;                           // The code hash of the application logic\n        \n        //Dispute information\n        Phase fallbackPhase;                        // A watchdog challenge can be within another challange. Therefore we need to store the fallback phase after the watchdog challange\n        bool watchdogsChallanged;                   // Watchdogs may only be challanged once during an execution challange. This variable helprs to ensure that\n        bytes32 execChallangeHash;                  // The hash of the challange message of the executor challange\n        bytes32 watchdogChallangeHash;              // The hash of the challangeHash of the watchdog challange (we need both as watchdog challange can be within executor challange)\n        bool[POOL_SIZE] challangedWatchdogs;        // Array that stores which watchdogs are challanged\n        uint deadline;\n    }\n    \n    //Operator mapping\n    mapping(address => Operator) public operators;\n    address[] public operatorList;                  //To enable the client to iterate over all operators, if we wanted to save gas, we could also iterate over the past events\n    \n    //Contract mapping\n    mapping(uint => Contract) public contracts;\n    \n    \n    //******************\n    //Public functions\n    \n    \n    //******************\n    //Registration\n    \n    //Registers a Operator and attests TEE, there may only be one TEE per operator\n    function register(address teeSignatureAddress, bytes memory teeEncryptionKey, bytes memory attestationSignature) public {\n        \n        //Check that operator has not registered another TEE\n        require(operators[msg.sender].initialized == false, \"The operator has already registered a TEE!\");\n        \n        //TODO: Attest the TEE\n        //Check the signature with the required signature algorithm //TODO @DKoisser: Here you can see what needs to be included into the attestation of a TEE\n        bytes32 attestationHash = keccak256(abi.encode(\"Furious-Attest\", WRAPPER_PROGRAM_CODE_HASH, teeSignatureAddress, teeEncryptionKey));\n        require(verifyAttestationSignature(attestationHash, attestationSignature, ATTESTATION_KEY), \"Wrong attestation\");\n\n        //Register operator\n        operatorList.push(msg.sender);\n        operators[msg.sender] = Operator(true, teeSignatureAddress, teeEncryptionKey);\n        \n        //Notify clients\n        emit NewOperator(msg.sender);\n    }\n    \n    //******************\n    //Creation\n    \n    //We do not challange the creator. If he does not respond in time, the creation is simply not successful. Challange would have the same effect.\n    \n    //Initializes the creation, we need this to ensure that the creation TEE gets the up-to-date state (e.g. list of operators) from the operator\n    function initCreation(address creationOperator, bytes32 codeHash, uint freeId) public {\n        \n        //Checks\n        require(contracts[freeId].phase == Phase.NONE, \"Contract with this ID does already exist!\");\n        require(operators[creationOperator].initialized == true, \"Creation operator does not exist!\");\n        \n        //Creat contract Tuple\n        address[POOL_SIZE] memory operatorArray;\n        bool[POOL_SIZE] memory challanged;\n        contracts[freeId] = Contract(Phase.CREATION, block.number, address(0), creationOperator, operatorArray, 0, codeHash, Phase.NONE, false, 0, 0, challanged, now + TIMEOUT_INTERVAL);\n        \n        //Notify clients\n        emit CreationInitialized(freeId);\n    }\n    \n    //Enables the creation operator to challange the pool during creation\n    //Problem: During creation the TEEs do not receive the same message as they do not know the secret pool key\n    //Solution: Simply interpret message as the concatination of all individual messages\n    function challangeWatchdogsDuringCreation(uint id, address[POOL_SIZE] memory pool_operators, bytes memory message, bool[POOL_SIZE] memory challangedOperators) public {\n        \n        //Checks\n        require(msg.sender == contracts[id].creationOperator, \"Not the right account to challenge the watchdogs\");                                                                                            \n        require(contracts[id].phase == Phase.CREATION && contracts[id].watchdogsChallanged == false, \"Not the right phase to challange watchdogs or watchdogs have already been challanged during creation!\");\n        \n        //I think we can set this without a signature as it will be overwritten by a successful creation anyways\n        contracts[id].operators = pool_operators;\n        \n        //Call the internal part of the watchdog challange procedure (shared between watchdog challanges during execution and during creation)\n        internalWatchdogChallange(id, message, challangedOperators);\n    }\n    \n    //Finalizes the creation. The TEE ensures that the values (e.g. Operator pool) are correct. We only need to check via the TEE-signature that it has received the correct inputs\n    function finalizeCreation(uint id, address payable pool_address, address[POOL_SIZE] memory pool_operators, bytes memory signature) public {\n        \n        //Checks\n        require(contracts[id].phase == Phase.CREATION, \"The contract with this ID is not in the right phase to be created!\");\n        require(contracts[id].deadline <= now, \"The creation deadline has expired!\");\n        \n        //Check Signature //TODO @DKoisser: Here you can see what needs to be included into the creation finalization signature\n        bytes32 signedHash = keccak256(abi.encode(\"Creation-Attest\", id, blockhash(contracts[id].checkpointNumber), pool_address, contracts[id].codeHash, pool_operators));\n        require(verifySignature(signedHash, signature, operators[contracts[id].creationOperator].teeSignatureAddress) == true, \"Wrong signature for creation!\");\n        \n        //Update state\n        contracts[id].poolAddress = pool_address;\n        contracts[id].phase = Phase.EXECUTING;\n        contracts[id].operators = pool_operators;\n        \n        //Notify clients\n        emit ContractCreated(id);\n    }\n    \n    //******************\n    //Handling assets\n    \n    //Enables a party to deposit funds to a pool address, as we increment the checkpoint number this may only be done during phase executing\n    function depositToContract(uint id) public payable{\n        \n        //You can only deposit to an executing contract\n        require(contracts[id].phase == Phase.EXECUTING, \"Contract with this ID is not in phase EXECUTING!\");\n        \n        //Update checkpoint = block number of last interaction\n        contracts[id].checkpointNumber = block.number;\n        \n        //Forward the money to the pool address\n        contracts[id].poolAddress.transfer(msg.value);\n    }\n    \n    //Enables a party to withdraw funds. The tx needs to be issued by the poolAddress (the pool-pk) and is broadcasted to the network by the client.\n    //The tx contains the block number and block hash, when it was issued.\n    //This way we ensure that the pool has been up-to-date with the blockchain when it has issued this payout. \n    function withdraw(uint id, uint blocknumber, bytes32 claimedBlockash, address payable receiver) public payable {\n        \n        //Checks\n        require(msg.sender == contracts[id].poolAddress, \"The sender of the payout tx is not the pool with the specified ID!\");\n        require(blockhash(blocknumber) == claimedBlockash, \"Wrong blockhash for the given block number!\");\n        \n        //Forwards the withdraw value to the receiver of the payout\n        receiver.transfer(msg.value);\n    }\n    \n    //******************\n    //Execution Challenges - Can either be atomic (just challange the executor) or combined with a challange to the watchdogs by the executor. Needs to be complete before completing the challange to the executor\n    \n    //Challenge the executor to provide the current state or execute a move (what exactly is encoded into the message)\n    function challengeExecutor(uint id, bytes memory message) public {\n        \n        //Checks\n        require(contracts[id].phase == Phase.EXECUTING, \"Can only challenge executor of contract in phase executing!\");\n        \n        //Update state\n        contracts[id].phase == Phase.CHALLANGE_EXECUTOR;\n        contracts[id].deadline == now + TIMEOUT_INTERVAL;\n        contracts[id].watchdogsChallanged = false;\n        contracts[id].checkpointNumber = block.number;\n        contracts[id].execChallangeHash = keccak256(message);\n        \n        //Notify clients\n        emit ExecutorChallenged(id, contracts[id].operators[contracts[id].executiveOperator], message);\n        \n    }\n    \n    //Response of the executive operator\n    function executorResponse(uint id, bytes memory response, bytes memory signature) public {\n        \n        //Checks\n        require(contracts[id].phase == Phase.CHALLANGE_EXECUTOR, \"Challenge can only be answered if there is an unresolved challenge!\");\n        require(contracts[id].deadline <= now, \"The response deadline has expired!\");\n        \n        //Check Signature //TODO @DKoisser: Here you can see what needs to be included into the executor response signature\n        bytes32 signedHash = keccak256(abi.encode(\"Challenge-Response\", id, blockhash(contracts[id].checkpointNumber), response));  //Checkpoint-hash includes contracts[id].challangeHash\n        require(verifySignature(signedHash, signature, operators[contracts[id].operators[contracts[id].executiveOperator]].teeSignatureAddress) == true, \"Wrong signature for executor response!\");\n        \n        //Update state\n        contracts[id].phase == Phase.EXECUTING;\n        contracts[id].checkpointNumber = block.number;\n        \n        //Notify clients\n        emit ExecutorResponse(id, contracts[id].operators[contracts[id].executiveOperator], response);\n    }\n    \n    //Enables any party to kick the executive operator if it does not respond to a challange in time\n    function executorTimeout(uint id) public {\n        \n        //Checks\n        require(contracts[id].phase == Phase.CHALLANGE_EXECUTOR, \"Challenge can only be timed out if there is an unresolved challenge!\");\n        require(contracts[id].deadline > now, \"The response deadline has not expired!\");\n        \n        //Drop the executor = Set his address to address(0)\n        address _executor = contracts[id].operators[contracts[id].executiveOperator];\n        contracts[id].operators[contracts[id].executiveOperator] = address(0);\n        \n        //Check if there is another active operator\n        for(uint i = contracts[id].executiveOperator + 1; i < POOL_SIZE; i++) {\n            if(contracts[id].operators[i] != address(0)){\n                \n                //Update state\n                contracts[id].executiveOperator = i;\n                contracts[id].checkpointNumber = block.number;\n                contracts[id].phase == Phase.EXECUTING;\n                \n                //Notify clients\n                emit ExecutorKicked(id, _executor, contracts[id].operators[contracts[id].executiveOperator]);\n                \n                return;\n            }\n        }\n        \n        //Otherwise: Mark the contract as crashed\n        contracts[id].phase == Phase.CRASHED;\n        contracts[id].checkpointNumber = block.number;\n        \n        //Notify clients\n        emit ContractCrashed(id);\n\n    }\n    \n    //********************\n    // Challenge watchdogs\n    \n    //Enables the executors to challenge a list of watchdogs with a given message.\n    //If their are individual messages for each watchdog, simply concatenate them to one \n    function challengeWatchdog(uint id, bytes memory message, bool[POOL_SIZE] memory challangedOperators) public {\n        \n        //Checks\n        require(msg.sender == contracts[id].operators[contracts[id].executiveOperator], \"Not the right account to challenge the watchdogs\");                                                                                            \n        require(contracts[id].phase == Phase.EXECUTING || (contracts[id].phase == Phase.CHALLANGE_EXECUTOR && contracts[id].watchdogsChallanged == false), \"Not the right phase to challange watchdogs or watchdogs have already been challanged within the same executor challange!\");   //Correct phase\n        \n        //Internal function to prevent duplicate code\n        internalWatchdogChallange(id, message, challangedOperators);\n        \n    }\n    \n    //Answers a watchdog challenge. The operator gives the challenge to the TEE which generates a response. The response can also be: <<Invalid Message>>\n    //Id 1 is the index of the party in the operator-list, Id 2 is the index of the party in the challanged-list\n    function watchdogResponse(uint id, uint index, bytes memory response, bytes memory signature) public {\n        \n        //Checks\n        require(contracts[id].phase == Phase.CHALLENGE_WATCHDOG, \"Not the right phase to provude a watchdog response\");\n        require(contracts[id].deadline <= now, \"The response deadline has expired!\");\n        \n        //Verify signatures //TODO @DKoisser: Here you can see what needs to be included into a watchdog response signature\n        bytes32 signedHash = keccak256(abi.encode(\"Watchdog-challenge-Response\", id, blockhash(contracts[id].checkpointNumber), response));  //Checkpoint-hash includes contracts[id].challangeHash\n        require(verifySignature(signedHash, signature, operators[contracts[id].operators[index]].teeSignatureAddress) == true, \"Wrong signature for executor response!\");\n        \n        //Mark the party as not-challanged in the challange list\n        contracts[id].challangedWatchdogs[index] = false;\n        \n        //Notify clients\n        emit WatchdogResponse(id, contracts[id].operators[index], response);\n    }\n    \n    //Finalizes a watchdog challange and kicks all watchdogs that have not responded\n    function watchdogFinalization(uint id) public {\n        \n        //Checks\n        require(contracts[id].phase == Phase.CHALLENGE_WATCHDOG, \"Not the right phase to provude a watchdog response\");\n        require(contracts[id].deadline > now, \"The response deadline has not expired!\");\n        \n        //Drop the watchdogs, that have not responded (The executor is ignored here)\n        for(uint i = 0; i < POOL_SIZE; i++){\n            if(contracts[id].challangedWatchdogs[i] == true){\n                contracts[id].operators[i] == address(0);       //A kicked watchdog is simply one with address(0)\n            }\n        }\n        \n        //Return to the correct phase\n        contracts[id].phase = contracts[id].fallbackPhase;\n        contracts[id].watchdogsChallanged = true;\n        \n        //Increase the timeout if there is an outer creation or execturo challange\n        if (contracts[id].phase == Phase.CHALLANGE_EXECUTOR || contracts[id].phase == Phase.CREATION) {\n            contracts[id].deadline == now + TIMEOUT_INTERVAL;\n        }\n        \n        //Increment the block count\n        contracts[id].checkpointNumber = block.number;\n        \n        //Notify clients\n        emit WatchdogFinalized(id);\n    }\n    \n    //******************\n    //Private functions (Mainly prevent duplicate code)\n    \n    //Duplicate code used by both watchdog challanges which dupdates the state and emits the event\n    function internalWatchdogChallange(uint id, bytes memory message, bool[POOL_SIZE] memory challangedOperators) private {\n        \n        //Update state\n        contracts[id].fallbackPhase = contracts[id].phase;\n        contracts[id].phase == Phase.CHALLENGE_WATCHDOG;\n        contracts[id].deadline == now + TIMEOUT_INTERVAL;\n        contracts[id].checkpointNumber = block.number;\n        contracts[id].watchdogChallangeHash = keccak256(message);\n        contracts[id].challangedWatchdogs = challangedOperators;\n        \n        //Notify clients\n        emit WatchdogChallenged(id, challangedOperators, message);\n    }\n    \n    \n    //******************\n    //Public helper functions\n    \n    //Verifies ECDSA signatures of Ethereum addresses\n    function verifySignature(bytes32 signedHash, bytes memory signature, address signer) public pure returns (bool) {\n        \n        //Parse the signature\n        (uint8 v, bytes32 r, bytes32 s) = abi.decode(signature, (uint8, bytes32, bytes32));\n        \n        //Verify the signature\n        return (ecrecover(signedHash, v, r, s) == signer);\n        \n    }\n    \n    //Verifies (TODO @Patrick: What kind of signatures) signatures of public keys (bytes array) for attestation\n    function verifyAttestationSignature(bytes32 signedHash, bytes memory signature, bytes memory attestationKey) public pure returns (bool) {\n        \n        //Parse the signature and the key\n        //TODO @Patrick\n        \n        //Check signature and return if it is correct\n        //TODO @Patrick\n        //@Patrick: When you know which signature algorithm will be used, you can also ask Benni to ask our HiWi for a signature verification for that algorithm.\n        \n        return true;\n    }\n}\n",
  "sourcePath": "/mnt/103A12BD3A129FB0/CAC/Projekte/2020_FuriousOtter/furious-otter/OSCode/SmartContract/contracts/FuriousManagingOtter_v1.sol",
  "compiler": {
    "name": "solc",
    "version": "0.6.1+commit.e6f7d5a4.Emscripten.clang"
  },
  "schemaVersion": "3.4.3",
  "updatedAt": "2022-08-18T22:37:41.358Z",
  "devdoc": {
    "methods": {}
  },
  "userdoc": {
    "methods": {}
  }
}