{
  "contractName": "FuriousManagingOtter_v2",
  "abi": [
    {
      "anonymous": false,
      "inputs": [
        {
          "indexed": false,
          "internalType": "uint256",
          "name": "id",
          "type": "uint256"
        }
      ],
      "name": "ContractCrashed",
      "type": "event"
    },
    {
      "anonymous": false,
      "inputs": [
        {
          "indexed": false,
          "internalType": "uint256",
          "name": "id",
          "type": "uint256"
        },
        {
          "indexed": false,
          "internalType": "bytes",
          "name": "txData",
          "type": "bytes"
        }
      ],
      "name": "ContractCreated",
      "type": "event"
    },
    {
      "anonymous": false,
      "inputs": [
        {
          "indexed": false,
          "internalType": "uint256",
          "name": "id",
          "type": "uint256"
        }
      ],
      "name": "CreationInitialized",
      "type": "event"
    },
    {
      "anonymous": false,
      "inputs": [
        {
          "indexed": false,
          "internalType": "uint256",
          "name": "id",
          "type": "uint256"
        },
        {
          "indexed": false,
          "internalType": "bytes",
          "name": "txData",
          "type": "bytes"
        }
      ],
      "name": "ExecutorChallenged",
      "type": "event"
    },
    {
      "anonymous": false,
      "inputs": [
        {
          "indexed": false,
          "internalType": "uint256",
          "name": "id",
          "type": "uint256"
        },
        {
          "indexed": false,
          "internalType": "bytes",
          "name": "txData",
          "type": "bytes"
        }
      ],
      "name": "ExecutorKicked",
      "type": "event"
    },
    {
      "anonymous": false,
      "inputs": [
        {
          "indexed": false,
          "internalType": "uint256",
          "name": "id",
          "type": "uint256"
        },
        {
          "indexed": false,
          "internalType": "bytes",
          "name": "txData",
          "type": "bytes"
        }
      ],
      "name": "ExecutorResponse",
      "type": "event"
    },
    {
      "anonymous": false,
      "inputs": [
        {
          "indexed": false,
          "internalType": "address",
          "name": "operator",
          "type": "address"
        }
      ],
      "name": "NewOperator",
      "type": "event"
    },
    {
      "anonymous": false,
      "inputs": [
        {
          "indexed": false,
          "internalType": "uint256",
          "name": "id",
          "type": "uint256"
        },
        {
          "indexed": false,
          "internalType": "bytes",
          "name": "txData",
          "type": "bytes"
        }
      ],
      "name": "WatchdogChallenged",
      "type": "event"
    },
    {
      "anonymous": false,
      "inputs": [
        {
          "indexed": false,
          "internalType": "uint256",
          "name": "id",
          "type": "uint256"
        },
        {
          "indexed": false,
          "internalType": "bytes",
          "name": "txData",
          "type": "bytes"
        }
      ],
      "name": "WatchdogFinalized",
      "type": "event"
    },
    {
      "anonymous": false,
      "inputs": [
        {
          "indexed": false,
          "internalType": "uint256",
          "name": "id",
          "type": "uint256"
        },
        {
          "indexed": false,
          "internalType": "bytes",
          "name": "txData",
          "type": "bytes"
        }
      ],
      "name": "WatchdogResponse",
      "type": "event"
    },
    {
      "inputs": [],
      "name": "ATTESTATION_AUTHORITY",
      "outputs": [
        {
          "internalType": "address",
          "name": "",
          "type": "address"
        }
      ],
      "stateMutability": "view",
      "type": "function"
    },
    {
      "inputs": [],
      "name": "POOL_SIZE",
      "outputs": [
        {
          "internalType": "uint256",
          "name": "",
          "type": "uint256"
        }
      ],
      "stateMutability": "view",
      "type": "function"
    },
    {
      "inputs": [],
      "name": "TIMEOUT_INTERVAL",
      "outputs": [
        {
          "internalType": "uint256",
          "name": "",
          "type": "uint256"
        }
      ],
      "stateMutability": "view",
      "type": "function"
    },
    {
      "inputs": [],
      "name": "WRAPPER_PROGRAM_CODE_HASH",
      "outputs": [
        {
          "internalType": "bytes32",
          "name": "",
          "type": "bytes32"
        }
      ],
      "stateMutability": "view",
      "type": "function"
    },
    {
      "inputs": [
        {
          "internalType": "uint256",
          "name": "",
          "type": "uint256"
        }
      ],
      "name": "contracts",
      "outputs": [
        {
          "internalType": "enum FuriousManagingOtter_v2.Phase",
          "name": "phase",
          "type": "uint8"
        },
        {
          "internalType": "bytes32",
          "name": "incrementalTxHash",
          "type": "bytes32"
        },
        {
          "internalType": "address payable",
          "name": "poolAddress",
          "type": "address"
        },
        {
          "internalType": "address",
          "name": "creationOperator",
          "type": "address"
        },
        {
          "internalType": "uint256",
          "name": "executiveOperator",
          "type": "uint256"
        },
        {
          "internalType": "bytes32",
          "name": "codeHash",
          "type": "bytes32"
        },
        {
          "internalType": "enum FuriousManagingOtter_v2.Phase",
          "name": "fallbackPhase",
          "type": "uint8"
        },
        {
          "internalType": "bool",
          "name": "watchdogsChallanged",
          "type": "bool"
        },
        {
          "internalType": "bytes32",
          "name": "execChallangeHash",
          "type": "bytes32"
        },
        {
          "internalType": "bytes32",
          "name": "watchdogChallangeHash",
          "type": "bytes32"
        },
        {
          "internalType": "uint256",
          "name": "deadline",
          "type": "uint256"
        }
      ],
      "stateMutability": "view",
      "type": "function"
    },
    {
      "inputs": [],
      "name": "operatorIncrementalHash",
      "outputs": [
        {
          "internalType": "bytes32",
          "name": "",
          "type": "bytes32"
        }
      ],
      "stateMutability": "view",
      "type": "function"
    },
    {
      "inputs": [
        {
          "internalType": "uint256",
          "name": "",
          "type": "uint256"
        }
      ],
      "name": "operatorList",
      "outputs": [
        {
          "internalType": "address",
          "name": "",
          "type": "address"
        }
      ],
      "stateMutability": "view",
      "type": "function"
    },
    {
      "inputs": [
        {
          "internalType": "address",
          "name": "",
          "type": "address"
        }
      ],
      "name": "operators",
      "outputs": [
        {
          "internalType": "bool",
          "name": "initialized",
          "type": "bool"
        },
        {
          "internalType": "address",
          "name": "teeSignatureAddress",
          "type": "address"
        },
        {
          "internalType": "bytes",
          "name": "teeEncryptionKey",
          "type": "bytes"
        }
      ],
      "stateMutability": "view",
      "type": "function"
    },
    {
      "inputs": [
        {
          "internalType": "address",
          "name": "teeSignatureAddress",
          "type": "address"
        },
        {
          "internalType": "bytes",
          "name": "teeEncryptionKey",
          "type": "bytes"
        },
        {
          "internalType": "bytes",
          "name": "attestationSignature",
          "type": "bytes"
        }
      ],
      "name": "register",
      "outputs": [],
      "stateMutability": "nonpayable",
      "type": "function"
    },
    {
      "inputs": [
        {
          "internalType": "address",
          "name": "creationOperator",
          "type": "address"
        },
        {
          "internalType": "bytes32",
          "name": "codeHash",
          "type": "bytes32"
        },
        {
          "internalType": "uint256",
          "name": "freeId",
          "type": "uint256"
        }
      ],
      "name": "initCreation",
      "outputs": [],
      "stateMutability": "nonpayable",
      "type": "function"
    },
    {
      "inputs": [
        {
          "internalType": "uint256",
          "name": "id",
          "type": "uint256"
        },
        {
          "internalType": "address[3]",
          "name": "pool_operators",
          "type": "address[3]"
        },
        {
          "internalType": "bytes",
          "name": "message",
          "type": "bytes"
        },
        {
          "internalType": "uint256[3]",
          "name": "challangedOperators",
          "type": "uint256[3]"
        }
      ],
      "name": "challangeWatchdogsDuringCreation",
      "outputs": [],
      "stateMutability": "nonpayable",
      "type": "function"
    },
    {
      "inputs": [
        {
          "internalType": "uint256",
          "name": "id",
          "type": "uint256"
        },
        {
          "internalType": "address payable",
          "name": "pool_address",
          "type": "address"
        },
        {
          "internalType": "address[3]",
          "name": "pool_operators",
          "type": "address[3]"
        },
        {
          "internalType": "bytes",
          "name": "signature",
          "type": "bytes"
        }
      ],
      "name": "finalizeCreation",
      "outputs": [],
      "stateMutability": "nonpayable",
      "type": "function"
    },
    {
      "inputs": [
        {
          "internalType": "uint256",
          "name": "id",
          "type": "uint256"
        }
      ],
      "name": "depositToContract",
      "outputs": [],
      "stateMutability": "payable",
      "type": "function"
    },
    {
      "inputs": [
        {
          "internalType": "uint256",
          "name": "id",
          "type": "uint256"
        },
        {
          "internalType": "uint256",
          "name": "blocknumber",
          "type": "uint256"
        },
        {
          "internalType": "address payable",
          "name": "receiver",
          "type": "address"
        }
      ],
      "name": "withdraw",
      "outputs": [],
      "stateMutability": "payable",
      "type": "function"
    },
    {
      "inputs": [
        {
          "internalType": "uint256",
          "name": "id",
          "type": "uint256"
        },
        {
          "internalType": "bytes",
          "name": "message",
          "type": "bytes"
        }
      ],
      "name": "challengeExecutor",
      "outputs": [],
      "stateMutability": "nonpayable",
      "type": "function"
    },
    {
      "inputs": [
        {
          "internalType": "uint256",
          "name": "id",
          "type": "uint256"
        },
        {
          "internalType": "bytes",
          "name": "response",
          "type": "bytes"
        },
        {
          "internalType": "bytes",
          "name": "signature",
          "type": "bytes"
        }
      ],
      "name": "executorResponse",
      "outputs": [],
      "stateMutability": "nonpayable",
      "type": "function"
    },
    {
      "inputs": [
        {
          "internalType": "uint256",
          "name": "id",
          "type": "uint256"
        }
      ],
      "name": "executorTimeout",
      "outputs": [],
      "stateMutability": "nonpayable",
      "type": "function"
    },
    {
      "inputs": [
        {
          "internalType": "uint256",
          "name": "id",
          "type": "uint256"
        },
        {
          "internalType": "bytes",
          "name": "message",
          "type": "bytes"
        },
        {
          "internalType": "uint256[3]",
          "name": "challangedOperators",
          "type": "uint256[3]"
        }
      ],
      "name": "challengeWatchdog",
      "outputs": [],
      "stateMutability": "nonpayable",
      "type": "function"
    },
    {
      "inputs": [
        {
          "internalType": "uint256",
          "name": "id",
          "type": "uint256"
        },
        {
          "internalType": "uint256",
          "name": "index",
          "type": "uint256"
        },
        {
          "internalType": "bytes",
          "name": "response",
          "type": "bytes"
        },
        {
          "internalType": "bytes",
          "name": "signature",
          "type": "bytes"
        }
      ],
      "name": "watchdogResponse",
      "outputs": [],
      "stateMutability": "nonpayable",
      "type": "function"
    },
    {
      "inputs": [
        {
          "internalType": "uint256",
          "name": "id",
          "type": "uint256"
        }
      ],
      "name": "watchdogFinalization",
      "outputs": [],
      "stateMutability": "nonpayable",
      "type": "function"
    },
    {
      "inputs": [
        {
          "internalType": "bytes32",
          "name": "_hashedDataInput",
          "type": "bytes32"
        },
        {
          "internalType": "bytes",
          "name": "_signature",
          "type": "bytes"
        },
        {
          "internalType": "address",
          "name": "_party",
          "type": "address"
        }
      ],
      "name": "verifySignature",
      "outputs": [
        {
          "internalType": "bool",
          "name": "",
          "type": "bool"
        }
      ],
      "stateMutability": "pure",
      "type": "function"
    }
  ],
  "bytecode": "0x6080604052600060025534801561001557600080fd5b50612962806100256000396000f3fe6080604052600436106101295760003560e01c806358c44629116100ab5780638e5387f61161006f5780638e5387f61461031357806398abb9b2146103335780639d9dcb0814610353578063b2c58c5514610373578063c296d35e14610393578063cb38f407146103b557610129565b806358c44629146102805780637277d93d146102a0578063786cd4d7146102c05780637b30aa47146102e057806382ca2f09146102f357610129565b80631916a41f116100f25780631916a41f146101d257806331cd4199146101e7578063474da79a146102145780634f9daac61461024b57806353c81db61461026057610129565b80620327be1461012e578063018f004e14610159578063095316871461016e5780630ad58d2f1461019057806313e7c9d8146101a3575b600080fd5b34801561013a57600080fd5b506101436103d5565b6040516101509190611ff6565b60405180910390f35b34801561016557600080fd5b506101436103db565b34801561017a57600080fd5b5061018e610189366004611c7b565b6103e1565b005b61018e61019e366004611e2d565b6105ec565b3480156101af57600080fd5b506101c36101be366004611b5a565b6106ba565b60405161015093929190611fc1565b3480156101de57600080fd5b5061014361076e565b3480156101f357600080fd5b50610207610202366004611c23565b610799565b6040516101509190611fb6565b34801561022057600080fd5b5061023461022f366004611c7b565b610854565b6040516101509b9a9998979695949392919061206b565b34801561025757600080fd5b506101436108c1565b34801561026c57600080fd5b5061018e61027b366004611b7d565b6108c6565b34801561028c57600080fd5b5061018e61029b366004611dfc565b610b10565b3480156102ac57600080fd5b5061018e6102bb366004611e5a565b610cc0565b3480156102cc57600080fd5b5061018e6102db366004611bb1565b610e72565b61018e6102ee366004611c7b565b611052565b3480156102ff57600080fd5b5061018e61030e366004611d63565b611102565b34801561031f57600080fd5b5061018e61032e366004611cfb565b611225565b34801561033f57600080fd5b5061018e61034e366004611c7b565b611317565b34801561035f57600080fd5b5061018e61036e366004611da7565b611542565b34801561037f57600080fd5b5061018e61038e366004611c93565b61164a565b34801561039f57600080fd5b506103a86117dd565b6040516101509190611fa2565b3480156103c157600080fd5b506103a86103d0366004611c7b565b6117f5565b610e1081565b60025481565b806000600460008481526003602052604090205460ff16600581111561040357fe5b146104295760405162461bcd60e51b8152600401610420906120ef565b60405180910390fd5b6000838152600360205260409020600f015442116104595760405162461bcd60e51b815260040161042090612884565b60005b60038110156104ba5760036000858152602001908152602001600020600c01816003811061048657fe5b0154600114156104b2576000848152600360208190526040822060040190839081106104ae57fe5b5050505b60010161045c565b5060008381526003602052604090206009810154815460ff909116919060ff191660018360058111156104e957fe5b0217905550600083815260036020819052604090912060098101805461ff0019166101001790555460ff16600581111561051f57fe5b14806105475750600160008481526003602052604090205460ff16600581111561054557fe5b145b1561055757600083905260036020525b7f106b135107d13ff044c8550bf0b6be864dbba782e2bb345f17f0e8b11038382f8360003660405161058b939291906128ca565b60405180910390a160008281526003602090815260408083206001015490516105bc93919236913391879101612016565b60408051601f19818403018152918152815160209283012060009485526003909252909220600101919091555050565b600083815260036020526040902060020154839034906001600160a01b031633146106295760405162461bcd60e51b81526004016104209061233c565b6040516001600160a01b038416903480156108fc02916000818181858888f1935050505015801561065e573d6000803e3d6000fd5b50600082815260036020908152604080832060010154905161068893919236913391879101612016565b60408051601f198184030181529181528151602092830120600094855260039092529092206001019190915550505050565b60006020818152918152604090819020805460018083018054855160026101009483161585026000190190921691909104601f810188900488028201880190965285815260ff841696929093046001600160a01b03169490918301828280156107645780601f1061073957610100808354040283529160200191610764565b820191906000526020600020905b81548152906001019060200180831161074757829003601f168201915b5050505050905083565b600060405160200161078091906120e1565b6040516020818303038152906040528051906020012081565b600080600080858060200190516107b39190810190611ec1565b9250925092506000876040516020016107cc9190611f71565b60405160208183030381529060405280519060200120905060018185858560405160008152602001604052604051610807949392919061204d565b6020604051602081039080840390855afa158015610829573d6000803e3d6000fd5b505050602060405103516001600160a01b0316866001600160a01b0316149450505050509392505050565b600360208190526000918252604090912080546001820154600283015493830154600784015460088501546009860154600a870154600b880154600f9098015460ff9788169996986001600160a01b0397881698979096169694959394808416946101009094041692908b565b600381565b60008181526003602052604081205460ff1660058111156108e357fe5b146109005760405162461bcd60e51b8152600401610420906122f3565b6001600160a01b03831660009081526020819052604090205460ff16151560011461093d5760405162461bcd60e51b8152600401610420906123e6565b6109456118e1565b61094d6118e1565b604080516101a08101825260018152600254602082015260009181018290526001600160a01b03871660608201526080810184905260a0810182905260c081018690529060e08201908152600060208083018290526040808401839052606084018390526080840186905242610e100160a090940193909352868252600390522081518154829060ff191660018360058111156109e657fe5b02179055506020820151600182015560408201516002820180546001600160a01b03199081166001600160a01b0393841617909155606084015160038085018054909316919093161790556080830151610a45916004840191906118ff565b5060a0820151600782015560c0820151600882015560e082015160098201805460ff19166001836005811115610a7757fe5b02179055506101008281015160098301805461ff001916911515909202179055610120820151600a820155610140820151600b820155610160820151610ac390600c8301906003611957565b5061018082015181600f01559050507f49785624f38a761b897969be5c85cc86ec28719ba3642a42ccb2fa3ec916fda383604051610b019190611ff6565b60405180910390a15050505050565b826000600360008681526003602052604090205460ff166005811115610b3257fe5b14610b4f5760405162461bcd60e51b81526004016104209061228a565b6000858152600360205260409020600f0154421115610b805760405162461bcd60e51b81526004016104209061218b565b6000858152600360209081526040808320600101549051610ba6928992918991016127ec565b60408051601f19818403018152918152815160209283012060008981526003938490529182206007810154919450610c18938593899390928392600490910191908110610bef57fe5b01546001600160a01b039081168252602082019290925260400160002054610100900416610799565b1515600114610c395760405162461bcd60e51b81526004016104209061268d565b600260008781526003602052604090205460ff166005811115610c5857fe5b50507ff895db26709b1885b39f9e1ccf5ba02ba670de0ab40406c776fb2d6547454a2586600036604051610c8e939291906128ca565b60405180910390a150600082815260036020908152604080832060010154905161068893919236913391879101612016565b836000600460008781526003602052604090205460ff166005811115610ce257fe5b14610cff5760405162461bcd60e51b8152600401610420906120ef565b6000868152600360205260409020600f0154421115610d305760405162461bcd60e51b81526004016104209061218b565b6000868152600360209081526040808320600101549051610d56928a92918991016121cd565b604051602081830303815290604052805190602001209050610d978185600080600360008d81526020019081526020016000206004018b60038110610bef57fe5b1515600114610db85760405162461bcd60e51b81526004016104209061268d565b60008781526003602081905260408220600c019088908110610dd657fe5b01556040517f43ba35e6c6e3e7d2d60ab61115e3bd1fb23bd2016768225b35d0b3659b61596b90610e0d90899060009036906128ca565b60405180910390a1506000828152600360209081526040808320600101549051610e3f93919236913391879101612016565b60408051601f19818403018152918152815160209283012060009485526003909252909220600101919091555050505050565b3360009081526020819052604090205460ff1615610ea25760405162461bcd60e51b815260040161042090612141565b600080604051602001610eb591906120e1565b604051602081830303815290604052805190602001208484604051602001610edf93929190612641565b604051602081830303815290604052805190602001209050610f168183731df62f291b2e969fb0849d99d9ce41e2f137006e610799565b610f325760405162461bcd60e51b8152600401610420906127c1565b6001805480820182557fb10e2d527612073b26eecdfd717e6a320cf44b4afac2b0732d9fcbe2b7fa0cf60180546001600160a01b03191633908117909155604080516060810182528381526001600160a01b0388811660208381019182528385018a815260009687528682529490952083518154925190931661010002610100600160a81b031993151560ff1990931692909217929092161781559151805191949293610fe493850192910190611991565b5050600254604051610ffb92503390602001611fff565b60408051601f198184030181529082905280516020909101206002557fda12ee837e6978172aaf54b16145ffe08414fd8710092ef033c71b8eb6ec189a90611044903390611fa2565b60405180910390a150505050565b8034600260008481526003602052604090205460ff16600581111561107357fe5b146110905760405162461bcd60e51b815260040161042090612834565b6000838152600360205260408082206002015490516001600160a01b03909116913480156108fc02929091818181858888f193505050501580156110d8573d6000803e3d6000fd5b5060008281526003602090815260408083206001015490516105bc93919236913391879101612016565b816000600260008581526003602052604090205460ff16600581111561112457fe5b146111415760405162461bcd60e51b815260040161042090612764565b600360008581526003602052604090205460ff16600581111561116057fe5b5050600084815260036020908152604080832060098101805461ff0019169055865192870192909220600a90920191909155517f7e536ba2b5e35ee457b166a96689c39db8afc45b78b582be7367bde0d38f827b916111c39187919036906128ca565b60405180910390a160008281526003602090815260408083206001015490516111f493919236913391879101612016565b60408051601f1981840301815291815281516020928301206000948552600390925290922060010191909155505050565b6000848152600360208190526040822001548591906001600160a01b031633146112615760405162461bcd60e51b8152600401610420906124c6565b600160008781526003602052604090205460ff16600581111561128057fe5b1480156112a45750600086815260036020526040902060090154610100900460ff16155b6112c05760405162461bcd60e51b8152600401610420906126d3565b60008681526003602081905260409091206112e29160049091019087906118ff565b506112ee86858561181c565b6000828152600360209081526040808320600101549051610e3f93919236913391879101612016565b806000600360008481526003602052604090205460ff16600581111561133957fe5b146113565760405162461bcd60e51b815260040161042090612220565b6000838152600360205260409020600f015442116113865760405162461bcd60e51b815260040161042090612884565b60008381526003602081905260408220600781015460049091019181106113a957fe5b01546000858152600360208190526040822060078101546001600160a01b03909416945091926004909201919081106113de57fe5b0180546001600160a01b0319166001600160a01b03929092169190911790556000848152600360205260409020600701546001015b60038110156114be5760008581526003602081905260408220600401908390811061143a57fe5b01546001600160a01b0316146114b6576000858152600360205260409020600781018290555460029060ff16600581111561147157fe5b50507fbb0d5d164a72a7661754749dfb4a665281bba5d8d9d03c722e3461fd781e777f856000366040516114a7939291906128ca565b60405180910390a15050611519565b600101611413565b50600560008581526003602052604090205460ff1660058111156114de57fe5b50507fc7f44cdb75f618980b33a7656ac597ef2c48a787cf269e5076b1c604b22e7da28460405161150f9190611ff6565b60405180910390a1505b60008281526003602090815260408083206001015490516105bc93919236913391879101612016565b600083815260036020819052604082206007810154869392600490920191811061156857fe5b01546001600160a01b031633146115915760405162461bcd60e51b8152600401610420906124c6565b600260008681526003602052604090205460ff1660058111156115b057fe5b14806115fa5750600360008681526003602052604090205460ff1660058111156115d657fe5b1480156115fa5750600085815260036020526040902060090154610100900460ff16155b6116165760405162461bcd60e51b81526004016104209061259d565b61162185858561181c565b600082815260036020908152604080832060010154905161068893919236913391879101612016565b836000600160008781526003602052604090205460ff16600581111561166c57fe5b146116895760405162461bcd60e51b815260040161042090612427565b6000868152600360205260409020600f01544211156116ba5760405162461bcd60e51b8152600401610420906123a4565b6000868152600360209081526040808320600181015460089091015491516116ea938b938b9290918b9101612516565b60408051601f19818403018152918152815160209283012060008a8152600380855283822001546001600160a01b03908116825293819052919091205490925061173e918391879161010090910416610799565b151560011461175f5760405162461bcd60e51b81526004016104209061248f565b6000878152600360208190526040909120600280820180546001600160a01b0319166001600160a01b038b16179055815460ff19161781556117a89160049091019087906118ff565b507f217765ff9735e9a403b03898cfad0252e690a9a749da94b99fa3b3902c85474087600036604051610e0d939291906128ca565b731df62f291b2e969fb0849d99d9ce41e2f137006e81565b6001818154811061180257fe5b6000918252602090912001546001600160a01b0316905081565b600083815260036020526040902080546009909101805460ff9092169160ff1916600183600581111561184b57fe5b0217905550600460008481526003602052604090205460ff16600581111561186f57fe5b50506000838152600360208181526040909220845192850192909220600b83015561189f91600c01908390611957565b507f9122de78cc690f3eaee68f1809dbcacc419ab99109a747acf880e63071be52d5836000366040516118d4939291906128ca565b60405180910390a1505050565b60405180606001604052806003906020820280388339509192915050565b8260038101928215611947579160200282015b8281111561194757825182546001600160a01b0319166001600160a01b03909116178255602090920191600190910190611912565b506119539291506119fe565b5090565b8260038101928215611985579160200282015b8281111561198557825182559160200191906001019061196a565b50611953929150611a25565b828054600181600116156101000203166002900490600052602060002090601f016020900481019282601f106119d257805160ff1916838001178555611985565b82800160010185558215611985579182018281111561198557825182559160200191906001019061196a565b611a2291905b808211156119535780546001600160a01b0319168155600101611a04565b90565b611a2291905b808211156119535760008155600101611a2b565b600082601f830112611a4f578081fd5b611a5960606128e4565b9050808284606085011115611a6d57600080fd5b60005b6003811015611a99578135611a8481612917565b83526020928301929190910190600101611a70565b50505092915050565b600082601f830112611ab2578081fd5b611abc60606128e4565b9050808284606085011115611ad057600080fd5b60005b6003811015611a99578135835260209283019290910190600101611ad3565b600082601f830112611b02578081fd5b81356001600160401b03811115611b17578182fd5b611b2a601f8201601f19166020016128e4565b9150808252836020828501011115611b4157600080fd5b8060208401602084013760009082016020015292915050565b600060208284031215611b6b578081fd5b8135611b7681612917565b9392505050565b600080600060608486031215611b91578182fd5b8335611b9c81612917565b95602085013595506040909401359392505050565b600080600060608486031215611bc5578283fd5b8335611bd081612917565b925060208401356001600160401b0380821115611beb578384fd5b611bf787838801611af2565b93506040860135915080821115611c0c578283fd5b50611c1986828701611af2565b9150509250925092565b600080600060608486031215611c37578283fd5b8335925060208401356001600160401b03811115611c53578283fd5b611c5f86828701611af2565b9250506040840135611c7081612917565b809150509250925092565b600060208284031215611c8c578081fd5b5035919050565b60008060008060c08587031215611ca8578081fd5b843593506020850135611cba81612917565b9250611cc98660408701611a3f565b915060a08501356001600160401b03811115611ce3578182fd5b611cef87828801611af2565b91505092959194509250565b6000806000806101008587031215611d11578384fd5b84359350611d228660208701611a3f565b925060808501356001600160401b03811115611d3c578283fd5b611d4887828801611af2565b925050611d588660a08701611aa2565b905092959194509250565b60008060408385031215611d75578182fd5b8235915060208301356001600160401b03811115611d91578182fd5b611d9d85828601611af2565b9150509250929050565b600080600060a08486031215611dbb578283fd5b8335925060208401356001600160401b03811115611dd7578283fd5b611de386828701611af2565b925050611df38560408601611aa2565b90509250925092565b600080600060608486031215611e10578283fd5b8335925060208401356001600160401b0380821115611beb578384fd5b600080600060608486031215611e41578081fd5b83359250602084013591506040840135611c7081612917565b60008060008060808587031215611e6f578182fd5b843593506020850135925060408501356001600160401b0380821115611e93578384fd5b611e9f88838901611af2565b93506060870135915080821115611eb4578283fd5b50611cef87828801611af2565b600080600060608486031215611ed5578081fd5b835160ff81168114611ee5578182fd5b602085015160409095015190969495509392505050565b60008284528282602086013780602084860101526020601f19601f85011685010190509392505050565b60008151808452815b81811015611f4b57602081850181015186830182015201611f2f565b81811115611f5c5782602083870101525b50601f01601f19169290920160200192915050565b7f19457468657265756d205369676e6564204d6573736167653a0a3332000000008152601c810191909152603c0190565b6001600160a01b0391909116815260200190565b901515815260200190565b83151581526001600160a01b0383166020820152606060408201819052600090611fed90830184611f26565b95945050505050565b90815260200190565b9182526001600160a01b0316602082015260400190565b600086825260806020830152612030608083018688611efc565b6001600160a01b0394909416604083015250606001529392505050565b93845260ff9290921660208401526040830152606082015260800190565b61016081016120798d61290a565b8c8252602082018c90526001600160a01b038b811660408401528a1660608301526080820189905260a082018890526120b18761290a565b60c082019690965293151560e0850152610100840192909252610120830152610140909101529695505050505050565b60ff91909116815260200190565b60208082526032908201527f4e6f742074686520726967687420706861736520746f2070726f767564652061604082015271207761746368646f6720726573706f6e736560701b606082015260800190565b6020808252602a908201527f546865206f70657261746f722068617320616c726561647920726567697374656040820152697265642061205445452160b01b606082015260800190565b60208082526022908201527f54686520726573706f6e736520646561646c696e652068617320657870697265604082015261642160f01b606082015260800190565b600060808252601b60808301527f5761746368646f672d6368616c6c656e67652d526573706f6e7365000000000060a083015284602083015283604083015260c06060830152611fed60c0830184611f26565b60208082526044908201527f4368616c6c656e67652063616e206f6e6c792062652074696d6564206f75742060408201527f696620746865726520697320616e20756e7265736f6c766564206368616c6c656060820152636e67652160e01b608082015260a00190565b60208082526043908201527f4368616c6c656e67652063616e206f6e6c7920626520616e737765726564206960408201527f6620746865726520697320616e20756e7265736f6c766564206368616c6c656e60608201526267652160e81b608082015260a00190565b60208082526029908201527f436f6e74726163742077697468207468697320494420646f657320616c72656160408201526864792065786973742160b81b606082015260800190565b60208082526042908201527f5468652073656e646572206f6620746865207061796f7574207478206973206e60408201527f6f742074686520706f6f6c207769746820746865207370656369666965642049606082015261442160f01b608082015260a00190565b60208082526022908201527f546865206372656174696f6e20646561646c696e652068617320657870697265604082015261642160f01b606082015260800190565b60208082526021908201527f4372656174696f6e206f70657261746f7220646f6573206e6f742065786973746040820152602160f81b606082015260800190565b60208082526042908201527f54686520636f6e747261637420776974682074686973204944206973206e6f7460408201527f20696e2074686520726967687420706861736520746f20626520637265617465606082015261642160f01b608082015260a00190565b6020808252601d908201527f57726f6e67207369676e617475726520666f72206372656174696f6e21000000604082015260600190565b60208082526030908201527f4e6f7420746865207269676874206163636f756e7420746f206368616c6c656e60408201526f676520746865207761746368646f677360801b606082015260800190565b610100808252600f908201526e10dc99585d1a5bdb8b505d1d195cdd608a1b61012082015260208101869052604081018590526001600160a01b0384811660608301526080820184905261014082019060a083018460005b600381101561258f578151841683526020928301929091019060010161256e565b505050509695505050505050565b60208082526078908201527f4e6f742074686520726967687420706861736520746f206368616c6c616e676560408201527f207761746368646f6773206f72207761746368646f6773206861766520616c7260608201527f65616479206265656e206368616c6c616e6765642077697468696e207468652060808201527773616d65206578656375746f72206368616c6c616e67652160401b60a082015260c00190565b600060808252600e60808301526d119d5c9a5bdd5ccb505d1d195cdd60921b60a083015284602083015260018060a01b038416604083015260c06060830152611fed60c0830184611f26565b60208082526026908201527f57726f6e67207369676e617475726520666f72206578656375746f7220726573604082015265706f6e73652160d01b606082015260800190565b60208082526065908201527f4e6f742074686520726967687420706861736520746f206368616c6c616e676560408201527f207761746368646f6773206f72207761746368646f6773206861766520616c7260608201527f65616479206265656e206368616c6c616e67656420647572696e67206372656160808201526474696f6e2160d81b60a082015260c00190565b6020808252603b908201527f43616e206f6e6c79206368616c6c656e6765206578656375746f72206f66206360408201527f6f6e747261637420696e20706861736520657865637574696e67210000000000606082015260800190565b6020808252601190820152702bb937b7339030ba3a32b9ba30ba34b7b760791b604082015260600190565b60006080825260126080830152714368616c6c656e67652d526573706f6e736560701b60a083015284602083015283604083015260c06060830152611fed60c0830184611f26565b60208082526030908201527f436f6e747261637420776974682074686973204944206973206e6f7420696e2060408201526f706861736520455845435554494e472160801b606082015260800190565b60208082526026908201527f54686520726573706f6e736520646561646c696e6520686173206e6f7420657860408201526570697265642160d01b606082015260800190565b600084825260406020830152611fed604083018486611efc565b6040518181016001600160401b038111828210171561290257600080fd5b604052919050565b6006811061291457fe5b50565b6001600160a01b038116811461291457600080fdfea26469706673582212208ddbcdd1e9a3d5d2df023fbd61271149d91d097d0bb2d2dc3c7400c161ac087d64736f6c63430006010033",
  "source": "pragma solidity ^0.6.1;\npragma experimental \"ABIEncoderV2\";\n\ncontract FuriousManagingOtter_v2  {\n    \n    //Constants\n    uint public constant POOL_SIZE = 3;\n    uint public constant TIMEOUT_INTERVAL = 60 * 60;   //The maximal dispute time is 3 * TIMEOUT_INTERVAL\n                                                //because the executive operator can get \"extra time\" by challenging the watchdogs\n    \n    //For attestation\n    bytes32 public constant WRAPPER_PROGRAM_CODE_HASH = keccak256(abi.encode(0));                  //0x290decd9548b62a8d60345a988386fc84ba6bc95484008f6362f93160ef3e563\n    address public constant ATTESTATION_AUTHORITY = 0x1dF62f291b2E969fB0849d99D9Ce41e2F137006e;        \n    \n    //Phases a contract can occupy\n    enum Phase { NONE, CREATION, EXECUTING, CHALLANGE_EXECUTOR, CHALLENGE_WATCHDOG, CRASHED }\n    \n    //Events\n    event NewOperator(address operator);\n    event CreationInitialized(uint id);\n    event ContractCreated(uint id, bytes txData);\n    event ExecutorChallenged(uint id, bytes txData);\n    event ExecutorResponse(uint id, bytes txData);\n    event ExecutorKicked(uint id, bytes txData);\n    event WatchdogChallenged(uint id, bytes txData);\n    event WatchdogResponse(uint id, bytes txData);\n    event WatchdogFinalized(uint id, bytes txData);\n    event ContractCrashed(uint id);\n    \n    //TODO@DKoisser: How to use events and the tx-data information\n    // - Use the operator to listen on all of the events\n    //      - Use a web3j library for this, e.g. web3js\n    // - When an event for a relevant id is registered do the following:\n    // - Extract the information required from the txData field\n    //       - This field contains all function parameters (you can e.g. use it to extract the challange message, ...)\n    // - Read the other relevant data from the contract (e.g., Who is the current executor). Same informaiton can be received from the TEE as well\n    // - Always give the txData to the TEE\n    // - TEE interprets the txData and learns what it should do\n    //     - The txData contains the function that has been called, so the TEE knows how to interpret the txData\n    //         - e.g., if it is a deposit the TEE needs to update the state\n    //         - e.g., if it is a challange the TEE needs to interpret the challange message and answer it\n    //         - ...\n    //     - As the TEE can no longer access the on-chain state it needs to simulate the tx off-chain and evolve its off-chain state accordingly\n    //          - e.g., kick inactive watchdogs, ...\n    //     - This way the TEE can ensure that the local state and the on-chain state are always the same\n    //          - You only need to simulate the state that is relevant for the TEE\n    //          - You can for example ignore the timeout, because the TEE clock is not synchronized with the on-chain clock anyway\n    // - The TEE updates it local incrementalTxHash which always needs to be the same as the on-chain one and need to be included into all signatures.\n    //          - This way the Manager can ensure that the TEE is up-to-date\n    //          - See modifier updateIncrementalTxHash to check how the incrementalTxHash is updated\n    //- TxData has the following structure:\n    //  - The first 4 bytes are the first 4 bytes of the hash of the method signature\n    //      - These are used to determine the tx-type and thus to determine how to interpret the tx-data\n    //      - In Solidity the method-hash would be calculated with: bytes4(keccak256(bytes(method-signature)));\n    //          - Method signature are name and parameter-types without whitespaces and modifiers or location like \"memory\"\n    //              - Signature of register: register(address,bytes,bytes)\n    //              - Signature of initCreation: initCreation(address,bytes32,uint256)\n    //              - ...\n    //              - Sometimes types fo have synonyms: e.g. uint is actually uint256\n    //              - Constants need t: uint256[POOL_SIZE] is actually uint256[30]\n    //  - The other bytes are the abi-encoded function parameters\n    //      - In solidity they would be equal to abi.encode(p1,p2,...);\n    \n    //Operator information \n    struct Operator {\n        bool initialized;\n        address teeSignatureAddress;\n        bytes teeEncryptionKey;                     //Dummy value set to 0x00\n    }\n    \n    //Contract information\n    struct Contract {\n        \n        //General lifecycle management\n        Phase phase;                                //Current phase\n         bytes32 incrementalTxHash;                 //Incremental hash of all transactions relevant for this contract\n                                                    //This is used as a checkpoint that enables a contract to check that the TEE is up-to-date\n        \n        //Contract and pool information\n        address payable poolAddress;                // The address to the pool public key\n        address creationOperator;                   // The address of the creation operator\n        address[POOL_SIZE] operators;               // The operator pool, a kicked operator is one witha ddress(0)\n        uint executiveOperator;                     // The index of the current executive operator within the operator pool\n        bytes32 codeHash;                           // The code hash of the application logic\n        \n        //Dispute information\n        Phase fallbackPhase;                        // A watchdog challenge can be within another challange. Therefore we need to store the fallback phase after the watchdog challange\n        bool watchdogsChallanged;                   // Watchdogs may only be challanged once during an execution challange. This variable helprs to ensure that\n        bytes32 execChallangeHash;                  // The hash of the challange message of the executor challange\n        bytes32 watchdogChallangeHash;              // The hash of the challangeHash of the watchdog challange (we need both as watchdog challange can be within executor challange)\n        uint[POOL_SIZE] challangedWatchdogs;        // Array that stores which watchdogs are challanged\n        uint deadline;\n    }\n    \n    //Operator mapping\n    mapping(address => Operator) public operators;\n    address[] public operatorList;                  //To enable the client to iterate over all operators, if we wanted to save gas, we could also iterate over the past events\n    bytes32 public operatorIncrementalHash = 0;     //The creaiton-TEE needs to sign the list of operators it receives to ensure that the input is correct\n                                                    //However, encoding the whole list of operators to check the signed list hash can become really expensive\n                                                    //Therefore we construct an incremental hash: newHash = hash(oldHash, new address); the initial hash is 0x00...00\n                                                    //The downside is that the TEE has to calculate this incrementalHash when receiving a list of operators itself\n    \n    //Contract mapping\n    mapping(uint => Contract) public contracts;\n    \n    \n    //******************\n    //Public functions\n    \n    \n    //******************\n    //Registration\n    \n    //Registers a Operator and attests TEE, there may only be one TEE per operator\n    function register(address teeSignatureAddress, bytes memory teeEncryptionKey, bytes memory attestationSignature) public {\n        \n        //Check that operator has not registered another TEE\n        require(operators[msg.sender].initialized == false, \"The operator has already registered a TEE!\");\n        \n        //Check the signature with the required signature algorithm //TODO @DKoisser: Here you can see what needs to be included into the attestation of a TEE  \n        bytes32 attestationHash = keccak256(abi.encode(\"Furious-Attest\", WRAPPER_PROGRAM_CODE_HASH, teeSignatureAddress, teeEncryptionKey));        //TODO: After the testing we should include the manager-address here as well: keccak256(abi.encode(\"Furious-Attest\", WRAPPER_PROGRAM_CODE_HASH,  address(this), teeSignatureAddress, teeEncryptionKey)); \n        require(verifySignature(attestationHash, attestationSignature, ATTESTATION_AUTHORITY), \"Wrong attestation\");\n\n        //Register operator\n        operatorList.push(msg.sender);\n        operators[msg.sender] = Operator(true, teeSignatureAddress, teeEncryptionKey);\n        operatorIncrementalHash = keccak256(abi.encode(operatorIncrementalHash, msg.sender));\n        \n        //Notify clients\n        emit NewOperator(msg.sender);\n    }\n    \n    //******************\n    //Creation\n    \n    //We do not challange the creator. If he does not respond in time, the creation is simply not successful. Challange would have the same effect.\n    \n    //Initializes the creation, we need this to ensure that the creation TEE gets the up-to-date state (e.g. list of operators) from the operator\n    function initCreation(address creationOperator, bytes32 codeHash, uint freeId) public {\n        \n        //Checks\n        require(contracts[freeId].phase == Phase.NONE, \"Contract with this ID does already exist!\");\n        require(operators[creationOperator].initialized == true, \"Creation operator does not exist!\");\n        \n        //Creat contract Tuple\n        address[POOL_SIZE] memory operatorArray;\n        uint[POOL_SIZE] memory challanged;\n        contracts[freeId] = Contract(Phase.CREATION, operatorIncrementalHash, address(0), creationOperator, operatorArray, 0, codeHash, Phase.NONE, false, 0, 0, challanged, now + TIMEOUT_INTERVAL);\n        \n        //Notify clients\n        emit CreationInitialized(freeId);\n    }\n    \n    //Enables the creation operator to challange the pool during creation\n    //Problem: During creation the TEEs do not receive the same message as they do not know the secret pool key\n    //Solution: Simply interpret message as the concatination of all individual messages\n    function challangeWatchdogsDuringCreation(uint id, address[POOL_SIZE] memory pool_operators, bytes memory message, uint[POOL_SIZE] memory challangedOperators) public updateIncrementalTxHash(id, 0) {\n        \n        //Checks\n        require(msg.sender == contracts[id].creationOperator, \"Not the right account to challenge the watchdogs\");                                                                                            \n        require(contracts[id].phase == Phase.CREATION && contracts[id].watchdogsChallanged == false, \"Not the right phase to challange watchdogs or watchdogs have already been challanged during creation!\");\n        \n        //I think we can set this without a signature as it will be overwritten by a successful creation anyways\n        contracts[id].operators = pool_operators;\n        \n        //Call the internal part of the watchdog challange procedure (shared between watchdog challanges during execution and during creation)\n        internalWatchdogChallange(id, message, challangedOperators);\n    }\n    \n    //Finalizes the creation. The TEE ensures that the values (e.g. Operator pool) are correct. We only need to check via the TEE-signature that it has received the correct inputs\n    function finalizeCreation(uint id, address payable pool_address, address[POOL_SIZE] memory pool_operators, bytes memory signature) public updateIncrementalTxHash(id, 0){\n        \n        //Checks\n        require(contracts[id].phase == Phase.CREATION, \"The contract with this ID is not in the right phase to be created!\");\n        require(contracts[id].deadline >= now, \"The creation deadline has expired!\");\n        \n        //Check Signature //TODO @DKoisser: Here you can see what needs to be included into the creation finalization signature\n        bytes32 signedHash = keccak256(abi.encode(\"Creation-Attest\", id, contracts[id].incrementalTxHash, pool_address, contracts[id].codeHash, pool_operators));\n        require(verifySignature(signedHash, signature, operators[contracts[id].creationOperator].teeSignatureAddress) == true, \"Wrong signature for creation!\");\n        \n        //Update state\n        contracts[id].poolAddress = pool_address;\n        contracts[id].phase = Phase.EXECUTING;\n        contracts[id].operators = pool_operators;\n        \n        //Notify clients\n        emit ContractCreated(id, msg.data);\n    }\n    \n    //******************\n    //Handling assets\n    \n    //Enables a party to deposit funds to a pool address, as we increment the checkpoint number this may only be done during phase executing\n    function depositToContract(uint id) public payable updateIncrementalTxHash(id, msg.value){\n        \n        //You can only deposit to an executing contract\n        require(contracts[id].phase == Phase.EXECUTING, \"Contract with this ID is not in phase EXECUTING!\");\n        \n        //Forward the money to the pool address\n        contracts[id].poolAddress.transfer(msg.value);\n    }\n    \n    //Enables a party to withdraw funds. The tx needs to be issued by the poolAddress (the pool-pk) and is broadcasted to the network by the client.\n    //The tx contains the block number and block hash, when it was issued.\n    //This way we ensure that the pool has been up-to-date with the blockchain when it has issued this payout. \n    function withdraw(uint id, uint blocknumber, address payable receiver) public payable updateIncrementalTxHash(id, msg.value) {\n        \n        //Checks\n        require(msg.sender == contracts[id].poolAddress, \"The sender of the payout tx is not the pool with the specified ID!\");\n        \n        //Forwards the withdraw value to the receiver of the payout\n        receiver.transfer(msg.value);\n    }\n    \n    //******************\n    //Execution Challenges - Can either be atomic (just challange the executor) or combined with a challange to the watchdogs by the executor. Needs to be complete before completing the challange to the executor\n    \n    //Challenge the executor to provide the current state or execute a move (what exactly is encoded into the message)\n    function challengeExecutor(uint id, bytes memory message) public updateIncrementalTxHash(id, 0) {\n        \n        //Checks\n        require(contracts[id].phase == Phase.EXECUTING, \"Can only challenge executor of contract in phase executing!\");\n        \n        //Update state\n        contracts[id].phase == Phase.CHALLANGE_EXECUTOR;\n        contracts[id].deadline == now + TIMEOUT_INTERVAL;\n        contracts[id].watchdogsChallanged = false;\n        contracts[id].execChallangeHash = keccak256(message);\n        \n        //Notify clients\n        emit ExecutorChallenged(id, msg.data);\n        \n    }\n    \n    //Response of the executive operator\n    function executorResponse(uint id, bytes memory response, bytes memory signature) public updateIncrementalTxHash(id, 0) {\n        \n        //Checks\n        require(contracts[id].phase == Phase.CHALLANGE_EXECUTOR, \"Challenge can only be answered if there is an unresolved challenge!\");\n        require(contracts[id].deadline >= now, \"The response deadline has expired!\");\n        \n        //Check Signature //TODO @DKoisser: Here you can see what needs to be included into the executor response signature\n        bytes32 signedHash = keccak256(abi.encode(\"Challenge-Response\", id, contracts[id].incrementalTxHash, response));  //Checkpoint-hash includes contracts[id].challangeHash\n        require(verifySignature(signedHash, signature, operators[contracts[id].operators[contracts[id].executiveOperator]].teeSignatureAddress) == true, \"Wrong signature for executor response!\");\n        \n        //Update state\n        contracts[id].phase == Phase.EXECUTING;\n        \n        //Notify clients\n        emit ExecutorResponse(id, msg.data);\n    }\n    \n    //Enables any party to kick the executive operator if it does not respond to a challange in time\n    function executorTimeout(uint id) public updateIncrementalTxHash(id, 0) {\n        \n        //Checks\n        require(contracts[id].phase == Phase.CHALLANGE_EXECUTOR, \"Challenge can only be timed out if there is an unresolved challenge!\");\n        require(contracts[id].deadline < now, \"The response deadline has not expired!\");\n        \n        //Drop the executor = Set his address to address(0)\n        address _executor = contracts[id].operators[contracts[id].executiveOperator];\n        contracts[id].operators[contracts[id].executiveOperator] = address(0);\n        \n        //Check if there is another active operator\n        for(uint i = contracts[id].executiveOperator + 1; i < POOL_SIZE; i++) {\n            if(contracts[id].operators[i] != address(0)){\n                \n                //Update state\n                contracts[id].executiveOperator = i;\n                contracts[id].phase == Phase.EXECUTING;\n                \n                //Notify clients\n                emit ExecutorKicked(id, msg.data);\n                \n                return;\n            }\n        }\n        \n        //Otherwise: Mark the contract as crashed\n        contracts[id].phase == Phase.CRASHED;\n        \n        //Notify clients\n        emit ContractCrashed(id);\n\n    }\n    \n    //********************\n    // Challenge watchdogs\n    \n    //Enables the executors to challenge a list of watchdogs with a given message.\n    //If their are individual messages for each watchdog, simply concatenate them to one \n    function challengeWatchdog(uint id, bytes memory message, uint[POOL_SIZE] memory challangedOperators) public updateIncrementalTxHash(id, 0){\n        \n        //Checks\n        require(msg.sender == contracts[id].operators[contracts[id].executiveOperator], \"Not the right account to challenge the watchdogs\");                                                                                            \n        require(contracts[id].phase == Phase.EXECUTING || (contracts[id].phase == Phase.CHALLANGE_EXECUTOR && contracts[id].watchdogsChallanged == false), \"Not the right phase to challange watchdogs or watchdogs have already been challanged within the same executor challange!\");   //Correct phase\n        \n        //Internal function to prevent duplicate code\n        internalWatchdogChallange(id, message, challangedOperators);\n        \n    }\n    \n    //Answers a watchdog challenge. The operator gives the challenge to the TEE which generates a response. The response can also be: <<Invalid Message>>\n    //Id 1 is the index of the party in the operator-list, Id 2 is the index of the party in the challanged-list\n    function watchdogResponse(uint id, uint index, bytes memory response, bytes memory signature) public updateIncrementalTxHash(id, 0) {\n        \n        //Checks\n        require(contracts[id].phase == Phase.CHALLENGE_WATCHDOG, \"Not the right phase to provude a watchdog response\");\n        require(contracts[id].deadline >= now, \"The response deadline has expired!\");\n        \n        //Verify signatures //TODO @DKoisser: Here you can see what needs to be included into a watchdog response signature\n        bytes32 signedHash = keccak256(abi.encode(\"Watchdog-challenge-Response\", id, contracts[id].incrementalTxHash, response));  //Checkpoint-hash includes contracts[id].challangeHash\n        require(verifySignature(signedHash, signature, operators[contracts[id].operators[index]].teeSignatureAddress) == true, \"Wrong signature for executor response!\");\n        \n        //Mark the party as not-challanged in the challange list\n        contracts[id].challangedWatchdogs[index] = 0;\n        \n        //Notify clients\n        emit WatchdogResponse(id, msg.data);\n    }\n    \n    //Finalizes a watchdog challange and kicks all watchdogs that have not responded\n    function watchdogFinalization(uint id) public updateIncrementalTxHash(id, 0){\n        \n        //Checks\n        require(contracts[id].phase == Phase.CHALLENGE_WATCHDOG, \"Not the right phase to provude a watchdog response\");\n        require(contracts[id].deadline < now, \"The response deadline has not expired!\");\n        \n        //Drop the watchdogs, that have not responded (The executor is ignored here)\n        for(uint i = 0; i < POOL_SIZE; i++){\n            if(contracts[id].challangedWatchdogs[i] == 1){\n                contracts[id].operators[i] == address(0);       //A kicked watchdog is simply one with address(0)\n            }\n        }\n        \n        //Return to the correct phase\n        contracts[id].phase = contracts[id].fallbackPhase;\n        contracts[id].watchdogsChallanged = true;\n        \n        //Increase the timeout if there is an outer creation or execturo challange\n        if (contracts[id].phase == Phase.CHALLANGE_EXECUTOR || contracts[id].phase == Phase.CREATION) {\n            contracts[id].deadline == now + TIMEOUT_INTERVAL;\n        }\n        \n        //Notify clients\n        emit WatchdogFinalized(id, msg.data);\n    }\n    \n    //******************\n    //Modifiers\n    \n    //This code is executed after each public function (besides initCreation) to include the new transaction into the contract-tx-history-hash\n    modifier updateIncrementalTxHash(uint id, uint value) {\n        _;\n        //TODO @DKoisser: Check here how the incremental hash is created\n        contracts[id].incrementalTxHash = keccak256(abi.encode(contracts[id].incrementalTxHash, msg.data, msg.sender, value));\n    }\n    \n    //******************\n    //Private functions (Mainly prevent duplicate code)\n    \n    //Duplicate code used by both watchdog challanges which dupdates the state and emits the event\n    function internalWatchdogChallange(uint id, bytes memory message, uint[POOL_SIZE] memory challangedOperators) private {\n        \n        //Update state\n        contracts[id].fallbackPhase = contracts[id].phase;\n        contracts[id].phase == Phase.CHALLENGE_WATCHDOG;\n        contracts[id].deadline == now + TIMEOUT_INTERVAL;\n        contracts[id].watchdogChallangeHash = keccak256(message);\n        contracts[id].challangedWatchdogs = challangedOperators;\n        \n        //Notify clients\n        emit WatchdogChallenged(id, msg.data);\n    }\n    \n    \n    //******************\n    //Public helper functions\n    \n    //Verifies ECDSA signatures of Ethereum addresses\n    //function verifySignature(bytes32 signedHash, bytes memory signature, address signer) public pure returns (bool) {\n    //    \n    //    //Parse the signature\n    //    (uint8 v, bytes32 r, bytes32 s) = abi.decode(signature, (uint8, bytes32, bytes32));\n    //    \n    //    //Verify the signature\n    //    return (ecrecover(signedHash, v, r, s) == signer);\n    //}\n    \n    //Verifies ECDSA signatures of prefixed and hashed encoded data: Hash the data, prefix it, hash it again, verify it against signature\n    //TODO: If our client does not prefix we can use the funciton above\n    function verifySignature(bytes32 _hashedDataInput, bytes memory _signature, address _party) public pure returns (bool){\n\n        //Convert signatures\n        (uint8 v, bytes32 r, bytes32 s) = abi.decode(_signature, (uint8, bytes32, bytes32));\n\n        //Calc prefixed hash\n        bytes32 _hash = keccak256(abi.encodePacked(\"\\x19Ethereum Signed Message:\\n32\", _hashedDataInput));\n\n        return _party == ecrecover(_hash, v,r,s);\n\n    }\n}\n",
  "sourcePath": "/mnt/103A12BD3A129FB0/CAC/Projekte/2020_FuriousOtter/furious-otter/OSCode/SmartContract/contracts/FuriousManagingOtter_v2.sol",
  "compiler": {
    "name": "solc",
    "version": "0.6.1+commit.e6f7d5a4.Emscripten.clang"
  },
  "schemaVersion": "3.4.3",
  "updatedAt": "2022-08-18T22:37:41.395Z",
  "devdoc": {
    "methods": {}
  },
  "userdoc": {
    "methods": {}
  }
}