{
  "contractName": "FuriousManagingOtter_RSA",
  "abi": [
    {
      "anonymous": false,
      "inputs": [
        {
          "indexed": false,
          "internalType": "uint256",
          "name": "id",
          "type": "uint256"
        }
      ],
      "name": "ContractCrashed",
      "type": "event"
    },
    {
      "anonymous": false,
      "inputs": [
        {
          "indexed": false,
          "internalType": "uint256",
          "name": "id",
          "type": "uint256"
        },
        {
          "indexed": false,
          "internalType": "bytes",
          "name": "txData",
          "type": "bytes"
        }
      ],
      "name": "ContractCreated",
      "type": "event"
    },
    {
      "anonymous": false,
      "inputs": [
        {
          "indexed": false,
          "internalType": "uint256",
          "name": "id",
          "type": "uint256"
        }
      ],
      "name": "CreationInitialized",
      "type": "event"
    },
    {
      "anonymous": false,
      "inputs": [
        {
          "indexed": false,
          "internalType": "uint256",
          "name": "id",
          "type": "uint256"
        },
        {
          "indexed": false,
          "internalType": "bytes",
          "name": "txData",
          "type": "bytes"
        }
      ],
      "name": "ExecutorChallenged",
      "type": "event"
    },
    {
      "anonymous": false,
      "inputs": [
        {
          "indexed": false,
          "internalType": "uint256",
          "name": "id",
          "type": "uint256"
        },
        {
          "indexed": false,
          "internalType": "bytes",
          "name": "txData",
          "type": "bytes"
        }
      ],
      "name": "ExecutorKicked",
      "type": "event"
    },
    {
      "anonymous": false,
      "inputs": [
        {
          "indexed": false,
          "internalType": "uint256",
          "name": "id",
          "type": "uint256"
        },
        {
          "indexed": false,
          "internalType": "bytes",
          "name": "txData",
          "type": "bytes"
        }
      ],
      "name": "ExecutorResponse",
      "type": "event"
    },
    {
      "anonymous": false,
      "inputs": [
        {
          "indexed": false,
          "internalType": "address",
          "name": "operator",
          "type": "address"
        }
      ],
      "name": "NewOperator",
      "type": "event"
    },
    {
      "anonymous": false,
      "inputs": [
        {
          "indexed": false,
          "internalType": "uint256",
          "name": "id",
          "type": "uint256"
        },
        {
          "indexed": false,
          "internalType": "bytes",
          "name": "txData",
          "type": "bytes"
        }
      ],
      "name": "WatchdogChallenged",
      "type": "event"
    },
    {
      "anonymous": false,
      "inputs": [
        {
          "indexed": false,
          "internalType": "uint256",
          "name": "id",
          "type": "uint256"
        },
        {
          "indexed": false,
          "internalType": "bytes",
          "name": "txData",
          "type": "bytes"
        }
      ],
      "name": "WatchdogFinalized",
      "type": "event"
    },
    {
      "anonymous": false,
      "inputs": [
        {
          "indexed": false,
          "internalType": "uint256",
          "name": "id",
          "type": "uint256"
        },
        {
          "indexed": false,
          "internalType": "bytes",
          "name": "txData",
          "type": "bytes"
        }
      ],
      "name": "WatchdogResponse",
      "type": "event"
    },
    {
      "inputs": [],
      "name": "ATTESTATION_AUTHORITY_E",
      "outputs": [
        {
          "internalType": "bytes",
          "name": "",
          "type": "bytes"
        }
      ],
      "stateMutability": "view",
      "type": "function"
    },
    {
      "inputs": [],
      "name": "ATTESTATION_AUTHORITY_N",
      "outputs": [
        {
          "internalType": "bytes",
          "name": "",
          "type": "bytes"
        }
      ],
      "stateMutability": "view",
      "type": "function"
    },
    {
      "inputs": [],
      "name": "POOL_SIZE",
      "outputs": [
        {
          "internalType": "uint256",
          "name": "",
          "type": "uint256"
        }
      ],
      "stateMutability": "view",
      "type": "function"
    },
    {
      "inputs": [],
      "name": "TIMEOUT_INTERVAL",
      "outputs": [
        {
          "internalType": "uint256",
          "name": "",
          "type": "uint256"
        }
      ],
      "stateMutability": "view",
      "type": "function"
    },
    {
      "inputs": [],
      "name": "WRAPPER_PROGRAM_CODE_HASH",
      "outputs": [
        {
          "internalType": "bytes32",
          "name": "",
          "type": "bytes32"
        }
      ],
      "stateMutability": "view",
      "type": "function"
    },
    {
      "inputs": [
        {
          "internalType": "uint256",
          "name": "",
          "type": "uint256"
        }
      ],
      "name": "contracts",
      "outputs": [
        {
          "internalType": "enum FuriousManagingOtter_RSA.Phase",
          "name": "phase",
          "type": "uint8"
        },
        {
          "internalType": "bytes32",
          "name": "incrementalTxHash",
          "type": "bytes32"
        },
        {
          "internalType": "address payable",
          "name": "poolAddress",
          "type": "address"
        },
        {
          "internalType": "address",
          "name": "creationOperator",
          "type": "address"
        },
        {
          "internalType": "uint256",
          "name": "executiveOperator",
          "type": "uint256"
        },
        {
          "internalType": "bytes32",
          "name": "codeHash",
          "type": "bytes32"
        },
        {
          "internalType": "enum FuriousManagingOtter_RSA.Phase",
          "name": "fallbackPhase",
          "type": "uint8"
        },
        {
          "internalType": "uint8",
          "name": "watchdogsChallenged",
          "type": "uint8"
        },
        {
          "internalType": "bytes32",
          "name": "execChallengeHash",
          "type": "bytes32"
        },
        {
          "internalType": "bytes32",
          "name": "watchdogChallengeHash",
          "type": "bytes32"
        },
        {
          "internalType": "uint256",
          "name": "deadline",
          "type": "uint256"
        }
      ],
      "stateMutability": "view",
      "type": "function"
    },
    {
      "inputs": [],
      "name": "operatorIncrementalHash",
      "outputs": [
        {
          "internalType": "bytes32",
          "name": "",
          "type": "bytes32"
        }
      ],
      "stateMutability": "view",
      "type": "function"
    },
    {
      "inputs": [
        {
          "internalType": "uint256",
          "name": "",
          "type": "uint256"
        }
      ],
      "name": "operatorList",
      "outputs": [
        {
          "internalType": "address",
          "name": "",
          "type": "address"
        }
      ],
      "stateMutability": "view",
      "type": "function"
    },
    {
      "inputs": [
        {
          "internalType": "address",
          "name": "",
          "type": "address"
        }
      ],
      "name": "operators",
      "outputs": [
        {
          "internalType": "bool",
          "name": "initialized",
          "type": "bool"
        },
        {
          "internalType": "address",
          "name": "teeSignatureAddress",
          "type": "address"
        },
        {
          "internalType": "bytes",
          "name": "teeEncryptionKey",
          "type": "bytes"
        }
      ],
      "stateMutability": "view",
      "type": "function"
    },
    {
      "inputs": [
        {
          "internalType": "bytes32",
          "name": "_sha256",
          "type": "bytes32"
        },
        {
          "internalType": "bytes",
          "name": "_s",
          "type": "bytes"
        },
        {
          "internalType": "bytes",
          "name": "_e",
          "type": "bytes"
        },
        {
          "internalType": "bytes",
          "name": "_m",
          "type": "bytes"
        }
      ],
      "name": "pkcs1Sha256Verify",
      "outputs": [
        {
          "internalType": "uint256",
          "name": "",
          "type": "uint256"
        }
      ],
      "stateMutability": "view",
      "type": "function"
    },
    {
      "inputs": [
        {
          "internalType": "bytes",
          "name": "_data",
          "type": "bytes"
        },
        {
          "internalType": "bytes",
          "name": "_s",
          "type": "bytes"
        },
        {
          "internalType": "bytes",
          "name": "_e",
          "type": "bytes"
        },
        {
          "internalType": "bytes",
          "name": "_m",
          "type": "bytes"
        }
      ],
      "name": "pkcs1Sha256VerifyRaw",
      "outputs": [
        {
          "internalType": "uint256",
          "name": "",
          "type": "uint256"
        }
      ],
      "stateMutability": "view",
      "type": "function"
    },
    {
      "inputs": [
        {
          "internalType": "address",
          "name": "teeSignatureAddress",
          "type": "address"
        },
        {
          "internalType": "bytes",
          "name": "teeEncryptionKey",
          "type": "bytes"
        },
        {
          "internalType": "bytes",
          "name": "attestationSignature",
          "type": "bytes"
        }
      ],
      "name": "testToBeDeletedGetEncoding",
      "outputs": [
        {
          "internalType": "bytes",
          "name": "",
          "type": "bytes"
        }
      ],
      "stateMutability": "pure",
      "type": "function"
    },
    {
      "inputs": [
        {
          "internalType": "address",
          "name": "teeSignatureAddress",
          "type": "address"
        },
        {
          "internalType": "bytes",
          "name": "teeEncryptionKey",
          "type": "bytes"
        },
        {
          "internalType": "bytes",
          "name": "attestationSignature",
          "type": "bytes"
        }
      ],
      "name": "testCallToVerify",
      "outputs": [
        {
          "internalType": "uint256",
          "name": "",
          "type": "uint256"
        }
      ],
      "stateMutability": "view",
      "type": "function"
    },
    {
      "inputs": [
        {
          "internalType": "address",
          "name": "teeSignatureAddress",
          "type": "address"
        },
        {
          "internalType": "bytes",
          "name": "teeEncryptionKey",
          "type": "bytes"
        },
        {
          "internalType": "bytes",
          "name": "attestationSignature",
          "type": "bytes"
        }
      ],
      "name": "register",
      "outputs": [],
      "stateMutability": "nonpayable",
      "type": "function"
    },
    {
      "inputs": [
        {
          "internalType": "address",
          "name": "creationOperator",
          "type": "address"
        },
        {
          "internalType": "bytes32",
          "name": "codeHash",
          "type": "bytes32"
        },
        {
          "internalType": "uint256",
          "name": "freeId",
          "type": "uint256"
        }
      ],
      "name": "initCreation",
      "outputs": [],
      "stateMutability": "nonpayable",
      "type": "function"
    },
    {
      "inputs": [
        {
          "internalType": "uint256",
          "name": "id",
          "type": "uint256"
        },
        {
          "internalType": "address[3]",
          "name": "pool_operators",
          "type": "address[3]"
        },
        {
          "internalType": "bytes",
          "name": "message",
          "type": "bytes"
        },
        {
          "internalType": "uint8[3]",
          "name": "challengedOperators",
          "type": "uint8[3]"
        }
      ],
      "name": "challengeWatchdogsDuringCreation",
      "outputs": [],
      "stateMutability": "nonpayable",
      "type": "function"
    },
    {
      "inputs": [
        {
          "internalType": "uint256",
          "name": "id",
          "type": "uint256"
        },
        {
          "internalType": "address payable",
          "name": "pool_address",
          "type": "address"
        },
        {
          "internalType": "address[3]",
          "name": "pool_operators",
          "type": "address[3]"
        },
        {
          "internalType": "bytes",
          "name": "signature",
          "type": "bytes"
        }
      ],
      "name": "finalizeCreation",
      "outputs": [],
      "stateMutability": "nonpayable",
      "type": "function"
    },
    {
      "inputs": [
        {
          "internalType": "uint256",
          "name": "id",
          "type": "uint256"
        }
      ],
      "name": "depositToContract",
      "outputs": [],
      "stateMutability": "payable",
      "type": "function"
    },
    {
      "inputs": [
        {
          "internalType": "uint256",
          "name": "id",
          "type": "uint256"
        },
        {
          "internalType": "uint256",
          "name": "blocknumber",
          "type": "uint256"
        },
        {
          "internalType": "address payable",
          "name": "receiver",
          "type": "address"
        }
      ],
      "name": "withdraw",
      "outputs": [],
      "stateMutability": "payable",
      "type": "function"
    },
    {
      "inputs": [
        {
          "internalType": "uint256",
          "name": "id",
          "type": "uint256"
        },
        {
          "internalType": "bytes",
          "name": "message",
          "type": "bytes"
        }
      ],
      "name": "challengeExecutor",
      "outputs": [],
      "stateMutability": "nonpayable",
      "type": "function"
    },
    {
      "inputs": [
        {
          "internalType": "uint256",
          "name": "id",
          "type": "uint256"
        },
        {
          "internalType": "bytes",
          "name": "response",
          "type": "bytes"
        },
        {
          "internalType": "bytes",
          "name": "signature",
          "type": "bytes"
        }
      ],
      "name": "executorResponse",
      "outputs": [],
      "stateMutability": "nonpayable",
      "type": "function"
    },
    {
      "inputs": [
        {
          "internalType": "uint256",
          "name": "id",
          "type": "uint256"
        }
      ],
      "name": "executorTimeout",
      "outputs": [],
      "stateMutability": "nonpayable",
      "type": "function"
    },
    {
      "inputs": [
        {
          "internalType": "uint256",
          "name": "id",
          "type": "uint256"
        },
        {
          "internalType": "bytes",
          "name": "message",
          "type": "bytes"
        },
        {
          "internalType": "uint8[3]",
          "name": "challengedOperators",
          "type": "uint8[3]"
        }
      ],
      "name": "challengeWatchdog",
      "outputs": [],
      "stateMutability": "nonpayable",
      "type": "function"
    },
    {
      "inputs": [
        {
          "internalType": "uint256",
          "name": "id",
          "type": "uint256"
        },
        {
          "internalType": "uint256",
          "name": "index",
          "type": "uint256"
        },
        {
          "internalType": "bytes",
          "name": "response",
          "type": "bytes"
        },
        {
          "internalType": "bytes",
          "name": "signature",
          "type": "bytes"
        }
      ],
      "name": "watchdogResponse",
      "outputs": [],
      "stateMutability": "nonpayable",
      "type": "function"
    },
    {
      "inputs": [
        {
          "internalType": "uint256",
          "name": "id",
          "type": "uint256"
        }
      ],
      "name": "watchdogFinalization",
      "outputs": [],
      "stateMutability": "nonpayable",
      "type": "function"
    },
    {
      "inputs": [
        {
          "internalType": "bytes32",
          "name": "_hashedDataInput",
          "type": "bytes32"
        },
        {
          "internalType": "bytes",
          "name": "_signature",
          "type": "bytes"
        },
        {
          "internalType": "address",
          "name": "_party",
          "type": "address"
        }
      ],
      "name": "verifySignature",
      "outputs": [
        {
          "internalType": "bool",
          "name": "",
          "type": "bool"
        }
      ],
      "stateMutability": "pure",
      "type": "function"
    }
  ],
  "bytecode": "0x6080604052600060025534801561001557600080fd5b50613245806100256000396000f3fe6080604052600436106101605760003560e01c806358c44629116100c1578063887c04fb1161007a578063887c04fb146103cc57806398abb9b2146103e1578063a1a8858f14610401578063b2c58c5514610421578063c9d9b1a714610441578063cb38f40714610461578063dac3a0921461048e57610160565b806358c44629146103195780635df9da6a146103395780637277d93d14610359578063786cd4d7146103795780637b30aa471461039957806382ca2f09146103ac57610160565b80631916a41f1161011e5780631916a41f1461022b5780631de52849146102405780632ae0783d1461026057806331cd419914610280578063474da79a146102ad5780634f9daac6146102e457806353c81db6146102f957610160565b80620327be14610165578063018f004e1461019057806303135d3a146101a557806309531687146101c75780630ad58d2f146101e957806313e7c9d8146101fc575b600080fd5b34801561017157600080fd5b5061017a6104ae565b60405161018791906127ca565b60405180910390f35b34801561019c57600080fd5b5061017a6104b3565b3480156101b157600080fd5b506101ba6104b9565b604051610187919061283f565b3480156101d357600080fd5b506101e76101e2366004612436565b6104d8565b005b6101e76101f73660046125dc565b610736565b34801561020857600080fd5b5061021c610217366004612203565b610804565b6040516101879392919061279e565b34801561023757600080fd5b5061017a6108b8565b34801561024c57600080fd5b506101e761025b3660046124aa565b6108ca565b34801561026c57600080fd5b5061017a61027b3660046123c9565b6109f2565b34801561028c57600080fd5b506102a061029b3660046122e4565b610a5a565b6040516101879190612793565b3480156102b957600080fd5b506102cd6102c8366004612436565b610b15565b6040516101879b9a99989796959493929190612852565b3480156102f057600080fd5b5061017a610b82565b34801561030557600080fd5b506101e7610314366004612226565b610b87565b34801561032557600080fd5b506101e76103343660046125ab565b610dd2565b34801561034557600080fd5b5061017a61035436600461225a565b610f78565b34801561036557600080fd5b506101e7610374366004612609565b610fee565b34801561038557600080fd5b506101e761039436600461225a565b61118a565b6101e76103a7366004612436565b611368565b3480156103b857600080fd5b506101e76103c7366004612512565b611418565b3480156103d857600080fd5b506101ba61152e565b3480156103ed57600080fd5b506101e76103fc366004612436565b61154b565b34801561040d57600080fd5b5061017a61041c36600461233c565b611764565b34801561042d57600080fd5b506101e761043c36600461244e565b611a2c565b34801561044d57600080fd5b506101ba61045c36600461225a565b611bbf565b34801561046d57600080fd5b5061048161047c366004612436565b611bfd565b604051610187919061277f565b34801561049a57600080fd5b506101e76104a9366004612556565b611c24565b600f81565b60025481565b604051806101400160405280610101815260200161310f610101913981565b806000600460008481526003602052604090205460ff1660058111156104fa57fe5b146105205760405162461bcd60e51b8152600401610517906128c8565b60405180910390fd5b6000838152600360205260409020600d015442116105505760405162461bcd60e51b815260040161051790613011565b60005b60038110156105e45760036000858152602001908152602001600020600c01816003811061057d57fe5b602091828204019190069054906101000a900460ff1660ff16600114156105dc576000848152600360208190526040822060040190839081106105bc57fe5b0180546001600160a01b0319166001600160a01b03929092169190911790555b600101610553565b5060008381526003602052604090206009810154815460ff909116919060ff1916600183600581111561061357fe5b0217905550600083815260036020819052604090912060098101805460ff610100808304821660010182160261ff001990921691909117909155905416600581111561065b57fe5b14806106835750600160008481526003602052604090205460ff16600581111561068157fe5b145b156106a157600083815260036020526040902042600f01600d909101555b7f106b135107d13ff044c8550bf0b6be864dbba782e2bb345f17f0e8b11038382f836000366040516106d593929190613057565b60405180910390a16000828152600360209081526040808320600101549051610706939192369133918791016127ea565b60408051601f19818403018152918152815160209283012060009485526003909252909220600101919091555050565b600083815260036020526040902060020154839034906001600160a01b031633146107735760405162461bcd60e51b815260040161051790612b15565b6040516001600160a01b038416903480156108fc02916000818181858888f193505050501580156107a8573d6000803e3d6000fd5b5060008281526003602090815260408083206001015490516107d2939192369133918791016127ea565b60408051601f198184030181529181528151602092830120600094855260039092529092206001019190915550505050565b60006020818152918152604090819020805460018083018054855160026101009483161585026000190190921691909104601f810188900488028201880190965285815260ff841696929093046001600160a01b03169490918301828280156108ae5780601f10610883576101008083540402835291602001916108ae565b820191906000526020600020905b81548152906001019060200180831161089157829003601f168201915b5050505050905083565b6000805160206130ef83398151915281565b6000848152600360208190526040822001548591906001600160a01b031633146109065760405162461bcd60e51b815260040161051790612c9f565b600160008781526003602052604090205460ff16600581111561092557fe5b14801561094c5750600086815260036020526040902060090154600161010090910460ff16105b6109685760405162461bcd60e51b815260040161051790612e60565b600086815260036020819052604090912061098a916004909101908790611ee1565b50610996868585611d2f565b60008281526003602090815260408083206001015490516109bf939192369133918791016127ea565b60408051601f19818403018152918152815160209283012060009485526003909252909220600101919091555050505050565b6000610a4f600286604051610a0791906126dc565b602060405180830381855afa158015610a24573d6000803e3d6000fd5b5050506040513d601f19601f82011682018060405250610a4791908101906122cc565b858585611764565b90505b949350505050565b60008060008085806020019051610a749190810190612642565b925092509250600087604051602001610a8d91906126f8565b60405160208183030381529060405280519060200120905060018185858560405160008152602001604052604051610ac89493929190612821565b6020604051602081039080840390855afa158015610aea573d6000803e3d6000fd5b505050602060405103516001600160a01b0316866001600160a01b0316149450505050509392505050565b600360208190526000918252604090912080546001820154600283015493830154600784015460088501546009860154600a870154600b880154600d9098015460ff9788169996986001600160a01b0397881698979096169694959394808416946101009094041692908b565b600381565b60008181526003602052604081205460ff166005811115610ba457fe5b14610bc15760405162461bcd60e51b815260040161051790612acc565b6001600160a01b03831660009081526020819052604090205460ff161515600114610bfe5760405162461bcd60e51b815260040161051790612bbf565b610c06611f39565b610c0e611f39565b604080516101a08101825260018152600254602082015260009181018290526001600160a01b03871660608201526080810184905260a0810182905260c081018690529060e08201908152600060208083018290526040808401839052606084018390526080840186905242600f0160a090940193909352868252600390522081518154829060ff19166001836005811115610ca657fe5b02179055506020820151600182015560408201516002820180546001600160a01b03199081166001600160a01b0393841617909155606084015160038085018054909316919093161790556080830151610d0591600484019190611ee1565b5060a0820151600782015560c0820151600882015560e082015160098201805460ff19166001836005811115610d3757fe5b02179055506101008281015160098301805461ff00191660ff909216909202179055610120820151600a820155610140820151600b820155610160820151610d8590600c8301906003611f57565b5061018082015181600d01559050507f49785624f38a761b897969be5c85cc86ec28719ba3642a42ccb2fa3ec916fda383604051610dc391906127ca565b60405180910390a15050505050565b826000600360008681526003602052604090205460ff166005811115610df457fe5b14610e115760405162461bcd60e51b815260040161051790612a63565b6000858152600360205260409020600d0154421115610e425760405162461bcd60e51b815260040161051790612964565b6000858152600360209081526040808320600101549051610e6892899291899101612f79565b60408051601f19818403018152918152815160209283012060008981526003938490529182206007810154919450610eda938593899390928392600490910191908110610eb157fe5b01546001600160a01b039081168252602082019290925260400160002054610100900416610a5a565b1515600114610efb5760405162461bcd60e51b815260040161051790612e1a565b600086815260036020526040808220805460ff19166002179055517ff895db26709b1885b39f9e1ccf5ba02ba670de0ab40406c776fb2d6547454a2591610f46918991903690613057565b60405180910390a15060008281526003602090815260408083206001015490516107d2939192369133918791016127ea565b6000610a526000805160206130ef83398151915260001b8585604051602001610fa393929190612729565b60405160208183030381529060405283604051806040016040528060018152602001600360f81b815250604051806101400160405280610101815260200161310f61010191396109f2565b836000600460008781526003602052604090205460ff16600581111561101057fe5b1461102d5760405162461bcd60e51b8152600401610517906128c8565b6000868152600360205260409020600d015442111561105e5760405162461bcd60e51b815260040161051790612964565b6000868152600360209081526040808320600101549051611084928a92918991016129a6565b6040516020818303038152906040528051906020012090506110c58185600080600360008d81526020019081526020016000206004018b60038110610eb157fe5b15156001146110e65760405162461bcd60e51b815260040161051790612e1a565b60008781526003602081905260408220600c01908890811061110457fe5b602091828204019190066101000a81548160ff021916908360ff1602179055507f43ba35e6c6e3e7d2d60ab61115e3bd1fb23bd2016768225b35d0b3659b61596b8760003660405161115893929190613057565b60405180910390a15060008281526003602090815260408083206001015490516109bf939192369133918791016127ea565b3360009081526020819052604090205460ff16156111ba5760405162461bcd60e51b81526004016105179061291a565b60405161122c906111e1906000805160206130ef8339815191529086908690602001612729565b60405160208183030381529060405282604051806040016040528060018152602001600360f81b815250604051806101400160405280610101815260200161310f61010191396109f2565b156112495760405162461bcd60e51b815260040161051790612f4e565b6001805480820182557fb10e2d527612073b26eecdfd717e6a320cf44b4afac2b0732d9fcbe2b7fa0cf60180546001600160a01b03191633908117909155604080516060810182528381526001600160a01b03878116602083810191825283850189815260009687528682529490952083518154925190931661010002610100600160a81b031993151560ff19909316929092179290921617815591518051919492936112fb93850192910190611fe6565b5050600254604051611312925033906020016127d3565b60408051601f198184030181529082905280516020909101206002557fda12ee837e6978172aaf54b16145ffe08414fd8710092ef033c71b8eb6ec189a9061135b90339061277f565b60405180910390a1505050565b8034600260008481526003602052604090205460ff16600581111561138957fe5b146113a65760405162461bcd60e51b815260040161051790612fc1565b6000838152600360205260408082206002015490516001600160a01b03909116913480156108fc02929091818181858888f193505050501580156113ee573d6000803e3d6000fd5b506000828152600360209081526040808320600101549051610706939192369133918791016127ea565b816000600260008581526003602052604090205460ff16600581111561143a57fe5b146114575760405162461bcd60e51b815260040161051790612ef1565b6000848152600360208181526040808420805460ff19169093178355600f4201600d84015560098301805461ff0019169055865191870191909120600a90920191909155517f7e536ba2b5e35ee457b166a96689c39db8afc45b78b582be7367bde0d38f827b916114cc918791903690613057565b60405180910390a160008281526003602090815260408083206001015490516114fd939192369133918791016127ea565b60408051601f1981840301815291815281516020928301206000948552600390925290922060010191909155505050565b604051806040016040528060018152602001600360f81b81525081565b806000600360008481526003602052604090205460ff16600581111561156d57fe5b1461158a5760405162461bcd60e51b8152600401610517906129f9565b6000838152600360205260409020600d015442116115ba5760405162461bcd60e51b815260040161051790613011565b60008381526003602081905260408220600781015460049091019181106115dd57fe5b01546000858152600360208190526040822060078101546001600160a01b039094169450919260049092019190811061161257fe5b0180546001600160a01b0319166001600160a01b03929092169190911790556000848152600360205260409020600701546001015b60038110156116e75760008581526003602081905260408220600401908390811061166e57fe5b01546001600160a01b0316146116df5760008581526003602052604080822060078101849055805460ff19166002179055517fbb0d5d164a72a7661754749dfb4a665281bba5d8d9d03c722e3461fd781e777f916116d0918891903690613057565b60405180910390a1505061173b565b600101611647565b5060008481526003602052604090819020805460ff19166005179055517fc7f44cdb75f618980b33a7656ac597ef2c48a787cf269e5076b1c604b22e7da2906117319086906127ca565b60405180910390a1505b6000828152600360209081526040808320600101549051610706939192369133918791016127ea565b600061176e612060565b5060408051610260810182526030808252603160208084019190915292820152600d60608083019190915260066080830152600960a083015260c0820152608660e0820152604861010082015260016101208201819052606561014083015260036101608301526004610180830181905260026101a08401526101c083019190915260056101e083015260006102008301526102208201526102408101919091528251603e111561181e57600080fd5b6000606061182d878787611dda565b8051865160408051828152601f19601f84011681016020019091529293509091606090828015611864576020820181803883390190505b5090508160208201846020870160056107d05a03fa508051603519830190829060009061188d57fe5b01602001516001600160f81b0319161515806118bf5750816001815181106118b157fe5b60209101015160f81c600114155b156118d4576001975050505050505050610a52565b600295505b80600201861015611921578186815181106118f057fe5b01602001516001600160f81b031990811614611916576002975050505050505050610a52565b6001909501946118d9565b81816002018151811061193057fe5b01602001516001600160f81b03191615611954576003975050505050505050610a52565b600095505b60138610156119af5786866013811061196e57fe5b602002015160ff16828783600301018151811061198757fe5b016020015160f81c146119a4576004975050505050505050610a52565b600190950194611959565b600095505b6020861015611a1a578b86602081106119c957fe5b1a60f81b6001600160f81b03191682876013846003010101815181106119eb57fe5b01602001516001600160f81b03191614611a0f576005975050505050505050610a52565b6001909501946119b4565b5060009b9a5050505050505050505050565b836000600160008781526003602052604090205460ff166005811115611a4e57fe5b14611a6b5760405162461bcd60e51b815260040161051790612c00565b6000868152600360205260409020600d0154421115611a9c5760405162461bcd60e51b815260040161051790612b7d565b600086815260036020908152604080832060018101546008909101549151611acc938b938b9290918b9101612cef565b60408051601f19818403018152918152815160209283012060008a8152600380855283822001546001600160a01b039081168252938190529190912054909250611b20918391879161010090910416610a5a565b1515600114611b415760405162461bcd60e51b815260040161051790612c68565b6000878152600360208190526040909120600280820180546001600160a01b0319166001600160a01b038b16179055815460ff1916178155611b8a916004909101908790611ee1565b507f217765ff9735e9a403b03898cfad0252e690a9a749da94b99fa3b3902c8547408760003660405161115893929190613057565b604051606090611be5906000805160206130ef8339815191529086908690602001612729565b60405160208183030381529060405290509392505050565b60018181548110611c0a57fe5b6000918252602090912001546001600160a01b0316905081565b6000838152600360208190526040822060078101548693926004909201918110611c4a57fe5b01546001600160a01b03163314611c735760405162461bcd60e51b815260040161051790612c9f565b600260008681526003602052604090205460ff166005811115611c9257fe5b1480611cdf5750600360008681526003602052604090205460ff166005811115611cb857fe5b148015611cdf5750600085815260036020526040902060090154600261010090910460ff16105b611cfb5760405162461bcd60e51b815260040161051790612d76565b611d06858585611d2f565b60008281526003602090815260408083206001015490516107d2939192369133918791016127ea565b600083815260036020526040902080546009909101805460ff9092169160ff19166001836005811115611d5e57fe5b02179055506000838152600360208181526040909220805460ff19166004178155600f4201600d820155845192850192909220600b830155611da591600c01908390611f57565b507f9122de78cc690f3eaee68f1809dbcacc419ab99109a747acf880e63071be52d58360003660405161135b93929190613057565b60606000825184518651606001010190506000855190506000855190506000855190506000806000806060886040519080825280601f01601f191660200182016040528015611e30576020820181803883390190505b50905060208d01945060208c01935060208b019250876020820152866040820152856060820152602081019150611e6c82606001868f51611ea3565b611e7e8d518360600101858e51611ea3565b611e938c518e51846060010101848d51611ea3565b9c9b505050505050505050505050565b5b60208110611ec3578151835260209283019290910190601f1901611ea4565b905182516020929092036101000a6000190180199091169116179052565b8260038101928215611f29579160200282015b82811115611f2957825182546001600160a01b0319166001600160a01b03909116178255602090920191600190910190611ef4565b50611f3592915061207f565b5090565b60405180606001604052806003906020820280388339509192915050565b600183019183908215611fda5791602002820160005b83821115611fab57835183826101000a81548160ff021916908360ff1602179055509260200192600101602081600001049283019260010302611f6d565b8015611fd85782816101000a81549060ff0219169055600101602081600001049283019260010302611fab565b505b50611f359291506120a6565b828054600181600116156101000203166002900490600052602060002090601f016020900481019282601f1061202757805160ff1916838001178555612054565b82800160010185558215612054579182015b82811115612054578251825591602001919060010190612039565b50611f359291506120c4565b6040518061026001604052806013906020820280388339509192915050565b6120a391905b80821115611f355780546001600160a01b0319168155600101612085565b90565b6120a391905b80821115611f3557805460ff191681556001016120ac565b6120a391905b80821115611f3557600081556001016120ca565b600082601f8301126120ee578081fd5b6120f86060613071565b905080828460608501111561210c57600080fd5b60005b6003811015612138578135612123816130c7565b8352602092830192919091019060010161210f565b50505092915050565b600082601f830112612151578081fd5b61215b6060613071565b905080828460608501111561216f57600080fd5b60005b6003811015612138578135612186816130df565b83526020928301929190910190600101612172565b600082601f8301126121ab578081fd5b81356001600160401b038111156121c0578182fd5b6121d3601f8201601f1916602001613071565b91508082528360208285010111156121ea57600080fd5b8060208401602084013760009082016020015292915050565b600060208284031215612214578081fd5b813561221f816130c7565b9392505050565b60008060006060848603121561223a578182fd5b8335612245816130c7565b95602085013595506040909401359392505050565b60008060006060848603121561226e578283fd5b8335612279816130c7565b925060208401356001600160401b0380821115612294578384fd5b6122a08783880161219b565b935060408601359150808211156122b5578283fd5b506122c28682870161219b565b9150509250925092565b6000602082840312156122dd578081fd5b5051919050565b6000806000606084860312156122f8578283fd5b8335925060208401356001600160401b03811115612314578283fd5b6123208682870161219b565b9250506040840135612331816130c7565b809150509250925092565b60008060008060808587031215612351578081fd5b8435935060208501356001600160401b038082111561236e578283fd5b61237a8883890161219b565b9450604087013591508082111561238f578283fd5b61239b8883890161219b565b935060608701359150808211156123b0578283fd5b506123bd8782880161219b565b91505092959194509250565b600080600080608085870312156123de578384fd5b84356001600160401b03808211156123f4578586fd5b6124008883890161219b565b95506020870135915080821115612415578485fd5b6124218883890161219b565b9450604087013591508082111561238f578384fd5b600060208284031215612447578081fd5b5035919050565b60008060008060c08587031215612463578384fd5b843593506020850135612475816130c7565b925061248486604087016120de565b915060a08501356001600160401b0381111561249e578182fd5b6123bd8782880161219b565b60008060008061010085870312156124c0578081fd5b843593506124d186602087016120de565b925060808501356001600160401b038111156124eb578182fd5b6124f78782880161219b565b9250506125078660a08701612141565b905092959194509250565b60008060408385031215612524578182fd5b8235915060208301356001600160401b03811115612540578182fd5b61254c8582860161219b565b9150509250929050565b600080600060a0848603121561256a578081fd5b8335925060208401356001600160401b03811115612586578182fd5b6125928682870161219b565b9250506125a28560408601612141565b90509250925092565b6000806000606084860312156125bf578081fd5b8335925060208401356001600160401b0380821115612294578283fd5b6000806000606084860312156125f0578081fd5b83359250602084013591506040840135612331816130c7565b6000806000806080858703121561261e578182fd5b843593506020850135925060408501356001600160401b038082111561238f578384fd5b600080600060608486031215612656578081fd5b8351612661816130df565b602085015160409095015190969495509392505050565b60008284528282602086013780602084860101526020601f19601f85011685010190509392505050565b600081518084526126ba816020860160208601613097565b601f01601f19169290920160200192915050565b600681106126d857fe5b9052565b600082516126ee818460208701613097565b9190910192915050565b7f19457468657265756d205369676e6564204d6573736167653a0a3332000000008152601c810191909152603c0190565b60006d119d5c9a5bdd5ccb505d1d195cdd60921b825284600e8301526bffffffffffffffffffffffff198460601b16602e8301528251612770816042850160208701613097565b91909101604201949350505050565b6001600160a01b0391909116815260200190565b901515815260200190565b83151581526001600160a01b0383166020820152606060408201819052600090610a4f908301846126a2565b90815260200190565b9182526001600160a01b0316602082015260400190565b600086825260806020830152612804608083018688612678565b6001600160a01b0394909416604083015250606001529392505050565b93845260ff9290921660208401526040830152606082015260800190565b60006020825261221f60208301846126a2565b6101608101612861828e6126ce565b602082018c90526001600160a01b038b811660408401528a1660608301526080820189905260a0820188905261289a60c08301886126ce565b60ff861660e08301528461010083015283610120830152826101408301529c9b505050505050505050505050565b60208082526032908201527f4e6f742074686520726967687420706861736520746f2070726f767564652061604082015271207761746368646f6720726573706f6e736560701b606082015260800190565b6020808252602a908201527f546865206f70657261746f722068617320616c726561647920726567697374656040820152697265642061205445452160b01b606082015260800190565b60208082526022908201527f54686520726573706f6e736520646561646c696e652068617320657870697265604082015261642160f01b606082015260800190565b600060808252601b60808301527f5761746368646f672d6368616c6c656e67652d526573706f6e7365000000000060a083015284602083015283604083015260c06060830152610a4f60c08301846126a2565b60208082526044908201527f4368616c6c656e67652063616e206f6e6c792062652074696d6564206f75742060408201527f696620746865726520697320616e20756e7265736f6c766564206368616c6c656060820152636e67652160e01b608082015260a00190565b60208082526043908201527f4368616c6c656e67652063616e206f6e6c7920626520616e737765726564206960408201527f6620746865726520697320616e20756e7265736f6c766564206368616c6c656e60608201526267652160e81b608082015260a00190565b60208082526029908201527f436f6e74726163742077697468207468697320494420646f657320616c72656160408201526864792065786973742160b81b606082015260800190565b60208082526042908201527f5468652073656e646572206f6620746865207061796f7574207478206973206e60408201527f6f742074686520706f6f6c207769746820746865207370656369666965642049606082015261442160f01b608082015260a00190565b60208082526022908201527f546865206372656174696f6e20646561646c696e652068617320657870697265604082015261642160f01b606082015260800190565b60208082526021908201527f4372656174696f6e206f70657261746f7220646f6573206e6f742065786973746040820152602160f81b606082015260800190565b60208082526042908201527f54686520636f6e747261637420776974682074686973204944206973206e6f7460408201527f20696e2074686520726967687420706861736520746f20626520637265617465606082015261642160f01b608082015260a00190565b6020808252601d908201527f57726f6e67207369676e617475726520666f72206372656174696f6e21000000604082015260600190565b60208082526030908201527f4e6f7420746865207269676874206163636f756e7420746f206368616c6c656e60408201526f676520746865207761746368646f677360801b606082015260800190565b610100808252600f908201526e10dc99585d1a5bdb8b505d1d195cdd608a1b61012082015260208101869052604081018590526001600160a01b0384811660608301526080820184905261014082019060a083018460005b6003811015612d685781518416835260209283019290910190600101612d47565b505050509695505050505050565b60208082526078908201527f4e6f742074686520726967687420706861736520746f206368616c6c656e676560408201527f207761746368646f6773206f72207761746368646f6773206861766520616c7260608201527f65616479206265656e206368616c6c656e6765642077697468696e207468652060808201527773616d65206578656375746f72206368616c6c656e67652160401b60a082015260c00190565b60208082526026908201527f57726f6e67207369676e617475726520666f72206578656375746f7220726573604082015265706f6e73652160d01b606082015260800190565b60208082526065908201527f4e6f742074686520726967687420706861736520746f206368616c6c656e676560408201527f207761746368646f6773206f72207761746368646f6773206861766520616c7260608201527f65616479206265656e206368616c6c656e67656420647572696e67206372656160808201526474696f6e2160d81b60a082015260c00190565b6020808252603b908201527f43616e206f6e6c79206368616c6c656e6765206578656375746f72206f66206360408201527f6f6e747261637420696e20706861736520657865637574696e67210000000000606082015260800190565b6020808252601190820152702bb937b7339030ba3a32b9ba30ba34b7b760791b604082015260600190565b60006080825260126080830152714368616c6c656e67652d526573706f6e736560701b60a083015284602083015283604083015260c06060830152610a4f60c08301846126a2565b60208082526030908201527f436f6e747261637420776974682074686973204944206973206e6f7420696e2060408201526f706861736520455845435554494e472160801b606082015260800190565b60208082526026908201527f54686520726573706f6e736520646561646c696e6520686173206e6f7420657860408201526570697265642160d01b606082015260800190565b600084825260406020830152610a4f604083018486612678565b6040518181016001600160401b038111828210171561308f57600080fd5b604052919050565b60005b838110156130b257818101518382015260200161309a565b838111156130c1576000848401525b50505050565b6001600160a01b03811681146130dc57600080fd5b50565b60ff811681146130dc57600080fdfe0a28e9ffef0073f9a6a674cf57ee77307f38f0f1bebb087888d9011ed0eeefdf00bf0c3a0df9551e2cce270ff8af13e6fcc879b4fb2910fa40283c8e075f1b3e61d8edc99eeed97131b2cbba8c4a77682fe1b1d12be775eb7c8d59f59b69606d7df18ed93f635875530d7dfc182010a31bb447ddb8519852de08919a51675a548bbe5dd4ea0b97138efbf74e5ed133ad4db512c152910df0f4090ceb05a98009c9e6c3d27b7d2a39dd265dfeb1ae764ecf7126048f5d263b2c17734b750d0fc158fd2d8429d20d0cf96b79df481317427017854fad52ffaefb784757796fda0f218aaf9f4f44f0d316ec3824fe887c3a8556ae18495d17548b63d7224e7a37a22bb5bbe09c36cdbc87761909a46e646215cba0b7c36e798671d1b0c5c98a900459a2646970667358221220eac6f499907ba23bcb0e1002dc7f9011160db58a502bbaac9d0ca6d67a86997464736f6c63430006010033",
  "source": "//TODO: Add license\n\npragma solidity ^0.6.1;\npragma experimental \"ABIEncoderV2\";\nimport \"./RSALibrary.sol\";\n\n//The RSA-based version (attestation is performed via RSA signatures)\ncontract FuriousManagingOtter_RSA is SolRsaVerify {\n    \n    //Constants\n    uint public constant POOL_SIZE = 3;\n    uint public constant TIMEOUT_INTERVAL = 15;   //The maximal dispute time is 3 * TIMEOUT_INTERVAL\n                                                  //because the executive operator can get \"extra time\" by challenging the watchdogs\n    \n    //For attestation\n    //@ClientDeveloper: The WRAPPER_PROGRAM_CODE_HASH is currently a dummy value. Once, the client attestation allows\n    //for configurable attestation implement it to sign hash(\"Furious-Attest\" || hash(Enclave-Program) || Enclave Ethereum Address || Enclave Encryption Key)\n    //and define WRAPPER_PROGRAM_CODE_HASH to equal hash(Pose-Program) such that it equals hash(Enclave-Program) if the enclave\n    //installed the POSE Program\n    bytes32 public constant WRAPPER_PROGRAM_CODE_HASH = 0x0a28e9ffef0073f9a6a674cf57ee77307f38f0f1bebb087888d9011ed0eeefdf; \n    bytes public constant ATTESTATION_AUTHORITY_E = \"\\x03\";\n    bytes public constant ATTESTATION_AUTHORITY_N = \"\\x00\\xbf\\x0c\\x3a\\x0d\\xf9\\x55\\x1e\\x2c\\xce\\x27\\x0f\\xf8\\xaf\\x13\\xe6\\xfc\\xc8\\x79\\xb4\\xfb\\x29\\x10\\xfa\\x40\\x28\\x3c\\x8e\\x07\\x5f\\x1b\\x3e\\x61\\xd8\\xed\\xc9\\x9e\\xee\\xd9\\x71\\x31\\xb2\\xcb\\xba\\x8c\\x4a\\x77\\x68\\x2f\\xe1\\xb1\\xd1\\x2b\\xe7\\x75\\xeb\\x7c\\x8d\\x59\\xf5\\x9b\\x69\\x60\\x6d\\x7d\\xf1\\x8e\\xd9\\x3f\\x63\\x58\\x75\\x53\\x0d\\x7d\\xfc\\x18\\x20\\x10\\xa3\\x1b\\xb4\\x47\\xdd\\xb8\\x51\\x98\\x52\\xde\\x08\\x91\\x9a\\x51\\x67\\x5a\\x54\\x8b\\xbe\\x5d\\xd4\\xea\\x0b\\x97\\x13\\x8e\\xfb\\xf7\\x4e\\x5e\\xd1\\x33\\xad\\x4d\\xb5\\x12\\xc1\\x52\\x91\\x0d\\xf0\\xf4\\x09\\x0c\\xeb\\x05\\xa9\\x80\\x09\\xc9\\xe6\\xc3\\xd2\\x7b\\x7d\\x2a\\x39\\xdd\\x26\\x5d\\xfe\\xb1\\xae\\x76\\x4e\\xcf\\x71\\x26\\x04\\x8f\\x5d\\x26\\x3b\\x2c\\x17\\x73\\x4b\\x75\\x0d\\x0f\\xc1\\x58\\xfd\\x2d\\x84\\x29\\xd2\\x0d\\x0c\\xf9\\x6b\\x79\\xdf\\x48\\x13\\x17\\x42\\x70\\x17\\x85\\x4f\\xad\\x52\\xff\\xae\\xfb\\x78\\x47\\x57\\x79\\x6f\\xda\\x0f\\x21\\x8a\\xaf\\x9f\\x4f\\x44\\xf0\\xd3\\x16\\xec\\x38\\x24\\xfe\\x88\\x7c\\x3a\\x85\\x56\\xae\\x18\\x49\\x5d\\x17\\x54\\x8b\\x63\\xd7\\x22\\x4e\\x7a\\x37\\xa2\\x2b\\xb5\\xbb\\xe0\\x9c\\x36\\xcd\\xbc\\x87\\x76\\x19\\x09\\xa4\\x6e\\x64\\x62\\x15\\xcb\\xa0\\xb7\\xc3\\x6e\\x79\\x86\\x71\\xd1\\xb0\\xc5\\xc9\\x8a\\x90\\x04\\x59\";\n    \n    //Phases a contract can occupy\n    enum Phase { NONE, CREATION, EXECUTING, CHALLENGE_EXECUTOR, CHALLENGE_WATCHDOG, CRASHED }\n    \n    //Events\n    event NewOperator(address operator);\n    event CreationInitialized(uint id);\n    event ContractCreated(uint id, bytes txData);\n    event ExecutorChallenged(uint id, bytes txData);\n    event ExecutorResponse(uint id, bytes txData);\n    event ExecutorKicked(uint id, bytes txData);\n    event WatchdogChallenged(uint id, bytes txData);\n    event WatchdogResponse(uint id, bytes txData);\n    event WatchdogFinalized(uint id, bytes txData);\n    event ContractCrashed(uint id);\n    \n    //@ClientDeveloper: How to use events and the tx-data information\n    // - Use the operator to listen on all of the events\n    //      - Use a web3j library for this, e.g. web3js\n    // - When an event for a relevant id is registered do the following:\n    // - Extract the information required from the txData field\n    //       - This field contains all function parameters (you can e.g. use it to extract the challenge message, ...)\n    // - Read the other relevant data from the contract (e.g., Who is the current executor). Same informaiton can be received from the TEE as well\n    // - Always give the txData to the TEE\n    // - TEE interprets the txData and learns what it should do\n    //     - The txData contains the function that has been called, so the TEE knows how to interpret the txData\n    //         - e.g., if it is a deposit the TEE needs to update the state\n    //         - e.g., if it is a challenge the TEE needs to interpret the challenge message and answer it\n    //         - ...\n    //     - As the TEE can no longer access the on-chain state it needs to simulate the tx off-chain and evolve its off-chain state accordingly\n    //          - e.g., kick inactive watchdogs, ...\n    //     - This way the TEE can ensure that the local state and the on-chain state are always the same\n    //          - You only need to simulate the state that is relevant for the TEE\n    //          - You can for example ignore the timeout, because the TEE clock is not synchronized with the on-chain clock anyway\n    // - The TEE updates it local incrementalTxHash which always needs to be the same as the on-chain one and need to be included into all signatures.\n    //          - This way the Manager can ensure that the TEE is up-to-date\n    //          - See modifier updateIncrementalTxHash to check how the incrementalTxHash is updated\n    //- TxData has the following structure:\n    //  - The first 4 bytes are the first 4 bytes of the hash of the method signature\n    //      - These are used to determine the tx-type and thus to determine how to interpret the tx-data\n    //      - In Solidity the method-hash would be calculated with: bytes4(keccak256(bytes(method-signature)));\n    //          - Method signature are name and parameter-types without whitespaces and modifiers or location like \"memory\"\n    //              - Signature of register: register(address,bytes,bytes)\n    //              - Signature of initCreation: initCreation(address,bytes32,uint256)\n    //              - ...\n    //              - Sometimes types fo have synonyms: e.g. uint is actually uint256\n    //              - Constants need t: uint256[POOL_SIZE] is actually uint256[30]\n    //  - The other bytes are the abi-encoded function parameters\n    //      - In solidity they would be equal to abi.encode(p1,p2,...);\n    \n    //Operator information \n    struct Operator {\n        bool initialized;\n        address teeSignatureAddress;\n        bytes teeEncryptionKey;                     //If we use elliptic curve cryptography with 256-but curves, the public key is a point on that curve, and hence, 64 bytes of size.\n    }\n    \n    //Contract information\n    struct Contract {\n        \n        //General lifecycle management\n        Phase phase;                                //Current phase\n         bytes32 incrementalTxHash;                 //Incremental hash of all transactions relevant for this contract\n                                                    //This is used as a checkpoint that enables a contract to check that the TEE is up-to-date\n        \n        //Contract and pool information\n        address payable poolAddress;                // The address to the pool public key\n        address creationOperator;                   // The address of the creation operator\n        address[POOL_SIZE] operators;               // The operator pool, a kicked operator is one witha ddress(0)\n        uint executiveOperator;                     // The index of the current executive operator within the operator pool\n        bytes32 codeHash;                           // The code hash of the application logic\n        \n        //Dispute information\n        Phase fallbackPhase;                        // A watchdog challenge can be within another challenge. Therefore we need to store the fallback phase after the watchdog challenge\n        uint8 watchdogsChallenged;                   // Watchdogs may only be challenged once during an execution challenge. This variable helprs to ensure that\n        bytes32 execChallengeHash;                  // The hash of the challenge message of the executor challenge\n        bytes32 watchdogChallengeHash;              // The hash of the challengeHash of the watchdog challenge (we need both as watchdog challenge can be within executor challenge)\n        uint8[POOL_SIZE] challengedWatchdogs;        // Array that stores which watchdogs are challenged\n        uint deadline;\n    }\n    \n    //Operator mapping\n    mapping(address => Operator) public operators;\n    address[] public operatorList;                  //To enable the client to iterate over all operators, if we wanted to save gas, we could also iterate over the past events\n    bytes32 public operatorIncrementalHash = 0;                //The creaiton-TEE needs to sign the list of operators it receives to ensure that the input is correct\n                                                    //However, encoding the whole list of operators to check the signed list hash can become really expensive\n                                                    //Therefore we construct an incremental hash: newHash = hash(oldHash, new address); the initial hash is 0x00...00\n                                                    //The downside is that the TEE has to calculate this incrementalHash when receiving a list of operators itself\n    \n    //Contract mapping\n    mapping(uint => Contract) public contracts;\n    \n    //******************\n    //Public functions\n\n    function testToBeDeletedGetEncoding(address teeSignatureAddress, bytes memory teeEncryptionKey, bytes memory attestationSignature) public pure returns (bytes memory){\n        return abi.encodePacked(\"Furious-Attest\", WRAPPER_PROGRAM_CODE_HASH, teeSignatureAddress, teeEncryptionKey);\n    }\n\n    function testCallToVerify(address teeSignatureAddress, bytes memory teeEncryptionKey, bytes memory attestationSignature) public view returns (uint){\n        return pkcs1Sha256VerifyRaw(abi.encodePacked(\"Furious-Attest\", WRAPPER_PROGRAM_CODE_HASH, teeSignatureAddress, teeEncryptionKey),attestationSignature,ATTESTATION_AUTHORITY_E,ATTESTATION_AUTHORITY_N);\n    }\n    \n    \n    //******************\n    //Registration\n    \n    //Registers a Operator and attests TEE, there may only be one TEE per operator\n    function register(address teeSignatureAddress, bytes memory teeEncryptionKey, bytes memory attestationSignature) public {\n        \n        //Check that operator has not registered another TEE\n        require(operators[msg.sender].initialized == false, \"The operator has already registered a TEE!\");\n        \n        //Check the signature with the required signature algorithm //@ClientDeveloper: Here you can see what needs to be included into the attestation of a TEE  \n        require(pkcs1Sha256VerifyRaw(abi.encodePacked(\"Furious-Attest\", WRAPPER_PROGRAM_CODE_HASH, teeSignatureAddress, teeEncryptionKey), attestationSignature, ATTESTATION_AUTHORITY_E, ATTESTATION_AUTHORITY_N) == 0, \"Wrong attestation\");\n    //TODO: After the testing we should include the manager-address here as well: abi.encodePacked(\"Furious-Attest\", WRAPPER_PROGRAM_CODE_HASH,  address(this), teeSignatureAddress, teeEncryptionKey); \n\n        //Register operator\n        operatorList.push(msg.sender);\n        operators[msg.sender] = Operator(true, teeSignatureAddress, teeEncryptionKey);\n        operatorIncrementalHash = keccak256(abi.encode(operatorIncrementalHash, msg.sender));\n        \n        //Notify clients\n        emit NewOperator(msg.sender);\n    }\n    \n    //******************\n    //Creation\n    \n    //We do not challenge the creator. If he does not respond in time, the creation is simply not successful. Challenge would have the same effect.\n    \n    //Initializes the creation, we need this to ensure that the creation TEE gets the up-to-date state (e.g. list of operators) from the operator\n    function initCreation(address creationOperator, bytes32 codeHash, uint freeId) public {\n        \n        //Checks\n        require(contracts[freeId].phase == Phase.NONE, \"Contract with this ID does already exist!\");\n        require(operators[creationOperator].initialized == true, \"Creation operator does not exist!\");\n        \n        //Creat contract Tuple\n        address[POOL_SIZE] memory operatorArray;\n        uint8[POOL_SIZE] memory challenged;\n        contracts[freeId] = Contract(Phase.CREATION, operatorIncrementalHash, address(0), creationOperator, operatorArray, 0, codeHash, Phase.NONE, 0, 0, 0, challenged, now + TIMEOUT_INTERVAL);\n        \n        //Notify clients\n        emit CreationInitialized(freeId);\n    }\n    \n    //Enables the creation operator to challenge the pool during creation\n    //Problem: During creation the TEEs do not receive the same message as they do not know the secret pool key\n    //Solution: Simply interpret message as the concatination of all individual messages\n    function challengeWatchdogsDuringCreation(uint id, address[POOL_SIZE] memory pool_operators, bytes memory message, uint8[POOL_SIZE] memory challengedOperators) public updateIncrementalTxHash(id, 0) {\n        \n        //Checks\n        require(msg.sender == contracts[id].creationOperator, \"Not the right account to challenge the watchdogs\");                                                                                            \n        require(contracts[id].phase == Phase.CREATION && contracts[id].watchdogsChallenged < 1, \"Not the right phase to challenge watchdogs or watchdogs have already been challenged during creation!\");\n        \n        //I think we can set this without a signature as it will be overwritten by a successful creation anyways\n        contracts[id].operators = pool_operators;\n        \n        //Call the internal part of the watchdog challenge procedure (shared between watchdog challenges during execution and during creation)\n        internalWatchdogChallenge(id, message, challengedOperators);\n    }\n    \n    //Finalizes the creation. The TEE ensures that the values (e.g. Operator pool) are correct. We only need to check via the TEE-signature that it has received the correct inputs\n    function finalizeCreation(uint id, address payable pool_address, address[POOL_SIZE] memory pool_operators, bytes memory signature) public updateIncrementalTxHash(id, 0){\n        \n        //Checks\n        require(contracts[id].phase == Phase.CREATION, \"The contract with this ID is not in the right phase to be created!\");\n        require(contracts[id].deadline >= now, \"The creation deadline has expired!\");\n        \n        //Check Signature //@ClientDeveloper: Here you can see what needs to be included into the creation finalization signature\n        bytes32 signedHash = keccak256(abi.encode(\"Creation-Attest\", id, contracts[id].incrementalTxHash, pool_address, contracts[id].codeHash, pool_operators));\n        require(verifySignature(signedHash, signature, operators[contracts[id].creationOperator].teeSignatureAddress) == true, \"Wrong signature for creation!\");\n        \n        //Update state\n        contracts[id].poolAddress = pool_address;\n        contracts[id].phase = Phase.EXECUTING;\n        contracts[id].operators = pool_operators;\n        \n        //Notify clients\n        emit ContractCreated(id, msg.data);\n    }\n    \n    //******************\n    //Handling assets\n    \n    //Enables a party to deposit funds to a pool address, as we increment the checkpoint number this may only be done during phase executing\n    function depositToContract(uint id) public payable updateIncrementalTxHash(id, msg.value){\n        \n        //You can only deposit to an executing contract\n        require(contracts[id].phase == Phase.EXECUTING, \"Contract with this ID is not in phase EXECUTING!\");\n        \n        //Forward the money to the pool address\n        contracts[id].poolAddress.transfer(msg.value);\n    }\n    \n    //Enables a party to withdraw funds. The tx needs to be issued by the poolAddress (the pool-pk) and is broadcasted to the network by the client.\n    //The tx contains the block number and block hash, when it was issued.\n    //This way we ensure that the pool has been up-to-date with the blockchain when it has issued this payout. \n    function withdraw(uint id, uint blocknumber, address payable receiver) public payable updateIncrementalTxHash(id, msg.value) {\n        \n        //Checks\n        require(msg.sender == contracts[id].poolAddress, \"The sender of the payout tx is not the pool with the specified ID!\");\n        \n        //Forwards the withdraw value to the receiver of the payout\n        receiver.transfer(msg.value);\n    }\n    \n    //******************\n    //Execution Challenges - Can either be atomic (just challenge the executor) or combined with a challenge to the watchdogs by the executor. Needs to be complete before completing the challenge to the executor\n    \n    //Challenge the executor to provide the current state or execute a move (what exactly is encoded into the message)\n    function challengeExecutor(uint id, bytes memory message) public updateIncrementalTxHash(id, 0) {\n        \n        //Checks\n        require(contracts[id].phase == Phase.EXECUTING, \"Can only challenge executor of contract in phase executing!\");\n        \n        //Update state\n        contracts[id].phase = Phase.CHALLENGE_EXECUTOR;\n        contracts[id].deadline = now + TIMEOUT_INTERVAL;\n        contracts[id].watchdogsChallenged = 0;\n        contracts[id].execChallengeHash = keccak256(message);\n        \n        //Notify clients\n        emit ExecutorChallenged(id, msg.data);\n        \n    }\n    \n    //Response of the executive operator\n    function executorResponse(uint id, bytes memory response, bytes memory signature) public updateIncrementalTxHash(id, 0) {\n        \n        //Checks\n        require(contracts[id].phase == Phase.CHALLENGE_EXECUTOR, \"Challenge can only be answered if there is an unresolved challenge!\");\n        require(contracts[id].deadline >= now, \"The response deadline has expired!\");\n        \n        //Check Signature //@ClientDeveloper: Here you can see what needs to be included into the executor response signature\n        bytes32 signedHash = keccak256(abi.encode(\"Challenge-Response\", id, contracts[id].incrementalTxHash, response));  //Checkpoint-hash includes contracts[id].challengeHash\n        require(verifySignature(signedHash, signature, operators[contracts[id].operators[contracts[id].executiveOperator]].teeSignatureAddress) == true, \"Wrong signature for executor response!\");\n        \n        //Update state\n        contracts[id].phase = Phase.EXECUTING;\n        \n        //Notify clients\n        emit ExecutorResponse(id, msg.data);\n    }\n    \n    //Enables any party to kick the executive operator if it does not respond to a challenge in time\n    function executorTimeout(uint id) public updateIncrementalTxHash(id, 0) {\n        \n        //Checks\n        require(contracts[id].phase == Phase.CHALLENGE_EXECUTOR, \"Challenge can only be timed out if there is an unresolved challenge!\");\n        require(contracts[id].deadline < now, \"The response deadline has not expired!\");\n        \n        //Drop the executor = Set his address to address(0)\n        address _executor = contracts[id].operators[contracts[id].executiveOperator];\n        contracts[id].operators[contracts[id].executiveOperator] = address(0);\n        \n        //Check if there is another active operator\n        for(uint i = contracts[id].executiveOperator + 1; i < POOL_SIZE; i++) {\n            if(contracts[id].operators[i] != address(0)){\n                \n                //Update state\n                contracts[id].executiveOperator = i;\n                contracts[id].phase = Phase.EXECUTING;\n                \n                //Notify clients\n                emit ExecutorKicked(id, msg.data);\n                \n                return;\n            }\n        }\n        \n        //Otherwise: Mark the contract as crashed\n        contracts[id].phase = Phase.CRASHED;\n        \n        //Notify clients\n        emit ContractCrashed(id);\n\n    }\n    \n    //********************\n    // Challenge watchdogs\n    \n    //Enables the executors to challenge a list of watchdogs with a given message.\n    //If their are individual messages for each watchdog, simply concatenate them to one \n    function challengeWatchdog(uint id, bytes memory message, uint8[POOL_SIZE] memory challengedOperators) public updateIncrementalTxHash(id, 0){\n        \n        //Checks\n        require(msg.sender == contracts[id].operators[contracts[id].executiveOperator], \"Not the right account to challenge the watchdogs\");                                                                                            \n        require(contracts[id].phase == Phase.EXECUTING || (contracts[id].phase == Phase.CHALLENGE_EXECUTOR && contracts[id].watchdogsChallenged < 2), \"Not the right phase to challenge watchdogs or watchdogs have already been challenged within the same executor challenge!\");   //Correct phase\n        \n        //Internal function to prevent duplicate code\n        internalWatchdogChallenge(id, message, challengedOperators);\n        \n    }\n    \n    //Answers a watchdog challenge. The operator gives the challenge to the TEE which generates a response. The response can also be: <<Invalid Message>>\n    //Id 1 is the index of the party in the operator-list, Id 2 is the index of the party in the challenged-list\n    function watchdogResponse(uint id, uint index, bytes memory response, bytes memory signature) public updateIncrementalTxHash(id, 0) {\n        \n        //Checks\n        require(contracts[id].phase == Phase.CHALLENGE_WATCHDOG, \"Not the right phase to provude a watchdog response\");\n        require(contracts[id].deadline >= now, \"The response deadline has expired!\");\n        \n        //Verify signatures //@ClientDeveloper: Here you can see what needs to be included into a watchdog response signature\n        bytes32 signedHash = keccak256(abi.encode(\"Watchdog-challenge-Response\", id, contracts[id].incrementalTxHash, response));  //Checkpoint-hash includes contracts[id].challengeHash\n        require(verifySignature(signedHash, signature, operators[contracts[id].operators[index]].teeSignatureAddress) == true, \"Wrong signature for executor response!\");\n        \n        //Mark the party as not-challenged in the challenge list\n        contracts[id].challengedWatchdogs[index] = 0;\n        \n        //Notify clients\n        emit WatchdogResponse(id, msg.data);\n    }\n    \n    //Finalizes a watchdog challenge and kicks all watchdogs that have not responded\n    function watchdogFinalization(uint id) public updateIncrementalTxHash(id, 0){\n        \n        //Checks\n        require(contracts[id].phase == Phase.CHALLENGE_WATCHDOG, \"Not the right phase to provude a watchdog response\");\n        require(contracts[id].deadline < now, \"The response deadline has not expired!\");\n        \n        //Drop the watchdogs, that have not responded (The executor is ignored here)\n        for(uint i = 0; i < POOL_SIZE; i++){\n            if(contracts[id].challengedWatchdogs[i] == 1){\n                contracts[id].operators[i] = address(0);       //A kicked watchdog is simply one with address(0)\n            }\n        }\n        \n        //Return to the correct phase\n        contracts[id].phase = contracts[id].fallbackPhase;\n        contracts[id].watchdogsChallenged = contracts[id].watchdogsChallenged + 1;\n        \n        //Increase the timeout if there is an outer creation or executor challenge\n        if (contracts[id].phase == Phase.CHALLENGE_EXECUTOR || contracts[id].phase == Phase.CREATION) {\n            contracts[id].deadline = now + TIMEOUT_INTERVAL;\n        }\n        \n        //Notify clients\n        emit WatchdogFinalized(id, msg.data);\n    }\n    \n    //******************\n    //Modifiers\n    \n    //This code is executed after each public function (besides initCreation) to include the new transaction into the contract-tx-history-hash\n    modifier updateIncrementalTxHash(uint id, uint value) {\n        _;\n        //@ClientDeveloper: Check here how the incremental hash is created\n        contracts[id].incrementalTxHash = keccak256(abi.encode(contracts[id].incrementalTxHash, msg.data, msg.sender, value));\n    }\n    \n    //******************\n    //Private functions (Mainly prevent duplicate code)\n    \n    //Duplicate code used by both watchdog challenges which dupdates the state and emits the event\n    function internalWatchdogChallenge(uint id, bytes memory message, uint8[POOL_SIZE] memory challengedOperators) private {\n        \n        //Update state\n        contracts[id].fallbackPhase = contracts[id].phase;\n        contracts[id].phase = Phase.CHALLENGE_WATCHDOG;\n        contracts[id].deadline = now + TIMEOUT_INTERVAL;\n        contracts[id].watchdogChallengeHash = keccak256(message);\n        contracts[id].challengedWatchdogs = challengedOperators;\n        \n        //Notify clients\n        emit WatchdogChallenged(id, msg.data);\n    }\n    \n    //******************\n    //Public helper functions\n    \n    //Verifies ECDSA signatures of Ethereum addresses\n    //function verifySignature(bytes32 signedHash, bytes memory signature, address signer) public pure returns (bool) {\n    //    \n    //    //Parse the signature\n    //    (uint8 v, bytes32 r, bytes32 s) = abi.decode(signature, (uint8, bytes32, bytes32));\n    //    \n    //    //Verify the signature\n    //    return (ecrecover(signedHash, v, r, s) == signer);\n    //}\n    \n    //Verifies ECDSA signatures of prefixed and hashed encoded data: Hash the data, prefix it, hash it again, verify it against signature\n    //TODO: If our client does not prefix we can use the funciton above\n    function verifySignature(bytes32 _hashedDataInput, bytes memory _signature, address _party) public pure returns (bool){\n\n        //Convert signatures\n        (uint8 v, bytes32 r, bytes32 s) = abi.decode(_signature, (uint8, bytes32, bytes32));\n\n        //Calc prefixed hash\n        bytes32 _hash = keccak256(abi.encodePacked(\"\\x19Ethereum Signed Message:\\n32\", _hashedDataInput));\n\n        return _party == ecrecover(_hash, v,r,s);\n\n    }\n}\n",
  "sourcePath": "/mnt/103A12BD3A129FB0/CAC/Projekte/2020_FuriousOtter/furious-otter/OSCode/SmartContract/contracts/FuriousManagingOtter_RSA.sol",
  "compiler": {
    "name": "solc",
    "version": "0.6.1+commit.e6f7d5a4.Emscripten.clang"
  },
  "schemaVersion": "3.4.3",
  "updatedAt": "2022-08-18T22:53:28.540Z",
  "devdoc": {
    "methods": {
      "pkcs1Sha256Verify(bytes32,bytes,bytes,bytes)": {
        "details": "Verifies a PKCSv1.5 SHA256 signature",
        "params": {
          "_e": "is the exponent",
          "_m": "is the modulus",
          "_s": "is the signature",
          "_sha256": "is the sha256 of the data"
        },
        "returns": {
          "_0": "0 if success, >0 otherwise"
        }
      },
      "pkcs1Sha256VerifyRaw(bytes,bytes,bytes,bytes)": {
        "details": "Verifies a PKCSv1.5 SHA256 signature",
        "params": {
          "_data": "to verify",
          "_e": "is the exponent",
          "_m": "is the modulus",
          "_s": "is the signature"
        },
        "returns": {
          "_0": "0 if success, >0 otherwise"
        }
      }
    }
  },
  "userdoc": {
    "methods": {}
  }
}