{
  "contractName": "FuriousManagingOtter",
  "abi": [
    {
      "anonymous": false,
      "inputs": [
        {
          "indexed": false,
          "internalType": "uint256",
          "name": "id",
          "type": "uint256"
        }
      ],
      "name": "ContractCrashed",
      "type": "event"
    },
    {
      "anonymous": false,
      "inputs": [
        {
          "indexed": false,
          "internalType": "uint256",
          "name": "id",
          "type": "uint256"
        },
        {
          "indexed": false,
          "internalType": "bytes",
          "name": "txData",
          "type": "bytes"
        }
      ],
      "name": "ContractCreated",
      "type": "event"
    },
    {
      "anonymous": false,
      "inputs": [
        {
          "indexed": false,
          "internalType": "uint256",
          "name": "id",
          "type": "uint256"
        }
      ],
      "name": "CreationInitialized",
      "type": "event"
    },
    {
      "anonymous": false,
      "inputs": [
        {
          "indexed": false,
          "internalType": "uint256",
          "name": "id",
          "type": "uint256"
        },
        {
          "indexed": false,
          "internalType": "bytes",
          "name": "txData",
          "type": "bytes"
        }
      ],
      "name": "ExecutorChallenged",
      "type": "event"
    },
    {
      "anonymous": false,
      "inputs": [
        {
          "indexed": false,
          "internalType": "uint256",
          "name": "id",
          "type": "uint256"
        },
        {
          "indexed": false,
          "internalType": "bytes",
          "name": "txData",
          "type": "bytes"
        }
      ],
      "name": "ExecutorKicked",
      "type": "event"
    },
    {
      "anonymous": false,
      "inputs": [
        {
          "indexed": false,
          "internalType": "uint256",
          "name": "id",
          "type": "uint256"
        },
        {
          "indexed": false,
          "internalType": "bytes",
          "name": "txData",
          "type": "bytes"
        }
      ],
      "name": "ExecutorResponse",
      "type": "event"
    },
    {
      "anonymous": false,
      "inputs": [
        {
          "indexed": false,
          "internalType": "address",
          "name": "operator",
          "type": "address"
        }
      ],
      "name": "NewOperator",
      "type": "event"
    },
    {
      "anonymous": false,
      "inputs": [
        {
          "indexed": false,
          "internalType": "uint256",
          "name": "id",
          "type": "uint256"
        },
        {
          "indexed": false,
          "internalType": "bytes",
          "name": "txData",
          "type": "bytes"
        }
      ],
      "name": "WatchdogChallenged",
      "type": "event"
    },
    {
      "anonymous": false,
      "inputs": [
        {
          "indexed": false,
          "internalType": "uint256",
          "name": "id",
          "type": "uint256"
        },
        {
          "indexed": false,
          "internalType": "bytes",
          "name": "txData",
          "type": "bytes"
        }
      ],
      "name": "WatchdogFinalized",
      "type": "event"
    },
    {
      "anonymous": false,
      "inputs": [
        {
          "indexed": false,
          "internalType": "uint256",
          "name": "id",
          "type": "uint256"
        },
        {
          "indexed": false,
          "internalType": "bytes",
          "name": "txData",
          "type": "bytes"
        }
      ],
      "name": "WatchdogResponse",
      "type": "event"
    },
    {
      "inputs": [],
      "name": "ATTESTATION_AUTHORITY",
      "outputs": [
        {
          "internalType": "address",
          "name": "",
          "type": "address"
        }
      ],
      "stateMutability": "view",
      "type": "function"
    },
    {
      "inputs": [],
      "name": "POOL_SIZE",
      "outputs": [
        {
          "internalType": "uint256",
          "name": "",
          "type": "uint256"
        }
      ],
      "stateMutability": "view",
      "type": "function"
    },
    {
      "inputs": [],
      "name": "TIMEOUT_INTERVAL",
      "outputs": [
        {
          "internalType": "uint256",
          "name": "",
          "type": "uint256"
        }
      ],
      "stateMutability": "view",
      "type": "function"
    },
    {
      "inputs": [],
      "name": "WRAPPER_PROGRAM_CODE_HASH",
      "outputs": [
        {
          "internalType": "bytes32",
          "name": "",
          "type": "bytes32"
        }
      ],
      "stateMutability": "view",
      "type": "function"
    },
    {
      "inputs": [
        {
          "internalType": "uint256",
          "name": "",
          "type": "uint256"
        }
      ],
      "name": "contracts",
      "outputs": [
        {
          "internalType": "enum FuriousManagingOtter.Phase",
          "name": "phase",
          "type": "uint8"
        },
        {
          "internalType": "bytes32",
          "name": "incrementalTxHash",
          "type": "bytes32"
        },
        {
          "internalType": "address payable",
          "name": "poolAddress",
          "type": "address"
        },
        {
          "internalType": "address",
          "name": "creationOperator",
          "type": "address"
        },
        {
          "internalType": "uint256",
          "name": "executiveOperator",
          "type": "uint256"
        },
        {
          "internalType": "bytes32",
          "name": "codeHash",
          "type": "bytes32"
        },
        {
          "internalType": "enum FuriousManagingOtter.Phase",
          "name": "fallbackPhase",
          "type": "uint8"
        },
        {
          "internalType": "uint8",
          "name": "watchdogsChallenged",
          "type": "uint8"
        },
        {
          "internalType": "bytes32",
          "name": "execChallengeHash",
          "type": "bytes32"
        },
        {
          "internalType": "bytes32",
          "name": "watchdogChallengeHash",
          "type": "bytes32"
        },
        {
          "internalType": "uint256",
          "name": "deadline",
          "type": "uint256"
        }
      ],
      "stateMutability": "view",
      "type": "function"
    },
    {
      "inputs": [],
      "name": "operatorIncrementalHash",
      "outputs": [
        {
          "internalType": "bytes32",
          "name": "",
          "type": "bytes32"
        }
      ],
      "stateMutability": "view",
      "type": "function"
    },
    {
      "inputs": [
        {
          "internalType": "uint256",
          "name": "",
          "type": "uint256"
        }
      ],
      "name": "operatorList",
      "outputs": [
        {
          "internalType": "address",
          "name": "",
          "type": "address"
        }
      ],
      "stateMutability": "view",
      "type": "function"
    },
    {
      "inputs": [
        {
          "internalType": "address",
          "name": "",
          "type": "address"
        }
      ],
      "name": "operators",
      "outputs": [
        {
          "internalType": "bool",
          "name": "initialized",
          "type": "bool"
        },
        {
          "internalType": "address",
          "name": "teeSignatureAddress",
          "type": "address"
        },
        {
          "internalType": "bytes",
          "name": "teeEncryptionKey",
          "type": "bytes"
        }
      ],
      "stateMutability": "view",
      "type": "function"
    },
    {
      "inputs": [
        {
          "internalType": "address",
          "name": "teeSignatureAddress",
          "type": "address"
        },
        {
          "internalType": "bytes",
          "name": "teeEncryptionKey",
          "type": "bytes"
        },
        {
          "internalType": "bytes",
          "name": "attestationSignature",
          "type": "bytes"
        }
      ],
      "name": "register",
      "outputs": [],
      "stateMutability": "nonpayable",
      "type": "function"
    },
    {
      "inputs": [
        {
          "internalType": "address",
          "name": "creationOperator",
          "type": "address"
        },
        {
          "internalType": "bytes32",
          "name": "codeHash",
          "type": "bytes32"
        },
        {
          "internalType": "uint256",
          "name": "freeId",
          "type": "uint256"
        }
      ],
      "name": "initCreation",
      "outputs": [],
      "stateMutability": "nonpayable",
      "type": "function"
    },
    {
      "inputs": [
        {
          "internalType": "uint256",
          "name": "id",
          "type": "uint256"
        },
        {
          "internalType": "address[3]",
          "name": "pool_operators",
          "type": "address[3]"
        },
        {
          "internalType": "bytes",
          "name": "message",
          "type": "bytes"
        },
        {
          "internalType": "uint8[3]",
          "name": "challengedOperators",
          "type": "uint8[3]"
        }
      ],
      "name": "challengeWatchdogsDuringCreation",
      "outputs": [],
      "stateMutability": "nonpayable",
      "type": "function"
    },
    {
      "inputs": [
        {
          "internalType": "uint256",
          "name": "id",
          "type": "uint256"
        },
        {
          "internalType": "address payable",
          "name": "pool_address",
          "type": "address"
        },
        {
          "internalType": "address[3]",
          "name": "pool_operators",
          "type": "address[3]"
        },
        {
          "internalType": "bytes",
          "name": "signature",
          "type": "bytes"
        }
      ],
      "name": "finalizeCreation",
      "outputs": [],
      "stateMutability": "nonpayable",
      "type": "function"
    },
    {
      "inputs": [
        {
          "internalType": "uint256",
          "name": "id",
          "type": "uint256"
        }
      ],
      "name": "depositToContract",
      "outputs": [],
      "stateMutability": "payable",
      "type": "function"
    },
    {
      "inputs": [
        {
          "internalType": "uint256",
          "name": "id",
          "type": "uint256"
        },
        {
          "internalType": "uint256",
          "name": "blocknumber",
          "type": "uint256"
        },
        {
          "internalType": "address payable",
          "name": "receiver",
          "type": "address"
        }
      ],
      "name": "withdraw",
      "outputs": [],
      "stateMutability": "payable",
      "type": "function"
    },
    {
      "inputs": [
        {
          "internalType": "uint256",
          "name": "id",
          "type": "uint256"
        },
        {
          "internalType": "bytes",
          "name": "message",
          "type": "bytes"
        }
      ],
      "name": "challengeExecutor",
      "outputs": [],
      "stateMutability": "nonpayable",
      "type": "function"
    },
    {
      "inputs": [
        {
          "internalType": "uint256",
          "name": "id",
          "type": "uint256"
        },
        {
          "internalType": "bytes",
          "name": "response",
          "type": "bytes"
        },
        {
          "internalType": "bytes",
          "name": "signature",
          "type": "bytes"
        }
      ],
      "name": "executorResponse",
      "outputs": [],
      "stateMutability": "nonpayable",
      "type": "function"
    },
    {
      "inputs": [
        {
          "internalType": "uint256",
          "name": "id",
          "type": "uint256"
        }
      ],
      "name": "executorTimeout",
      "outputs": [],
      "stateMutability": "nonpayable",
      "type": "function"
    },
    {
      "inputs": [
        {
          "internalType": "uint256",
          "name": "id",
          "type": "uint256"
        },
        {
          "internalType": "bytes",
          "name": "message",
          "type": "bytes"
        },
        {
          "internalType": "uint8[3]",
          "name": "challengedOperators",
          "type": "uint8[3]"
        }
      ],
      "name": "challengeWatchdog",
      "outputs": [],
      "stateMutability": "nonpayable",
      "type": "function"
    },
    {
      "inputs": [
        {
          "internalType": "uint256",
          "name": "id",
          "type": "uint256"
        },
        {
          "internalType": "uint256",
          "name": "index",
          "type": "uint256"
        },
        {
          "internalType": "bytes",
          "name": "response",
          "type": "bytes"
        },
        {
          "internalType": "bytes",
          "name": "signature",
          "type": "bytes"
        }
      ],
      "name": "watchdogResponse",
      "outputs": [],
      "stateMutability": "nonpayable",
      "type": "function"
    },
    {
      "inputs": [
        {
          "internalType": "uint256",
          "name": "id",
          "type": "uint256"
        }
      ],
      "name": "watchdogFinalization",
      "outputs": [],
      "stateMutability": "nonpayable",
      "type": "function"
    },
    {
      "inputs": [
        {
          "internalType": "bytes32",
          "name": "_hashedDataInput",
          "type": "bytes32"
        },
        {
          "internalType": "bytes",
          "name": "_signature",
          "type": "bytes"
        },
        {
          "internalType": "address",
          "name": "_party",
          "type": "address"
        }
      ],
      "name": "verifySignature",
      "outputs": [
        {
          "internalType": "bool",
          "name": "",
          "type": "bool"
        }
      ],
      "stateMutability": "pure",
      "type": "function"
    }
  ],
  "bytecode": "0x6080604052600060025534801561001557600080fd5b50612a3e806100256000396000f3fe6080604052600436106101295760003560e01c806353c81db6116100ab57806382ca2f091161006f57806382ca2f091461031357806398abb9b214610333578063b2c58c5514610353578063c296d35e14610373578063cb38f40714610395578063dac3a092146103b557610129565b806353c81db61461028057806358c44629146102a05780637277d93d146102c0578063786cd4d7146102e05780637b30aa471461030057610129565b80631916a41f116100f25780631916a41f146101d25780631de52849146101e757806331cd419914610207578063474da79a146102345780634f9daac61461026b57610129565b80620327be1461012e578063018f004e14610159578063095316871461016e5780630ad58d2f1461019057806313e7c9d8146101a3575b600080fd5b34801561013a57600080fd5b506101436103d5565b60405161015091906120bb565b60405180910390f35b34801561016557600080fd5b506101436103da565b34801561017a57600080fd5b5061018e610189366004611d45565b6103e0565b005b61018e61019e366004611ef7565b61063e565b3480156101af57600080fd5b506101c36101be366004611c24565b61070c565b60405161015093929190612086565b3480156101de57600080fd5b506101436107c0565b3480156101f357600080fd5b5061018e610202366004611dc5565b6107eb565b34801561021357600080fd5b50610227610222366004611ced565b610913565b604051610150919061207b565b34801561024057600080fd5b5061025461024f366004611d45565b6109ce565b6040516101509b9a99989796959493929190612130565b34801561027757600080fd5b50610143610a3b565b34801561028c57600080fd5b5061018e61029b366004611c47565b610a40565b3480156102ac57600080fd5b5061018e6102bb366004611ec6565b610c8b565b3480156102cc57600080fd5b5061018e6102db366004611f24565b610e31565b3480156102ec57600080fd5b5061018e6102fb366004611c7b565b610fcd565b61018e61030e366004611d45565b6111ad565b34801561031f57600080fd5b5061018e61032e366004611e2d565b61125d565b34801561033f57600080fd5b5061018e61034e366004611d45565b611373565b34801561035f57600080fd5b5061018e61036e366004611d5d565b61158c565b34801561037f57600080fd5b5061038861171f565b6040516101509190612067565b3480156103a157600080fd5b506103886103b0366004611d45565b611737565b3480156103c157600080fd5b5061018e6103d0366004611e71565b61175e565b600f81565b60025481565b806000600460008481526003602052604090205460ff16600581111561040257fe5b146104285760405162461bcd60e51b815260040161041f906121b6565b60405180910390fd5b6000838152600360205260409020600d015442116104585760405162461bcd60e51b815260040161041f9061294b565b60005b60038110156104ec5760036000858152602001908152602001600020600c01816003811061048557fe5b602091828204019190069054906101000a900460ff1660ff16600114156104e4576000848152600360208190526040822060040190839081106104c457fe5b0180546001600160a01b0319166001600160a01b03929092169190911790555b60010161045b565b5060008381526003602052604090206009810154815460ff909116919060ff1916600183600581111561051b57fe5b0217905550600083815260036020819052604090912060098101805460ff610100808304821660010182160261ff001990921691909117909155905416600581111561056357fe5b148061058b5750600160008481526003602052604090205460ff16600581111561058957fe5b145b156105a957600083815260036020526040902042600f01600d909101555b7f106b135107d13ff044c8550bf0b6be864dbba782e2bb345f17f0e8b11038382f836000366040516105dd93929190612991565b60405180910390a1600082815260036020908152604080832060010154905161060e939192369133918791016120db565b60408051601f19818403018152918152815160209283012060009485526003909252909220600101919091555050565b600083815260036020526040902060020154839034906001600160a01b0316331461067b5760405162461bcd60e51b815260040161041f90612403565b6040516001600160a01b038416903480156108fc02916000818181858888f193505050501580156106b0573d6000803e3d6000fd5b5060008281526003602090815260408083206001015490516106da939192369133918791016120db565b60408051601f198184030181529181528151602092830120600094855260039092529092206001019190915550505050565b60006020818152918152604090819020805460018083018054855160026101009483161585026000190190921691909104601f810188900488028201880190965285815260ff841696929093046001600160a01b03169490918301828280156107b65780601f1061078b576101008083540402835291602001916107b6565b820191906000526020600020905b81548152906001019060200180831161079957829003601f168201915b5050505050905083565b60006040516020016107d291906121a8565b6040516020818303038152906040528051906020012081565b6000848152600360208190526040822001548591906001600160a01b031633146108275760405162461bcd60e51b815260040161041f9061258d565b600160008781526003602052604090205460ff16600581111561084657fe5b14801561086d5750600086815260036020526040902060090154600161010090910460ff16105b6108895760405162461bcd60e51b815260040161041f9061279a565b60008681526003602081905260409091206108ab916004909101908790611921565b506108b7868585611869565b60008281526003602090815260408083206001015490516108e0939192369133918791016120db565b60408051601f19818403018152918152815160209283012060009485526003909252909220600101919091555050505050565b6000806000808580602001905161092d9190810190611f8b565b9250925092506000876040516020016109469190612036565b604051602081830303815290604052805190602001209050600181858585604051600081526020016040526040516109819493929190612112565b6020604051602081039080840390855afa1580156109a3573d6000803e3d6000fd5b505050602060405103516001600160a01b0316866001600160a01b0316149450505050509392505050565b600360208190526000918252604090912080546001820154600283015493830154600784015460088501546009860154600a870154600b880154600d9098015460ff9788169996986001600160a01b0397881698979096169694959394808416946101009094041692908b565b600381565b60008181526003602052604081205460ff166005811115610a5d57fe5b14610a7a5760405162461bcd60e51b815260040161041f906123ba565b6001600160a01b03831660009081526020819052604090205460ff161515600114610ab75760405162461bcd60e51b815260040161041f906124ad565b610abf611979565b610ac7611979565b604080516101a08101825260018152600254602082015260009181018290526001600160a01b03871660608201526080810184905260a0810182905260c081018690529060e08201908152600060208083018290526040808401839052606084018390526080840186905242600f0160a090940193909352868252600390522081518154829060ff19166001836005811115610b5f57fe5b02179055506020820151600182015560408201516002820180546001600160a01b03199081166001600160a01b0393841617909155606084015160038085018054909316919093161790556080830151610bbe91600484019190611921565b5060a0820151600782015560c0820151600882015560e082015160098201805460ff19166001836005811115610bf057fe5b02179055506101008281015160098301805461ff00191660ff909216909202179055610120820151600a820155610140820151600b820155610160820151610c3e90600c8301906003611997565b5061018082015181600d01559050507f49785624f38a761b897969be5c85cc86ec28719ba3642a42ccb2fa3ec916fda383604051610c7c91906120bb565b60405180910390a15050505050565b826000600360008681526003602052604090205460ff166005811115610cad57fe5b14610cca5760405162461bcd60e51b815260040161041f90612351565b6000858152600360205260409020600d0154421115610cfb5760405162461bcd60e51b815260040161041f90612252565b6000858152600360209081526040808320600101549051610d21928992918991016128b3565b60408051601f19818403018152918152815160209283012060008981526003938490529182206007810154919450610d93938593899390928392600490910191908110610d6a57fe5b01546001600160a01b039081168252602082019290925260400160002054610100900416610913565b1515600114610db45760405162461bcd60e51b815260040161041f90612754565b600086815260036020526040808220805460ff19166002179055517ff895db26709b1885b39f9e1ccf5ba02ba670de0ab40406c776fb2d6547454a2591610dff918991903690612991565b60405180910390a15060008281526003602090815260408083206001015490516106da939192369133918791016120db565b836000600460008781526003602052604090205460ff166005811115610e5357fe5b14610e705760405162461bcd60e51b815260040161041f906121b6565b6000868152600360205260409020600d0154421115610ea15760405162461bcd60e51b815260040161041f90612252565b6000868152600360209081526040808320600101549051610ec7928a9291899101612294565b604051602081830303815290604052805190602001209050610f088185600080600360008d81526020019081526020016000206004018b60038110610d6a57fe5b1515600114610f295760405162461bcd60e51b815260040161041f90612754565b60008781526003602081905260408220600c019088908110610f4757fe5b602091828204019190066101000a81548160ff021916908360ff1602179055507f43ba35e6c6e3e7d2d60ab61115e3bd1fb23bd2016768225b35d0b3659b61596b87600036604051610f9b93929190612991565b60405180910390a15060008281526003602090815260408083206001015490516108e0939192369133918791016120db565b3360009081526020819052604090205460ff1615610ffd5760405162461bcd60e51b815260040161041f90612208565b60008060405160200161101091906121a8565b60405160208183030381529060405280519060200120848460405160200161103a93929190612708565b6040516020818303038152906040528051906020012090506110718183731df62f291b2e969fb0849d99d9ce41e2f137006e610913565b61108d5760405162461bcd60e51b815260040161041f90612888565b6001805480820182557fb10e2d527612073b26eecdfd717e6a320cf44b4afac2b0732d9fcbe2b7fa0cf60180546001600160a01b03191633908117909155604080516060810182528381526001600160a01b0388811660208381019182528385018a815260009687528682529490952083518154925190931661010002610100600160a81b031993151560ff199093169290921792909216178155915180519194929361113f93850192910190611a26565b5050600254604051611156925033906020016120c4565b60408051601f198184030181529082905280516020909101206002557fda12ee837e6978172aaf54b16145ffe08414fd8710092ef033c71b8eb6ec189a9061119f903390612067565b60405180910390a150505050565b8034600260008481526003602052604090205460ff1660058111156111ce57fe5b146111eb5760405162461bcd60e51b815260040161041f906128fb565b6000838152600360205260408082206002015490516001600160a01b03909116913480156108fc02929091818181858888f19350505050158015611233573d6000803e3d6000fd5b50600082815260036020908152604080832060010154905161060e939192369133918791016120db565b816000600260008581526003602052604090205460ff16600581111561127f57fe5b1461129c5760405162461bcd60e51b815260040161041f9061282b565b6000848152600360208181526040808420805460ff19169093178355600f4201600d84015560098301805461ff0019169055865191870191909120600a90920191909155517f7e536ba2b5e35ee457b166a96689c39db8afc45b78b582be7367bde0d38f827b91611311918791903690612991565b60405180910390a16000828152600360209081526040808320600101549051611342939192369133918791016120db565b60408051601f1981840301815291815281516020928301206000948552600390925290922060010191909155505050565b806000600360008481526003602052604090205460ff16600581111561139557fe5b146113b25760405162461bcd60e51b815260040161041f906122e7565b6000838152600360205260409020600d015442116113e25760405162461bcd60e51b815260040161041f9061294b565b600083815260036020819052604082206007810154600490910191811061140557fe5b01546000858152600360208190526040822060078101546001600160a01b039094169450919260049092019190811061143a57fe5b0180546001600160a01b0319166001600160a01b03929092169190911790556000848152600360205260409020600701546001015b600381101561150f5760008581526003602081905260408220600401908390811061149657fe5b01546001600160a01b0316146115075760008581526003602052604080822060078101849055805460ff19166002179055517fbb0d5d164a72a7661754749dfb4a665281bba5d8d9d03c722e3461fd781e777f916114f8918891903690612991565b60405180910390a15050611563565b60010161146f565b5060008481526003602052604090819020805460ff19166005179055517fc7f44cdb75f618980b33a7656ac597ef2c48a787cf269e5076b1c604b22e7da2906115599086906120bb565b60405180910390a1505b600082815260036020908152604080832060010154905161060e939192369133918791016120db565b836000600160008781526003602052604090205460ff1660058111156115ae57fe5b146115cb5760405162461bcd60e51b815260040161041f906124ee565b6000868152600360205260409020600d01544211156115fc5760405162461bcd60e51b815260040161041f9061246b565b60008681526003602090815260408083206001810154600890910154915161162c938b938b9290918b91016125dd565b60408051601f19818403018152918152815160209283012060008a8152600380855283822001546001600160a01b039081168252938190529190912054909250611680918391879161010090910416610913565b15156001146116a15760405162461bcd60e51b815260040161041f90612556565b6000878152600360208190526040909120600280820180546001600160a01b0319166001600160a01b038b16179055815460ff19161781556116ea916004909101908790611921565b507f217765ff9735e9a403b03898cfad0252e690a9a749da94b99fa3b3902c85474087600036604051610f9b93929190612991565b731df62f291b2e969fb0849d99d9ce41e2f137006e81565b6001818154811061174457fe5b6000918252602090912001546001600160a01b0316905081565b600083815260036020819052604082206007810154869392600490920191811061178457fe5b01546001600160a01b031633146117ad5760405162461bcd60e51b815260040161041f9061258d565b600260008681526003602052604090205460ff1660058111156117cc57fe5b14806118195750600360008681526003602052604090205460ff1660058111156117f257fe5b1480156118195750600085815260036020526040902060090154600261010090910460ff16105b6118355760405162461bcd60e51b815260040161041f90612664565b611840858585611869565b60008281526003602090815260408083206001015490516106da939192369133918791016120db565b600083815260036020526040902080546009909101805460ff9092169160ff1916600183600581111561189857fe5b02179055506000838152600360208181526040909220805460ff19166004178155600f4201600d820155845192850192909220600b8301556118df91600c01908390611997565b507f9122de78cc690f3eaee68f1809dbcacc419ab99109a747acf880e63071be52d58360003660405161191493929190612991565b60405180910390a1505050565b8260038101928215611969579160200282015b8281111561196957825182546001600160a01b0319166001600160a01b03909116178255602090920191600190910190611934565b50611975929150611aa0565b5090565b60405180606001604052806003906020820280388339509192915050565b600183019183908215611a1a5791602002820160005b838211156119eb57835183826101000a81548160ff021916908360ff16021790555092602001926001016020816000010492830192600103026119ad565b8015611a185782816101000a81549060ff02191690556001016020816000010492830192600103026119eb565b505b50611975929150611ac7565b828054600181600116156101000203166002900490600052602060002090601f016020900481019282601f10611a6757805160ff1916838001178555611a94565b82800160010185558215611a94579182015b82811115611a94578251825591602001919060010190611a79565b50611975929150611ae5565b611ac491905b808211156119755780546001600160a01b0319168155600101611aa6565b90565b611ac491905b8082111561197557805460ff19168155600101611acd565b611ac491905b808211156119755760008155600101611aeb565b600082601f830112611b0f578081fd5b611b1960606129ab565b9050808284606085011115611b2d57600080fd5b60005b6003811015611b59578135611b44816129e1565b83526020928301929190910190600101611b30565b50505092915050565b600082601f830112611b72578081fd5b611b7c60606129ab565b9050808284606085011115611b9057600080fd5b60005b6003811015611b59578135611ba7816129f9565b83526020928301929190910190600101611b93565b600082601f830112611bcc578081fd5b81356001600160401b03811115611be1578182fd5b611bf4601f8201601f19166020016129ab565b9150808252836020828501011115611c0b57600080fd5b8060208401602084013760009082016020015292915050565b600060208284031215611c35578081fd5b8135611c40816129e1565b9392505050565b600080600060608486031215611c5b578182fd5b8335611c66816129e1565b95602085013595506040909401359392505050565b600080600060608486031215611c8f578283fd5b8335611c9a816129e1565b925060208401356001600160401b0380821115611cb5578384fd5b611cc187838801611bbc565b93506040860135915080821115611cd6578283fd5b50611ce386828701611bbc565b9150509250925092565b600080600060608486031215611d01578283fd5b8335925060208401356001600160401b03811115611d1d578283fd5b611d2986828701611bbc565b9250506040840135611d3a816129e1565b809150509250925092565b600060208284031215611d56578081fd5b5035919050565b60008060008060c08587031215611d72578081fd5b843593506020850135611d84816129e1565b9250611d938660408701611aff565b915060a08501356001600160401b03811115611dad578182fd5b611db987828801611bbc565b91505092959194509250565b6000806000806101008587031215611ddb578384fd5b84359350611dec8660208701611aff565b925060808501356001600160401b03811115611e06578283fd5b611e1287828801611bbc565b925050611e228660a08701611b62565b905092959194509250565b60008060408385031215611e3f578182fd5b8235915060208301356001600160401b03811115611e5b578182fd5b611e6785828601611bbc565b9150509250929050565b600080600060a08486031215611e85578283fd5b8335925060208401356001600160401b03811115611ea1578283fd5b611ead86828701611bbc565b925050611ebd8560408601611b62565b90509250925092565b600080600060608486031215611eda578283fd5b8335925060208401356001600160401b0380821115611cb5578384fd5b600080600060608486031215611f0b578081fd5b83359250602084013591506040840135611d3a816129e1565b60008060008060808587031215611f39578182fd5b843593506020850135925060408501356001600160401b0380821115611f5d578384fd5b611f6988838901611bbc565b93506060870135915080821115611f7e578283fd5b50611db987828801611bbc565b600080600060608486031215611f9f578081fd5b8351611faa816129f9565b602085015160409095015190969495509392505050565b60008284528282602086013780602084860101526020601f19601f85011685010190509392505050565b60008151808452815b8181101561201057602081850181015186830182015201611ff4565b818111156120215782602083870101525b50601f01601f19169290920160200192915050565b7f19457468657265756d205369676e6564204d6573736167653a0a3332000000008152601c810191909152603c0190565b6001600160a01b0391909116815260200190565b901515815260200190565b83151581526001600160a01b03831660208201526060604082018190526000906120b290830184611feb565b95945050505050565b90815260200190565b9182526001600160a01b0316602082015260400190565b6000868252608060208301526120f5608083018688611fc1565b6001600160a01b0394909416604083015250606001529392505050565b93845260ff9290921660208401526040830152606082015260800190565b610160810161213e8d6129d1565b8252602082018c90526001600160a01b038b811660408401528a1660608301526080820189905260a08201889052612175876129d1565b60c083015260ff861660e08301528461010083015283610120830152826101408301529c9b505050505050505050505050565b60ff91909116815260200190565b60208082526032908201527f4e6f742074686520726967687420706861736520746f2070726f767564652061604082015271207761746368646f6720726573706f6e736560701b606082015260800190565b6020808252602a908201527f546865206f70657261746f722068617320616c726561647920726567697374656040820152697265642061205445452160b01b606082015260800190565b60208082526022908201527f54686520726573706f6e736520646561646c696e652068617320657870697265604082015261642160f01b606082015260800190565b600060808252601b60808301527f5761746368646f672d6368616c6c656e67652d526573706f6e7365000000000060a083015284602083015283604083015260c060608301526120b260c0830184611feb565b60208082526044908201527f4368616c6c656e67652063616e206f6e6c792062652074696d6564206f75742060408201527f696620746865726520697320616e20756e7265736f6c766564206368616c6c656060820152636e67652160e01b608082015260a00190565b60208082526043908201527f4368616c6c656e67652063616e206f6e6c7920626520616e737765726564206960408201527f6620746865726520697320616e20756e7265736f6c766564206368616c6c656e60608201526267652160e81b608082015260a00190565b60208082526029908201527f436f6e74726163742077697468207468697320494420646f657320616c72656160408201526864792065786973742160b81b606082015260800190565b60208082526042908201527f5468652073656e646572206f6620746865207061796f7574207478206973206e60408201527f6f742074686520706f6f6c207769746820746865207370656369666965642049606082015261442160f01b608082015260a00190565b60208082526022908201527f546865206372656174696f6e20646561646c696e652068617320657870697265604082015261642160f01b606082015260800190565b60208082526021908201527f4372656174696f6e206f70657261746f7220646f6573206e6f742065786973746040820152602160f81b606082015260800190565b60208082526042908201527f54686520636f6e747261637420776974682074686973204944206973206e6f7460408201527f20696e2074686520726967687420706861736520746f20626520637265617465606082015261642160f01b608082015260a00190565b6020808252601d908201527f57726f6e67207369676e617475726520666f72206372656174696f6e21000000604082015260600190565b60208082526030908201527f4e6f7420746865207269676874206163636f756e7420746f206368616c6c656e60408201526f676520746865207761746368646f677360801b606082015260800190565b610100808252600f908201526e10dc99585d1a5bdb8b505d1d195cdd608a1b61012082015260208101869052604081018590526001600160a01b0384811660608301526080820184905261014082019060a083018460005b60038110156126565781518416835260209283019290910190600101612635565b505050509695505050505050565b60208082526078908201527f4e6f742074686520726967687420706861736520746f206368616c6c656e676560408201527f207761746368646f6773206f72207761746368646f6773206861766520616c7260608201527f65616479206265656e206368616c6c656e6765642077697468696e207468652060808201527773616d65206578656375746f72206368616c6c656e67652160401b60a082015260c00190565b600060808252600e60808301526d119d5c9a5bdd5ccb505d1d195cdd60921b60a083015284602083015260018060a01b038416604083015260c060608301526120b260c0830184611feb565b60208082526026908201527f57726f6e67207369676e617475726520666f72206578656375746f7220726573604082015265706f6e73652160d01b606082015260800190565b60208082526065908201527f4e6f742074686520726967687420706861736520746f206368616c6c656e676560408201527f207761746368646f6773206f72207761746368646f6773206861766520616c7260608201527f65616479206265656e206368616c6c656e67656420647572696e67206372656160808201526474696f6e2160d81b60a082015260c00190565b6020808252603b908201527f43616e206f6e6c79206368616c6c656e6765206578656375746f72206f66206360408201527f6f6e747261637420696e20706861736520657865637574696e67210000000000606082015260800190565b6020808252601190820152702bb937b7339030ba3a32b9ba30ba34b7b760791b604082015260600190565b60006080825260126080830152714368616c6c656e67652d526573706f6e736560701b60a083015284602083015283604083015260c060608301526120b260c0830184611feb565b60208082526030908201527f436f6e747261637420776974682074686973204944206973206e6f7420696e2060408201526f706861736520455845435554494e472160801b606082015260800190565b60208082526026908201527f54686520726573706f6e736520646561646c696e6520686173206e6f7420657860408201526570697265642160d01b606082015260800190565b6000848252604060208301526120b2604083018486611fc1565b6040518181016001600160401b03811182821017156129c957600080fd5b604052919050565b80600681106129dc57fe5b919050565b6001600160a01b03811681146129f657600080fd5b50565b60ff811681146129f657600080fdfea264697066735822122060b48648b71ab590a8975c07b33332035048132b881dd8e8933e06e00cffa28964736f6c63430006010033",
  "source": "pragma solidity ^0.6.1;\npragma experimental \"ABIEncoderV2\";\n\ncontract FuriousManagingOtter  {\n    \n    //Constants\n    uint public constant POOL_SIZE = 3;\n    uint public constant TIMEOUT_INTERVAL = 15;   //The maximal dispute time is 3 * TIMEOUT_INTERVAL\n                                                //because the executive operator can get \"extra time\" by challenging the watchdogs\n    \n    //For attestation\n    bytes32 public constant WRAPPER_PROGRAM_CODE_HASH = keccak256(abi.encode(0));                  //0x290decd9548b62a8d60345a988386fc84ba6bc95484008f6362f93160ef3e563\n    address public constant ATTESTATION_AUTHORITY = 0x1dF62f291b2E969fB0849d99D9Ce41e2F137006e;        \n    \n    //Phases a contract can occupy\n    enum Phase { NONE, CREATION, EXECUTING, CHALLENGE_EXECUTOR, CHALLENGE_WATCHDOG, CRASHED }\n    \n    //Events\n    event NewOperator(address operator);\n    event CreationInitialized(uint id);\n    event ContractCreated(uint id, bytes txData);\n    event ExecutorChallenged(uint id, bytes txData);\n    event ExecutorResponse(uint id, bytes txData);\n    event ExecutorKicked(uint id, bytes txData);\n    event WatchdogChallenged(uint id, bytes txData);\n    event WatchdogResponse(uint id, bytes txData);\n    event WatchdogFinalized(uint id, bytes txData);\n    event ContractCrashed(uint id);\n    \n    //TODO@DKoisser: How to use events and the tx-data information\n    // - Use the operator to listen on all of the events\n    //      - Use a web3j library for this, e.g. web3js\n    // - When an event for a relevant id is registered do the following:\n    // - Extract the information required from the txData field\n    //       - This field contains all function parameters (you can e.g. use it to extract the challenge message, ...)\n    // - Read the other relevant data from the contract (e.g., Who is the current executor). Same informaiton can be received from the TEE as well\n    // - Always give the txData to the TEE\n    // - TEE interprets the txData and learns what it should do\n    //     - The txData contains the function that has been called, so the TEE knows how to interpret the txData\n    //         - e.g., if it is a deposit the TEE needs to update the state\n    //         - e.g., if it is a challenge the TEE needs to interpret the challenge message and answer it\n    //         - ...\n    //     - As the TEE can no longer access the on-chain state it needs to simulate the tx off-chain and evolve its off-chain state accordingly\n    //          - e.g., kick inactive watchdogs, ...\n    //     - This way the TEE can ensure that the local state and the on-chain state are always the same\n    //          - You only need to simulate the state that is relevant for the TEE\n    //          - You can for example ignore the timeout, because the TEE clock is not synchronized with the on-chain clock anyway\n    // - The TEE updates it local incrementalTxHash which always needs to be the same as the on-chain one and need to be included into all signatures.\n    //          - This way the Manager can ensure that the TEE is up-to-date\n    //          - See modifier updateIncrementalTxHash to check how the incrementalTxHash is updated\n    //- TxData has the following structure:\n    //  - The first 4 bytes are the first 4 bytes of the hash of the method signature\n    //      - These are used to determine the tx-type and thus to determine how to interpret the tx-data\n    //      - In Solidity the method-hash would be calculated with: bytes4(keccak256(bytes(method-signature)));\n    //          - Method signature are name and parameter-types without whitespaces and modifiers or location like \"memory\"\n    //              - Signature of register: register(address,bytes,bytes)\n    //              - Signature of initCreation: initCreation(address,bytes32,uint256)\n    //              - ...\n    //              - Sometimes types fo have synonyms: e.g. uint is actually uint256\n    //              - Constants need t: uint256[POOL_SIZE] is actually uint256[30]\n    //  - The other bytes are the abi-encoded function parameters\n    //      - In solidity they would be equal to abi.encode(p1,p2,...);\n    \n    //Operator information \n    struct Operator {\n        bool initialized;\n        address teeSignatureAddress;\n        bytes teeEncryptionKey;                     //Dummy value set to 0x00\n    }\n    \n    //Contract information\n    struct Contract {\n        \n        //General lifecycle management\n        Phase phase;                                //Current phase\n         bytes32 incrementalTxHash;                 //Incremental hash of all transactions relevant for this contract\n                                                    //This is used as a checkpoint that enables a contract to check that the TEE is up-to-date\n        \n        //Contract and pool information\n        address payable poolAddress;                // The address to the pool public key\n        address creationOperator;                   // The address of the creation operator\n        address[POOL_SIZE] operators;               // The operator pool, a kicked operator is one witha ddress(0)\n        uint executiveOperator;                     // The index of the current executive operator within the operator pool\n        bytes32 codeHash;                           // The code hash of the application logic\n        \n        //Dispute information\n        Phase fallbackPhase;                        // A watchdog challenge can be within another challenge. Therefore we need to store the fallback phase after the watchdog challenge\n        uint8 watchdogsChallenged;                   // Watchdogs may only be challenged once during an execution challenge. This variable helprs to ensure that\n        bytes32 execChallengeHash;                  // The hash of the challenge message of the executor challenge\n        bytes32 watchdogChallengeHash;              // The hash of the challengeHash of the watchdog challenge (we need both as watchdog challenge can be within executor challenge)\n        uint8[POOL_SIZE] challengedWatchdogs;        // Array that stores which watchdogs are challenged\n        uint deadline;\n    }\n    \n    //Operator mapping\n    mapping(address => Operator) public operators;\n    address[] public operatorList;                  //To enable the client to iterate over all operators, if we wanted to save gas, we could also iterate over the past events\n    bytes32 public operatorIncrementalHash = 0;                //The creaiton-TEE needs to sign the list of operators it receives to ensure that the input is correct\n                                                    //However, encoding the whole list of operators to check the signed list hash can become really expensive\n                                                    //Therefore we construct an incremental hash: newHash = hash(oldHash, new address); the initial hash is 0x00...00\n                                                    //The downside is that the TEE has to calculate this incrementalHash when receiving a list of operators itself\n    \n    //Contract mapping\n    mapping(uint => Contract) public contracts;\n    \n    \n    //******************\n    //Public functions\n    \n    \n    //******************\n    //Registration\n    \n    //Registers a Operator and attests TEE, there may only be one TEE per operator\n    function register(address teeSignatureAddress, bytes memory teeEncryptionKey, bytes memory attestationSignature) public {\n        \n        //Check that operator has not registered another TEE\n        require(operators[msg.sender].initialized == false, \"The operator has already registered a TEE!\");\n        \n        //Check the signature with the required signature algorithm //TODO @DKoisser: Here you can see what needs to be included into the attestation of a TEE  \n        bytes32 attestationHash = keccak256(abi.encode(\"Furious-Attest\", WRAPPER_PROGRAM_CODE_HASH, teeSignatureAddress, teeEncryptionKey));        //TODO: After the testing we should include the manager-address here as well: keccak256(abi.encode(\"Furious-Attest\", WRAPPER_PROGRAM_CODE_HASH,  address(this), teeSignatureAddress, teeEncryptionKey)); \n        require(verifySignature(attestationHash, attestationSignature, ATTESTATION_AUTHORITY), \"Wrong attestation\");\n\n        //Register operator\n        operatorList.push(msg.sender);\n        operators[msg.sender] = Operator(true, teeSignatureAddress, teeEncryptionKey);\n        operatorIncrementalHash = keccak256(abi.encode(operatorIncrementalHash, msg.sender));\n        \n        //Notify clients\n        emit NewOperator(msg.sender);\n    }\n    \n    //******************\n    //Creation\n    \n    //We do not challenge the creator. If he does not respond in time, the creation is simply not successful. Challenge would have the same effect.\n    \n    //Initializes the creation, we need this to ensure that the creation TEE gets the up-to-date state (e.g. list of operators) from the operator\n    function initCreation(address creationOperator, bytes32 codeHash, uint freeId) public {\n        \n        //Checks\n        require(contracts[freeId].phase == Phase.NONE, \"Contract with this ID does already exist!\");\n        require(operators[creationOperator].initialized == true, \"Creation operator does not exist!\");\n        \n        //Creat contract Tuple\n        address[POOL_SIZE] memory operatorArray;\n        uint8[POOL_SIZE] memory challenged;\n        contracts[freeId] = Contract(Phase.CREATION, operatorIncrementalHash, address(0), creationOperator, operatorArray, 0, codeHash, Phase.NONE, 0, 0, 0, challenged, now + TIMEOUT_INTERVAL);\n        \n        //Notify clients\n        emit CreationInitialized(freeId);\n    }\n    \n    //Enables the creation operator to challenge the pool during creation\n    //Problem: During creation the TEEs do not receive the same message as they do not know the secret pool key\n    //Solution: Simply interpret message as the concatination of all individual messages\n    function challengeWatchdogsDuringCreation(uint id, address[POOL_SIZE] memory pool_operators, bytes memory message, uint8[POOL_SIZE] memory challengedOperators) public updateIncrementalTxHash(id, 0) {\n        \n        //Checks\n        require(msg.sender == contracts[id].creationOperator, \"Not the right account to challenge the watchdogs\");                                                                                            \n        require(contracts[id].phase == Phase.CREATION && contracts[id].watchdogsChallenged < 1, \"Not the right phase to challenge watchdogs or watchdogs have already been challenged during creation!\");\n        \n        //I think we can set this without a signature as it will be overwritten by a successful creation anyways\n        contracts[id].operators = pool_operators;\n        \n        //Call the internal part of the watchdog challenge procedure (shared between watchdog challenges during execution and during creation)\n        internalWatchdogChallenge(id, message, challengedOperators);\n    }\n    \n    //Finalizes the creation. The TEE ensures that the values (e.g. Operator pool) are correct. We only need to check via the TEE-signature that it has received the correct inputs\n    function finalizeCreation(uint id, address payable pool_address, address[POOL_SIZE] memory pool_operators, bytes memory signature) public updateIncrementalTxHash(id, 0){\n        \n        //Checks\n        require(contracts[id].phase == Phase.CREATION, \"The contract with this ID is not in the right phase to be created!\");\n        require(contracts[id].deadline >= now, \"The creation deadline has expired!\");\n        \n        //Check Signature //TODO @DKoisser: Here you can see what needs to be included into the creation finalization signature\n        bytes32 signedHash = keccak256(abi.encode(\"Creation-Attest\", id, contracts[id].incrementalTxHash, pool_address, contracts[id].codeHash, pool_operators));\n        require(verifySignature(signedHash, signature, operators[contracts[id].creationOperator].teeSignatureAddress) == true, \"Wrong signature for creation!\");\n        \n        //Update state\n        contracts[id].poolAddress = pool_address;\n        contracts[id].phase = Phase.EXECUTING;\n        contracts[id].operators = pool_operators;\n        \n        //Notify clients\n        emit ContractCreated(id, msg.data);\n    }\n    \n    //******************\n    //Handling assets\n    \n    //Enables a party to deposit funds to a pool address, as we increment the checkpoint number this may only be done during phase executing\n    function depositToContract(uint id) public payable updateIncrementalTxHash(id, msg.value){\n        \n        //You can only deposit to an executing contract\n        require(contracts[id].phase == Phase.EXECUTING, \"Contract with this ID is not in phase EXECUTING!\");\n        \n        //Forward the money to the pool address\n        contracts[id].poolAddress.transfer(msg.value);\n    }\n    \n    //Enables a party to withdraw funds. The tx needs to be issued by the poolAddress (the pool-pk) and is broadcasted to the network by the client.\n    //The tx contains the block number and block hash, when it was issued.\n    //This way we ensure that the pool has been up-to-date with the blockchain when it has issued this payout. \n    function withdraw(uint id, uint blocknumber, address payable receiver) public payable updateIncrementalTxHash(id, msg.value) {\n        \n        //Checks\n        require(msg.sender == contracts[id].poolAddress, \"The sender of the payout tx is not the pool with the specified ID!\");\n        \n        //Forwards the withdraw value to the receiver of the payout\n        receiver.transfer(msg.value);\n    }\n    \n    //******************\n    //Execution Challenges - Can either be atomic (just challenge the executor) or combined with a challenge to the watchdogs by the executor. Needs to be complete before completing the challenge to the executor\n    \n    //Challenge the executor to provide the current state or execute a move (what exactly is encoded into the message)\n    function challengeExecutor(uint id, bytes memory message) public updateIncrementalTxHash(id, 0) {\n        \n        //Checks\n        require(contracts[id].phase == Phase.EXECUTING, \"Can only challenge executor of contract in phase executing!\");\n        \n        //Update state\n        contracts[id].phase = Phase.CHALLENGE_EXECUTOR;\n        contracts[id].deadline = now + TIMEOUT_INTERVAL;\n        contracts[id].watchdogsChallenged = 0;\n        contracts[id].execChallengeHash = keccak256(message);\n        \n        //Notify clients\n        emit ExecutorChallenged(id, msg.data);\n        \n    }\n    \n    //Response of the executive operator\n    function executorResponse(uint id, bytes memory response, bytes memory signature) public updateIncrementalTxHash(id, 0) {\n        \n        //Checks\n        require(contracts[id].phase == Phase.CHALLENGE_EXECUTOR, \"Challenge can only be answered if there is an unresolved challenge!\");\n        require(contracts[id].deadline >= now, \"The response deadline has expired!\");\n        \n        //Check Signature //TODO @DKoisser: Here you can see what needs to be included into the executor response signature\n        bytes32 signedHash = keccak256(abi.encode(\"Challenge-Response\", id, contracts[id].incrementalTxHash, response));  //Checkpoint-hash includes contracts[id].challengeHash\n        require(verifySignature(signedHash, signature, operators[contracts[id].operators[contracts[id].executiveOperator]].teeSignatureAddress) == true, \"Wrong signature for executor response!\");\n        \n        //Update state\n        contracts[id].phase = Phase.EXECUTING;\n        \n        //Notify clients\n        emit ExecutorResponse(id, msg.data);\n    }\n    \n    //Enables any party to kick the executive operator if it does not respond to a challenge in time\n    function executorTimeout(uint id) public updateIncrementalTxHash(id, 0) {\n        \n        //Checks\n        require(contracts[id].phase == Phase.CHALLENGE_EXECUTOR, \"Challenge can only be timed out if there is an unresolved challenge!\");\n        require(contracts[id].deadline < now, \"The response deadline has not expired!\");\n        \n        //Drop the executor = Set his address to address(0)\n        address _executor = contracts[id].operators[contracts[id].executiveOperator];\n        contracts[id].operators[contracts[id].executiveOperator] = address(0);\n        \n        //Check if there is another active operator\n        for(uint i = contracts[id].executiveOperator + 1; i < POOL_SIZE; i++) {\n            if(contracts[id].operators[i] != address(0)){\n                \n                //Update state\n                contracts[id].executiveOperator = i;\n                contracts[id].phase = Phase.EXECUTING;\n                \n                //Notify clients\n                emit ExecutorKicked(id, msg.data);\n                \n                return;\n            }\n        }\n        \n        //Otherwise: Mark the contract as crashed\n        contracts[id].phase = Phase.CRASHED;\n        \n        //Notify clients\n        emit ContractCrashed(id);\n\n    }\n    \n    //********************\n    // Challenge watchdogs\n    \n    //Enables the executors to challenge a list of watchdogs with a given message.\n    //If their are individual messages for each watchdog, simply concatenate them to one \n    function challengeWatchdog(uint id, bytes memory message, uint8[POOL_SIZE] memory challengedOperators) public updateIncrementalTxHash(id, 0){\n        \n        //Checks\n        require(msg.sender == contracts[id].operators[contracts[id].executiveOperator], \"Not the right account to challenge the watchdogs\");                                                                                            \n        require(contracts[id].phase == Phase.EXECUTING || (contracts[id].phase == Phase.CHALLENGE_EXECUTOR && contracts[id].watchdogsChallenged < 2), \"Not the right phase to challenge watchdogs or watchdogs have already been challenged within the same executor challenge!\");   //Correct phase\n        \n        //Internal function to prevent duplicate code\n        internalWatchdogChallenge(id, message, challengedOperators);\n        \n    }\n    \n    //Answers a watchdog challenge. The operator gives the challenge to the TEE which generates a response. The response can also be: <<Invalid Message>>\n    //Id 1 is the index of the party in the operator-list, Id 2 is the index of the party in the challenged-list\n    function watchdogResponse(uint id, uint index, bytes memory response, bytes memory signature) public updateIncrementalTxHash(id, 0) {\n        \n        //Checks\n        require(contracts[id].phase == Phase.CHALLENGE_WATCHDOG, \"Not the right phase to provude a watchdog response\");\n        require(contracts[id].deadline >= now, \"The response deadline has expired!\");\n        \n        //Verify signatures //TODO @DKoisser: Here you can see what needs to be included into a watchdog response signature\n        bytes32 signedHash = keccak256(abi.encode(\"Watchdog-challenge-Response\", id, contracts[id].incrementalTxHash, response));  //Checkpoint-hash includes contracts[id].challengeHash\n        require(verifySignature(signedHash, signature, operators[contracts[id].operators[index]].teeSignatureAddress) == true, \"Wrong signature for executor response!\");\n        \n        //Mark the party as not-challenged in the challenge list\n        contracts[id].challengedWatchdogs[index] = 0;\n        \n        //Notify clients\n        emit WatchdogResponse(id, msg.data);\n    }\n    \n    //Finalizes a watchdog challenge and kicks all watchdogs that have not responded\n    function watchdogFinalization(uint id) public updateIncrementalTxHash(id, 0){\n        \n        //Checks\n        require(contracts[id].phase == Phase.CHALLENGE_WATCHDOG, \"Not the right phase to provude a watchdog response\");\n        require(contracts[id].deadline < now, \"The response deadline has not expired!\");\n        \n        //Drop the watchdogs, that have not responded (The executor is ignored here)\n        for(uint i = 0; i < POOL_SIZE; i++){\n            if(contracts[id].challengedWatchdogs[i] == 1){\n                contracts[id].operators[i] = address(0);       //A kicked watchdog is simply one with address(0)\n            }\n        }\n        \n        //Return to the correct phase\n        contracts[id].phase = contracts[id].fallbackPhase;\n        contracts[id].watchdogsChallenged = contracts[id].watchdogsChallenged + 1;\n        \n        //Increase the timeout if there is an outer creation or executor challenge\n        if (contracts[id].phase == Phase.CHALLENGE_EXECUTOR || contracts[id].phase == Phase.CREATION) {\n            contracts[id].deadline = now + TIMEOUT_INTERVAL;\n        }\n        \n        //Notify clients\n        emit WatchdogFinalized(id, msg.data);\n    }\n    \n    //******************\n    //Modifiers\n    \n    //This code is executed after each public function (besides initCreation) to include the new transaction into the contract-tx-history-hash\n    modifier updateIncrementalTxHash(uint id, uint value) {\n        _;\n        //TODO @DKoisser: Check here how the incremental hash is created\n        contracts[id].incrementalTxHash = keccak256(abi.encode(contracts[id].incrementalTxHash, msg.data, msg.sender, value));\n    }\n    \n    //******************\n    //Private functions (Mainly prevent duplicate code)\n    \n    //Duplicate code used by both watchdog challenges which dupdates the state and emits the event\n    function internalWatchdogChallenge(uint id, bytes memory message, uint8[POOL_SIZE] memory challengedOperators) private {\n        \n        //Update state\n        contracts[id].fallbackPhase = contracts[id].phase;\n        contracts[id].phase = Phase.CHALLENGE_WATCHDOG;\n        contracts[id].deadline = now + TIMEOUT_INTERVAL;\n        contracts[id].watchdogChallengeHash = keccak256(message);\n        contracts[id].challengedWatchdogs = challengedOperators;\n        \n        //Notify clients\n        emit WatchdogChallenged(id, msg.data);\n    }\n    \n    //******************\n    //Public helper functions\n    \n    //Verifies ECDSA signatures of Ethereum addresses\n    //function verifySignature(bytes32 signedHash, bytes memory signature, address signer) public pure returns (bool) {\n    //    \n    //    //Parse the signature\n    //    (uint8 v, bytes32 r, bytes32 s) = abi.decode(signature, (uint8, bytes32, bytes32));\n    //    \n    //    //Verify the signature\n    //    return (ecrecover(signedHash, v, r, s) == signer);\n    //}\n    \n    //Verifies ECDSA signatures of prefixed and hashed encoded data: Hash the data, prefix it, hash it again, verify it against signature\n    //TODO: If our client does not prefix we can use the funciton above\n    function verifySignature(bytes32 _hashedDataInput, bytes memory _signature, address _party) public pure returns (bool){\n\n        //Convert signatures\n        (uint8 v, bytes32 r, bytes32 s) = abi.decode(_signature, (uint8, bytes32, bytes32));\n\n        //Calc prefixed hash\n        bytes32 _hash = keccak256(abi.encodePacked(\"\\x19Ethereum Signed Message:\\n32\", _hashedDataInput));\n\n        return _party == ecrecover(_hash, v,r,s);\n\n    }\n}\n",
  "sourcePath": "/mnt/103A12BD3A129FB0/CAC/Projekte/2020_FuriousOtter/furious-otter/OSCode/SmartContract/contracts/FuriousManagingOtter_v3.sol",
  "compiler": {
    "name": "solc",
    "version": "0.6.1+commit.e6f7d5a4.Emscripten.clang"
  },
  "schemaVersion": "3.4.3",
  "updatedAt": "2022-08-18T22:37:41.423Z",
  "devdoc": {
    "methods": {}
  },
  "userdoc": {
    "methods": {}
  }
}