{
  "contractName": "SolRsaVerify",
  "abi": [
    {
      "inputs": [
        {
          "internalType": "bytes32",
          "name": "_sha256",
          "type": "bytes32"
        },
        {
          "internalType": "bytes",
          "name": "_s",
          "type": "bytes"
        },
        {
          "internalType": "bytes",
          "name": "_e",
          "type": "bytes"
        },
        {
          "internalType": "bytes",
          "name": "_m",
          "type": "bytes"
        }
      ],
      "name": "pkcs1Sha256Verify",
      "outputs": [
        {
          "internalType": "uint256",
          "name": "",
          "type": "uint256"
        }
      ],
      "stateMutability": "view",
      "type": "function"
    },
    {
      "inputs": [
        {
          "internalType": "bytes",
          "name": "_data",
          "type": "bytes"
        },
        {
          "internalType": "bytes",
          "name": "_s",
          "type": "bytes"
        },
        {
          "internalType": "bytes",
          "name": "_e",
          "type": "bytes"
        },
        {
          "internalType": "bytes",
          "name": "_m",
          "type": "bytes"
        }
      ],
      "name": "pkcs1Sha256VerifyRaw",
      "outputs": [
        {
          "internalType": "uint256",
          "name": "",
          "type": "uint256"
        }
      ],
      "stateMutability": "view",
      "type": "function"
    }
  ],
  "bytecode": "0x608060405234801561001057600080fd5b506108f9806100206000396000f3fe608060405234801561001057600080fd5b50600436106100365760003560e01c80632ae0783d1461003b578063a1a8858f14610280575b600080fd5b61026e6004803603608081101561005157600080fd5b810190602081018135600160201b81111561006b57600080fd5b82018360208201111561007d57600080fd5b803590602001918460018302840111600160201b8311171561009e57600080fd5b91908080601f0160208091040260200160405190810160405280939291908181526020018383808284376000920191909152509295949360208101935035915050600160201b8111156100f057600080fd5b82018360208201111561010257600080fd5b803590602001918460018302840111600160201b8311171561012357600080fd5b91908080601f0160208091040260200160405190810160405280939291908181526020018383808284376000920191909152509295949360208101935035915050600160201b81111561017557600080fd5b82018360208201111561018757600080fd5b803590602001918460018302840111600160201b831117156101a857600080fd5b91908080601f0160208091040260200160405190810160405280939291908181526020018383808284376000920191909152509295949360208101935035915050600160201b8111156101fa57600080fd5b82018360208201111561020c57600080fd5b803590602001918460018302840111600160201b8311171561022d57600080fd5b91908080601f016020809104026020016040519081016040528093929190818152602001838380828437600092019190915250929550610435945050505050565b60408051918252519081900360200190f35b61026e6004803603608081101561029657600080fd5b81359190810190604081016020820135600160201b8111156102b757600080fd5b8201836020820111156102c957600080fd5b803590602001918460018302840111600160201b831117156102ea57600080fd5b91908080601f0160208091040260200160405190810160405280939291908181526020018383808284376000920191909152509295949360208101935035915050600160201b81111561033c57600080fd5b82018360208201111561034e57600080fd5b803590602001918460018302840111600160201b8311171561036f57600080fd5b91908080601f0160208091040260200160405190810160405280939291908181526020018383808284376000920191909152509295949360208101935035915050600160201b8111156103c157600080fd5b8201836020820111156103d357600080fd5b803590602001918460018302840111600160201b831117156103f457600080fd5b91908080601f0160208091040260200160405190810160405280939291908181526020018383808284376000920191909152509295506104d5945050505050565b60006104ca6002866040518082805190602001908083835b6020831061046c5780518252601f19909201916020918201910161044d565b51815160209384036101000a60001901801990921691161790526040519190930194509192505080830381855afa1580156104ab573d6000803e3d6000fd5b5050506040513d60208110156104c057600080fd5b50518585856104d5565b90505b949350505050565b60006104df6108a4565b5060408051610260810182526030808252603160208084019190915292820152600d60608083019190915260066080830152600960a083015260c0820152608660e0820152604861010082015260016101208201819052606561014083015260036101608301526004610180830181905260026101a08401526101c083019190915260056101e083015260006102008301526102208201526102408101919091528251603e111561058f57600080fd5b6000606061059e87878761079d565b8051865160408051828152601f19601f840116810160200190915292935090916060908280156105d5576020820181803883390190505b5090508160208201846020870160056107d05a03fa50805160351983019082906000906105fe57fe5b01602001516001600160f81b03191615158061063057508160018151811061062257fe5b60209101015160f81c600114155b156106455760019750505050505050506104cd565b600295505b806002018610156106925781868151811061066157fe5b01602001516001600160f81b0319908116146106875760029750505050505050506104cd565b60019095019461064a565b8181600201815181106106a157fe5b01602001516001600160f81b031916156106c55760039750505050505050506104cd565b600095505b6013861015610720578686601381106106df57fe5b602002015160ff1682878360030101815181106106f857fe5b016020015160f81c146107155760049750505050505050506104cd565b6001909501946106ca565b600095505b602086101561078b578b866020811061073a57fe5b1a60f81b6001600160f81b031916828760138460030101018151811061075c57fe5b01602001516001600160f81b031916146107805760059750505050505050506104cd565b600190950194610725565b5060009b9a5050505050505050505050565b60606000825184518651606001010190506000855190506000855190506000855190506000806000806060886040519080825280601f01601f1916602001820160405280156107f3576020820181803883390190505b50905060208d01945060208c01935060208b01925087602082015286604082015285606082015260208101915061082f82606001868f51610866565b6108418d518360600101858e51610866565b6108568c518e51846060010101848d51610866565b9c9b505050505050505050505050565b5b60208110610886578151835260209283019290910190601f1901610867565b905182516020929092036101000a6000190180199091169116179052565b604051806102600160405280601390602082028038833950919291505056fea26469706673582212209b7b72166b7497803d3d24dff2d59e030362bd56b3ecbf422520475b440c8d8364736f6c63430006010033",
  "source": "//Copied from: https://github.com/adria0/SolRsaVerify\n\npragma solidity ^0.6.0;\n\n/*\n    Copyright 2016, Adrià Massanet\n    This program is free software: you can redistribute it and/or modify\n    it under the terms of the GNU General Public License as published by\n    the Free Software Foundation, either version 3 of the License, or\n    (at your option) any later version.\n    This program is distributed in the hope that it will be useful,\n    but WITHOUT ANY WARRANTY; without even the implied warranty of\n    MERCHANTABILITY or FITNESS FOR A PARTICULAR PURPOSE.  See the\n    GNU General Public License for more details.\n    You should have received a copy of the GNU General Public License\n    along with this program.  If not, see <http://www.gnu.org/licenses/>.\n    \n    Checked results with FIPS test vectors\n    https://csrc.nist.gov/CSRC/media/Projects/Cryptographic-Algorithm-Validation-Program/documents/dss/186-2rsatestvectors.zip\n    file SigVer15_186-3.rsp\n    \n */\n\ncontract SolRsaVerify { //TODO: We only changed \"library\" to \"contract\"\n\n    function memcpy(uint _dest, uint _src, uint _len) pure internal {\n        // Copy word-length chunks while possible\n        for ( ;_len >= 32; _len -= 32) {\n            assembly {\n                mstore(_dest, mload(_src))\n            }\n            _dest += 32;\n            _src += 32;\n        }\n\n        // Copy remaining bytes\n        uint mask = 256 ** (32 - _len) - 1;\n        assembly {\n            let srcpart := and(mload(_src), not(mask))\n            let destpart := and(mload(_dest), mask)\n            mstore(_dest, or(destpart, srcpart))\n        }\n    }\n\n    \n    function join(\n\tbytes memory _s, bytes memory _e, bytes memory _m\n    ) pure internal returns (bytes memory) {\n        uint inputLen = 0x60+_s.length+_e.length+_m.length;\n        \n        uint slen = _s.length;\n        uint elen = _e.length;\n        uint mlen = _m.length;\n        uint sptr;\n        uint eptr;\n        uint mptr;\n        uint inputPtr;\n        \n        bytes memory input = new bytes(inputLen);\n        assembly {\n            sptr := add(_s,0x20)\n            eptr := add(_e,0x20)\n            mptr := add(_m,0x20)\n            mstore(add(input,0x20),slen)\n            mstore(add(input,0x40),elen)\n            mstore(add(input,0x60),mlen)\n            inputPtr := add(input,0x20)\n        }\n        memcpy(inputPtr+0x60,sptr,_s.length);        \n        memcpy(inputPtr+0x60+_s.length,eptr,_e.length);        \n        memcpy(inputPtr+0x60+_s.length+_e.length,mptr,_m.length);\n\n        return input;\n    }\n    \n    /** @dev Verifies a PKCSv1.5 SHA256 signature\n      * @param _sha256 is the sha256 of the data\n      * @param _s is the signature\n      * @param _e is the exponent\n      * @param _m is the modulus\n      * @return 0 if success, >0 otherwise\n    */    \n    function pkcs1Sha256Verify(\n        bytes32 _sha256,\n        bytes memory _s, bytes memory _e, bytes memory _m\n    ) public view returns (uint) {\n        \n        uint8[19] memory sha256Prefix = [\n            0x30, 0x31, 0x30, 0x0d, 0x06, 0x09, 0x60, 0x86, 0x48, 0x01, 0x65, 0x03, 0x04, 0x02, 0x01, 0x05, 0x00, 0x04, 0x20\n        ];\n        \n      \trequire(_m.length >= sha256Prefix.length+_sha256.length+11);\n\n        uint i;\n\n        /// decipher\n        bytes memory input = join(_s,_e,_m);\n        uint inputlen = input.length;\n\n        uint decipherlen = _m.length;\n        bytes memory decipher = new bytes(decipherlen);\n        assembly {\n            pop(staticcall(sub(gas(), 2000), 5, add(input,0x20), inputlen, add(decipher,0x20), decipherlen))\n\t    }\n        \n        /// 0x00 || 0x01 || PS || 0x00 || DigestInfo\n        /// PS is padding filled with 0xff\n        //  DigestInfo ::= SEQUENCE {\n        //     digestAlgorithm AlgorithmIdentifier,\n        //     digest OCTET STRING\n        //  }\n        \n        uint paddingLen = decipherlen - 3 - sha256Prefix.length - 32;\n        \n        if (decipher[0] != 0 || uint8(decipher[1]) != 1) {\n            return 1;\n        }\n        for (i = 2;i<2+paddingLen;i++) {\n            if (decipher[i] != 0xff) {\n                return 2;\n            }\n        }\n        if (decipher[2+paddingLen] != 0) {\n            return 3;\n        }\n        for (i = 0;i<sha256Prefix.length;i++) {\n            if (uint8(decipher[3+paddingLen+i])!=sha256Prefix[i]) {\n                return 4;\n            }\n        }\n        for (i = 0;i<_sha256.length;i++) {\n            if (decipher[3+paddingLen+sha256Prefix.length+i]!=_sha256[i]) {\n                return 5;\n            }\n        }\n\n        return 0;\n    }\n\n    /** @dev Verifies a PKCSv1.5 SHA256 signature\n      * @param _data to verify\n      * @param _s is the signature\n      * @param _e is the exponent\n      * @param _m is the modulus\n      * @return 0 if success, >0 otherwise\n    */    \n    function pkcs1Sha256VerifyRaw(\n        bytes memory _data, \n        bytes memory _s, bytes memory _e, bytes memory _m\n    ) public view returns (uint) {\n        return pkcs1Sha256Verify(sha256(_data),_s,_e,_m);\n    }\n\n}\n",
  "sourcePath": "/mnt/103A12BD3A129FB0/CAC/Projekte/2020_FuriousOtter/furious-otter/OSCode/SmartContract/contracts/RSALibrary.sol",
  "compiler": {
    "name": "solc",
    "version": "0.6.1+commit.e6f7d5a4.Emscripten.clang"
  },
  "schemaVersion": "3.4.3",
  "updatedAt": "2022-08-18T22:37:41.442Z",
  "devdoc": {
    "methods": {
      "pkcs1Sha256Verify(bytes32,bytes,bytes,bytes)": {
        "details": "Verifies a PKCSv1.5 SHA256 signature",
        "params": {
          "_e": "is the exponent",
          "_m": "is the modulus",
          "_s": "is the signature",
          "_sha256": "is the sha256 of the data"
        },
        "returns": {
          "_0": "0 if success, >0 otherwise"
        }
      },
      "pkcs1Sha256VerifyRaw(bytes,bytes,bytes,bytes)": {
        "details": "Verifies a PKCSv1.5 SHA256 signature",
        "params": {
          "_data": "to verify",
          "_e": "is the exponent",
          "_m": "is the modulus",
          "_s": "is the signature"
        },
        "returns": {
          "_0": "0 if success, >0 otherwise"
        }
      }
    }
  },
  "userdoc": {
    "methods": {}
  }
}