{
  "contractName": "Test",
  "abi": [
    {
      "anonymous": false,
      "inputs": [
        {
          "indexed": false,
          "internalType": "bytes",
          "name": "rawData",
          "type": "bytes"
        },
        {
          "indexed": false,
          "internalType": "address",
          "name": "sender",
          "type": "address"
        },
        {
          "indexed": false,
          "internalType": "uint256",
          "name": "value",
          "type": "uint256"
        },
        {
          "indexed": false,
          "internalType": "bytes32",
          "name": "rawDataHash",
          "type": "bytes32"
        }
      ],
      "name": "TransactionData",
      "type": "event"
    },
    {
      "inputs": [],
      "name": "ATTESTATION_AUTHORITY",
      "outputs": [
        {
          "internalType": "address",
          "name": "",
          "type": "address"
        }
      ],
      "stateMutability": "view",
      "type": "function"
    },
    {
      "inputs": [],
      "name": "WRAPPER_PROGRAM_CODE_HASH",
      "outputs": [
        {
          "internalType": "bytes32",
          "name": "",
          "type": "bytes32"
        }
      ],
      "stateMutability": "view",
      "type": "function"
    },
    {
      "inputs": [],
      "name": "incrementalHash",
      "outputs": [
        {
          "internalType": "bytes32",
          "name": "",
          "type": "bytes32"
        }
      ],
      "stateMutability": "view",
      "type": "function"
    },
    {
      "inputs": [],
      "name": "lastHash",
      "outputs": [
        {
          "internalType": "bytes32",
          "name": "",
          "type": "bytes32"
        }
      ],
      "stateMutability": "view",
      "type": "function"
    },
    {
      "inputs": [],
      "name": "success",
      "outputs": [
        {
          "internalType": "bool",
          "name": "",
          "type": "bool"
        }
      ],
      "stateMutability": "view",
      "type": "function"
    },
    {
      "inputs": [
        {
          "internalType": "uint256",
          "name": "testValue",
          "type": "uint256"
        }
      ],
      "name": "testRawData",
      "outputs": [],
      "stateMutability": "payable",
      "type": "function"
    },
    {
      "inputs": [
        {
          "internalType": "uint256",
          "name": "testValue",
          "type": "uint256"
        }
      ],
      "name": "testRawDataWithoutValue",
      "outputs": [],
      "stateMutability": "nonpayable",
      "type": "function"
    },
    {
      "inputs": [
        {
          "internalType": "address",
          "name": "teeSignatureAddress",
          "type": "address"
        },
        {
          "internalType": "bytes",
          "name": "teeEncryptionKey",
          "type": "bytes"
        },
        {
          "internalType": "bytes",
          "name": "attestationSignature",
          "type": "bytes"
        }
      ],
      "name": "verifyAttestWithoutPrefix",
      "outputs": [],
      "stateMutability": "nonpayable",
      "type": "function"
    },
    {
      "inputs": [
        {
          "internalType": "address",
          "name": "teeSignatureAddress",
          "type": "address"
        },
        {
          "internalType": "bytes",
          "name": "teeEncryptionKey",
          "type": "bytes"
        },
        {
          "internalType": "bytes",
          "name": "attestationSignature",
          "type": "bytes"
        }
      ],
      "name": "verifyAttest",
      "outputs": [],
      "stateMutability": "nonpayable",
      "type": "function"
    },
    {
      "inputs": [
        {
          "internalType": "bytes",
          "name": "_encodedInput",
          "type": "bytes"
        },
        {
          "internalType": "bytes",
          "name": "_signature",
          "type": "bytes"
        },
        {
          "internalType": "address",
          "name": "_party",
          "type": "address"
        }
      ],
      "name": "verifySignatureWithoutPrefix",
      "outputs": [
        {
          "internalType": "bool",
          "name": "",
          "type": "bool"
        }
      ],
      "stateMutability": "pure",
      "type": "function"
    },
    {
      "inputs": [
        {
          "internalType": "bytes",
          "name": "_encodedInput",
          "type": "bytes"
        },
        {
          "internalType": "bytes",
          "name": "_signature",
          "type": "bytes"
        },
        {
          "internalType": "address",
          "name": "_party",
          "type": "address"
        }
      ],
      "name": "verifySignature",
      "outputs": [
        {
          "internalType": "bool",
          "name": "",
          "type": "bool"
        }
      ],
      "stateMutability": "pure",
      "type": "function"
    }
  ],
  "bytecode": "0x6080604052600080546001600160a01b031916731df62f291b2e969fb0849d99d9ce41e2f137006e17815560018190556002805460ff1916905560035534801561004857600080fd5b506108f0806100586000396000f3fe60806040526004361061009c5760003560e01c8063786568da11610064578063786568da1461012d5780637c2254921461014d578063923767f11461016d578063c296d35e1461018d578063d3884eba146101af578063eb9b17111461016d5761009c565b806302be6711146100a15780630b93381b146100cc5780631916a41f146100ee5780633fa2180614610103578063447d565d14610118575b600080fd5b3480156100ad57600080fd5b506100b66101cf565b6040516100c39190610747565b60405180910390f35b3480156100d857600080fd5b506100e16101d5565b6040516100c3919061073c565b3480156100fa57600080fd5b506100b66101de565b34801561010f57600080fd5b506100b6610209565b61012b61012636600461066a565b61020f565b005b34801561013957600080fd5b506100e16101483660046105ea565b61029f565b34801561015957600080fd5b506100e16101683660046105ea565b610361565b34801561017957600080fd5b5061012b61018836600461056c565b6103f7565b34801561019957600080fd5b506101a261046f565b6040516100c39190610728565b3480156101bb57600080fd5b5061012b6101ca36600461066a565b61047e565b60015481565b60025460ff1681565b60006040516020016101f0919061081e565b6040516020818303038152906040528051906020012081565b60035481565b600154600036333460405160200161022b95949392919061078f565b604051602081830303815290604052805190602001206001819055507fa573fe0c0f147b381a448aa75ed877b676c5cbd0d6456b5d4b217cc2ef947ffa600036333460003660405161027e9291906106e7565b60405190819003812061029495949392916107e4565b60405180910390a150565b600080600080858060200190516102b99190810190610682565b925092509250600087805190602001206040516020016102d991906106f7565b6040516020818303038152906040528051906020012090506001818585856040516000815260200160405260405161031494939291906107c6565b6020604051602081039080840390855afa158015610336573d6000803e3d6000fd5b505050602060405103516001600160a01b0316866001600160a01b0316149450505050509392505050565b6000806000808580602001905161037b9190810190610682565b92509250925060018780519060200120848484604051600081526020016040526040516103ab94939291906107c6565b6020604051602081039080840390855afa1580156103cd573d6000803e3d6000fd5b505050602060405103516001600160a01b0316856001600160a01b03161493505050509392505050565b610459600060405160200161040c919061081e565b6040516020818303038152906040528051906020012084846040516020016104369392919061082c565b60408051601f1981840301815291905260005483906001600160a01b031661029f565b6002805460ff1916911515919091179055505050565b6000546001600160a01b031681565b60015460003633600060405160200161049b959493929190610750565b604051602081830303815290604052805190602001206001819055507fa573fe0c0f147b381a448aa75ed877b676c5cbd0d6456b5d4b217cc2ef947ffa600036336000803660405161027e9291906106e7565b600082601f8301126104fe578081fd5b813567ffffffffffffffff80821115610515578283fd5b604051601f8301601f191681016020018281118282101715610535578485fd5b60405282815292508284830160200186101561055057600080fd5b8260208601602083013760006020848301015250505092915050565b600080600060608486031215610580578283fd5b83356001600160a01b0381168114610596578384fd5b9250602084013567ffffffffffffffff808211156105b2578384fd5b6105be878388016104ee565b935060408601359150808211156105d3578283fd5b506105e0868287016104ee565b9150509250925092565b6000806000606084860312156105fe578283fd5b833567ffffffffffffffff80821115610615578485fd5b610621878388016104ee565b94506020860135915080821115610636578384fd5b50610643868287016104ee565b92505060408401356001600160a01b038116811461065f578182fd5b809150509250925092565b60006020828403121561067b578081fd5b5035919050565b600080600060608486031215610696578283fd5b835160ff811681146106a6578384fd5b602085015160409095015190969495509392505050565b60008284528282602086013780602084860101526020601f19601f85011685010190509392505050565b6000828483379101908152919050565b7f19457468657265756d205369676e6564204d6573736167653a0a3332000000008152601c810191909152603c0190565b6001600160a01b0391909116815260200190565b901515815260200190565b90815260200190565b60008682526080602083015261076a6080830186886106bd565b6001600160a01b039490941660408301525060ff919091166060909101529392505050565b6000868252608060208301526107a96080830186886106bd565b6001600160a01b0394909416604083015250606001529392505050565b93845260ff9290921660208401526040830152606082015260800190565b6000608082526107f86080830187896106bd565b6001600160a01b0395909516602083015250604081019290925260609091015292915050565b60ff91909116815260200190565b600060808252600e60808301526d119d5c9a5bdd5ccb505d1d195cdd60921b60a083015284602083015260018060a01b038416604083015260c0606083015282518060c0840152815b8181101561089257602081860181015160e0868401015201610875565b818111156108a3578260e083860101525b50601f01601f19169190910160e00194935050505056fea26469706673582212202dbbfbc0790b126de528f0e4cff2d242e627e3f2a7318170c8787f6cd6eeb57864736f6c63430006010033",
  "source": "pragma solidity ^0.6.1;\npragma experimental \"ABIEncoderV2\";\n\ncontract Test {\n    \n    bytes32 public constant WRAPPER_PROGRAM_CODE_HASH = keccak256(abi.encode(0));                  //0x290decd9548b62a8d60345a988386fc84ba6bc95484008f6362f93160ef3e563\n    address public ATTESTATION_AUTHORITY = 0x1dF62f291b2E969fB0849d99D9Ce41e2F137006e; \n    bytes32 public incrementalHash = 0;\n    bool public success = false;\n    bytes32 public lastHash = 0;\n    \n    event TransactionData(bytes rawData, address sender, uint value, bytes32 rawDataHash);\n    \n    function testRawData(uint256 testValue) public payable {\n        \n        incrementalHash = keccak256(abi.encode(incrementalHash, msg.data, msg.sender, msg.value));\n        \n        emit TransactionData(msg.data, msg.sender, msg.value, keccak256(msg.data));\n           \n    }\n    \n    function testRawDataWithoutValue(uint256 testValue) public {\n        \n        incrementalHash = keccak256(abi.encode(incrementalHash, msg.data, msg.sender, 0));\n        \n        emit TransactionData(msg.data, msg.sender, 0, keccak256(msg.data));\n           \n    }\n    \n    function verifyAttestWithoutPrefix(address teeSignatureAddress, bytes memory teeEncryptionKey, bytes memory attestationSignature) public {\n        success = verifySignature(abi.encode(\"Furious-Attest\", WRAPPER_PROGRAM_CODE_HASH,  teeSignatureAddress, teeEncryptionKey),attestationSignature,ATTESTATION_AUTHORITY);\n    }\n    \n    function verifyAttest(address teeSignatureAddress, bytes memory teeEncryptionKey, bytes memory attestationSignature) public {\n        success = verifySignature(abi.encode(\"Furious-Attest\", WRAPPER_PROGRAM_CODE_HASH, teeSignatureAddress, teeEncryptionKey),attestationSignature,ATTESTATION_AUTHORITY);\n    }\n    \n    function verifySignatureWithoutPrefix(bytes memory _encodedInput, bytes memory _signature, address _party) public pure returns (bool){\n\n        //Convert signatures\n        (uint8 v, bytes32 r, bytes32 s) = abi.decode(_signature, (uint8, bytes32, bytes32));\n\n        return _party == ecrecover(keccak256(_encodedInput), v,r,s);\n\n    } \n\n    function verifySignature(bytes memory _encodedInput, bytes memory _signature, address _party) public pure returns (bool){\n\n        //Convert signatures\n        (uint8 v, bytes32 r, bytes32 s) = abi.decode(_signature, (uint8, bytes32, bytes32));\n\n        //Calc prefixed hash\n        bytes32 _hash = keccak256(abi.encodePacked(\"\\x19Ethereum Signed Message:\\n32\", keccak256(_encodedInput)));\n\n        return _party == ecrecover(_hash, v,r,s);\n\n    }\n}\n",
  "sourcePath": "/mnt/103A12BD3A129FB0/CAC/Projekte/2020_FuriousOtter/furious-otter/OSCode/SmartContract/contracts/Test.sol",
  "compiler": {
    "name": "solc",
    "version": "0.6.1+commit.e6f7d5a4.Emscripten.clang"
  },
  "schemaVersion": "3.4.3",
  "updatedAt": "2022-08-18T22:37:41.448Z",
  "devdoc": {
    "methods": {}
  },
  "userdoc": {
    "methods": {}
  }
}